{
  "_format": "hh-sol-artifact-1",
  "contractName": "Hello",
  "sourceName": "contracts/Hello.sol",
  "abi": [
    {
      "inputs": [],
      "stateMutability": "nonpayable",
      "type": "constructor"
    },
    {
      "inputs": [],
      "name": "getMessage",
      "outputs": [
        {
          "internalType": "string",
          "name": "",
          "type": "string"
        }
      ],
      "stateMutability": "view",
      "type": "function"
    },
    {
      "inputs": [],
      "name": "message",
      "outputs": [
        {
          "internalType": "string",
          "name": "",
          "type": "string"
        }
      ],
      "stateMutability": "view",
      "type": "function"
    },
    {
      "inputs": [],
      "name": "owner",
      "outputs": [
        {
          "internalType": "address",
          "name": "",
          "type": "address"
        }
      ],
      "stateMutability": "view",
      "type": "function"
    }
  ],
  "bytecode": "0x60806040526040518060400160405280600b81526020017f48656c6c6f20576f726c640000000000000000000000000000000000000000008152506001908051906020019061004f9291906101b6565b5034801561005c57600080fd5b50336000806101000a81548173ffffffffffffffffffffffffffffffffffffffff021916908373ffffffffffffffffffffffffffffffffffffffff1602179055506100e66040518060400160405280600e81526020017f4f776e657220616464726573733a000000000000000000000000000000000000815250336100eb60201b6101e41760201c565b6103c4565b61018982826040516024016101019291906102a1565b6040516020818303038152906040527f319af333000000000000000000000000000000000000000000000000000000007bffffffffffffffffffffffffffffffffffffffffffffffffffffffff19166020820180517bffffffffffffffffffffffffffffffffffffffffffffffffffffffff838183161783525050505061018d60201b60201c565b5050565b60008151905060006a636f6e736f6c652e6c6f679050602083016000808483855afa5050505050565b8280546101c290610352565b90600052602060002090601f0160209004810192826101e4576000855561022b565b82601f106101fd57805160ff191683800117855561022b565b8280016001018555821561022b579182015b8281111561022a57825182559160200191906001019061020f565b5b509050610238919061023c565b5090565b5b8082111561025557600081600090555060010161023d565b5090565b610262816102ed565b82525050565b6000610273826102d1565b61027d81856102dc565b935061028d81856020860161031f565b610296816103b3565b840191505092915050565b600060408201905081810360008301526102bb8185610268565b90506102ca6020830184610259565b9392505050565b600081519050919050565b600082825260208201905092915050565b60006102f8826102ff565b9050919050565b600073ffffffffffffffffffffffffffffffffffffffff82169050919050565b60005b8381101561033d578082015181840152602081019050610322565b8381111561034c576000848401525b50505050565b6000600282049050600182168061036a57607f821691505b6020821081141561037e5761037d610384565b5b50919050565b7f4e487b7100000000000000000000000000000000000000000000000000000000600052602260045260246000fd5b6000601f19601f8301169050919050565b610487806103d36000396000f3fe608060405234801561001057600080fd5b50600436106100415760003560e01c80638da5cb5b14610046578063ce6d41de14610064578063e21f37ce14610082575b600080fd5b61004e6100a0565b60405161005b91906102f1565b60405180910390f35b61006c6100c4565b604051610079919061030c565b60405180910390f35b61008a610156565b604051610097919061030c565b60405180910390f35b60008054906101000a900473ffffffffffffffffffffffffffffffffffffffff1681565b6060600180546100d3906103df565b80601f01602080910402602001604051908101604052809291908181526020018280546100ff906103df565b801561014c5780601f106101215761010080835404028352916020019161014c565b820191906000526020600020905b81548152906001019060200180831161012f57829003601f168201915b5050505050905090565b60018054610163906103df565b80601f016020809104026020016040519081016040528092919081815260200182805461018f906103df565b80156101dc5780601f106101b1576101008083540402835291602001916101dc565b820191906000526020600020905b8154815290600101906020018083116101bf57829003601f168201915b505050505081565b61027c82826040516024016101fa92919061032e565b6040516020818303038152906040527f319af333000000000000000000000000000000000000000000000000000000007bffffffffffffffffffffffffffffffffffffffffffffffffffffffff19166020820180517bffffffffffffffffffffffffffffffffffffffffffffffffffffffff8381831617835250505050610280565b5050565b60008151905060006a636f6e736f6c652e6c6f679050602083016000808483855afa5050505050565b6102b28161037a565b82525050565b60006102c38261035e565b6102cd8185610369565b93506102dd8185602086016103ac565b6102e681610440565b840191505092915050565b600060208201905061030660008301846102a9565b92915050565b6000602082019050818103600083015261032681846102b8565b905092915050565b6000604082019050818103600083015261034881856102b8565b905061035760208301846102a9565b9392505050565b600081519050919050565b600082825260208201905092915050565b60006103858261038c565b9050919050565b600073ffffffffffffffffffffffffffffffffffffffff82169050919050565b60005b838110156103ca5780820151818401526020810190506103af565b838111156103d9576000848401525b50505050565b600060028204905060018216806103f757607f821691505b6020821081141561040b5761040a610411565b5b50919050565b7f4e487b7100000000000000000000000000000000000000000000000000000000600052602260045260246000fd5b6000601f19601f830116905091905056fea2646970667358221220f9468593529e01d828b29359b8f545a22ad1b862efb587a114e0c7d0d51fabc164736f6c63430008040033",
  "linkReferences": {},
  "deployedLinkReferences": {}
}