{
  "src/backend/contracts/Marketplace.sol": {
    "Marketplace": {
      "abi": [
        {
          "inputs": [
            {
              "internalType": "uint256",
              "name": "_feePercent",
              "type": "uint256"
            }
          ],
          "stateMutability": "nonpayable",
          "type": "constructor"
        },
        {
          "anonymous": false,
          "inputs": [
            {
              "indexed": false,
              "internalType": "uint256",
              "name": "itemId",
              "type": "uint256"
            },
            {
              "indexed": true,
              "internalType": "address",
              "name": "nft",
              "type": "address"
            },
            {
              "indexed": false,
              "internalType": "uint256",
              "name": "tokenId",
              "type": "uint256"
            },
            {
              "indexed": false,
              "internalType": "uint256",
              "name": "price",
              "type": "uint256"
            },
            {
              "indexed": true,
              "internalType": "address",
              "name": "seller",
              "type": "address"
            },
            {
              "indexed": true,
              "internalType": "address",
              "name": "buyer",
              "type": "address"
            }
          ],
          "name": "Bought",
          "type": "event"
        },
        {
          "anonymous": false,
          "inputs": [
            {
              "indexed": false,
              "internalType": "uint256",
              "name": "itemId",
              "type": "uint256"
            },
            {
              "indexed": true,
              "internalType": "address",
              "name": "nft",
              "type": "address"
            },
            {
              "indexed": false,
              "internalType": "uint256",
              "name": "tokenId",
              "type": "uint256"
            },
            {
              "indexed": false,
              "internalType": "uint256",
              "name": "price",
              "type": "uint256"
            },
            {
              "indexed": true,
              "internalType": "address",
              "name": "seller",
              "type": "address"
            }
          ],
          "name": "Offered",
          "type": "event"
        },
        {
          "inputs": [],
          "name": "feeAccount",
          "outputs": [
            {
              "internalType": "address payable",
              "name": "",
              "type": "address"
            }
          ],
          "stateMutability": "view",
          "type": "function"
        },
        {
          "inputs": [],
          "name": "feePercent",
          "outputs": [
            {
              "internalType": "uint256",
              "name": "",
              "type": "uint256"
            }
          ],
          "stateMutability": "view",
          "type": "function"
        },
        {
          "inputs": [
            {
              "internalType": "uint256",
              "name": "_itemId",
              "type": "uint256"
            }
          ],
          "name": "getTotalPrice",
          "outputs": [
            {
              "internalType": "uint256",
              "name": "",
              "type": "uint256"
            }
          ],
          "stateMutability": "view",
          "type": "function"
        },
        {
          "inputs": [],
          "name": "itemCount",
          "outputs": [
            {
              "internalType": "uint256",
              "name": "",
              "type": "uint256"
            }
          ],
          "stateMutability": "view",
          "type": "function"
        },
        {
          "inputs": [
            {
              "internalType": "uint256",
              "name": "",
              "type": "uint256"
            }
          ],
          "name": "items",
          "outputs": [
            {
              "internalType": "uint256",
              "name": "itemId",
              "type": "uint256"
            },
            {
              "internalType": "contract IERC721",
              "name": "nft",
              "type": "address"
            },
            {
              "internalType": "uint256",
              "name": "tokenId",
              "type": "uint256"
            },
            {
              "internalType": "uint256",
              "name": "price",
              "type": "uint256"
            },
            {
              "internalType": "address payable",
              "name": "seller",
              "type": "address"
            },
            {
              "internalType": "bool",
              "name": "sold",
              "type": "bool"
            }
          ],
          "stateMutability": "view",
          "type": "function"
        },
        {
          "inputs": [
            {
              "internalType": "contract IERC721",
              "name": "_nft",
              "type": "address"
            },
            {
              "internalType": "uint256",
              "name": "_tokenId",
              "type": "uint256"
            },
            {
              "internalType": "uint256",
              "name": "_price",
              "type": "uint256"
            }
          ],
          "name": "makeItem",
          "outputs": [],
          "stateMutability": "nonpayable",
          "type": "function"
        },
        {
          "inputs": [
            {
              "internalType": "uint256",
              "name": "_itemId",
              "type": "uint256"
            }
          ],
          "name": "purchaseItem",
          "outputs": [],
          "stateMutability": "payable",
          "type": "function"
        }
      ],
      "evm": {
        "bytecode": {
          "linkReferences": {},
          "object": "60c060405234801561001057600080fd5b50604051610f91380380610f9183398181016040528101906100329190610094565b60016000819055503373ffffffffffffffffffffffffffffffffffffffff1660808173ffffffffffffffffffffffffffffffffffffffff1660601b815250508060a08181525050506100de565b60008151905061008e816100c7565b92915050565b6000602082840312156100a657600080fd5b60006100b48482850161007f565b91505092915050565b6000819050919050565b6100d0816100bd565b81146100db57600080fd5b50565b60805160601c60a051610e7d610114600039600081816101e601526102970152600081816101bc015261041b0152610e7d6000f3fe6080604052600436106100705760003560e01c8063bfb231d21161004e578063bfb231d2146100f6578063ca7dd37514610138578063d38ea5bf14610175578063fa00afc71461019157610070565b806365e17c9d146100755780636bfb0d01146100a05780637fd6f15c146100cb575b600080fd5b34801561008157600080fd5b5061008a6101ba565b6040516100979190610a25565b60405180910390f35b3480156100ac57600080fd5b506100b56101de565b6040516100c29190610ab7565b60405180910390f35b3480156100d757600080fd5b506100e06101e4565b6040516100ed9190610ab7565b60405180910390f35b34801561010257600080fd5b5061011d6004803603810190610118919061096b565b610208565b60405161012f96959493929190610ad2565b60405180910390f35b34801561014457600080fd5b5061015f600480360381019061015a919061096b565b610291565b60405161016c9190610ab7565b60405180910390f35b61018f600480360381019061018a919061096b565b6102f4565b005b34801561019d57600080fd5b506101b860048036038101906101b3919061091c565b610620565b005b7f000000000000000000000000000000000000000000000000000000000000000081565b60015481565b7f000000000000000000000000000000000000000000000000000000000000000081565b60026020528060005260406000206000915090508060000154908060010160009054906101000a900473ffffffffffffffffffffffffffffffffffffffff16908060020154908060030154908060040160009054906101000a900473ffffffffffffffffffffffffffffffffffffffff16908060040160149054906101000a900460ff16905086565b600060647f000000000000000000000000000000000000000000000000000000000000000060646102c29190610b7b565b60026000858152602001908152602001600020600301546102e39190610c02565b6102ed9190610bd1565b9050919050565b6002600054141561033a576040517f08c379a000000000000000000000000000000000000000000000000000000000815260040161033190610a97565b60405180910390fd5b6002600081905550600061034d82610291565b9050600060026000848152602001908152602001600020905060008311801561037857506001548311155b61038157600080fd5b8134101561038e57600080fd5b8060040160149054906101000a900460ff16156103aa57600080fd5b8060040160009054906101000a900473ffffffffffffffffffffffffffffffffffffffff1673ffffffffffffffffffffffffffffffffffffffff166108fc82600301549081150290604051600060405180830381858888f19350505050158015610418573d6000803e3d6000fd5b507f000000000000000000000000000000000000000000000000000000000000000073ffffffffffffffffffffffffffffffffffffffff166108fc8260030154846104639190610c5c565b9081150290604051600060405180830381858888f1935050505015801561048e573d6000803e3d6000fd5b5060018160040160146101000a81548160ff0219169083151502179055508060010160009054906101000a900473ffffffffffffffffffffffffffffffffffffffff1673ffffffffffffffffffffffffffffffffffffffff166323b872dd303384600201546040518463ffffffff1660e01b815260040161051193929190610a40565b600060405180830381600087803b15801561052b57600080fd5b505af115801561053f573d6000803e3d6000fd5b505050503373ffffffffffffffffffffffffffffffffffffffff168160040160009054906101000a900473ffffffffffffffffffffffffffffffffffffffff1673ffffffffffffffffffffffffffffffffffffffff168260010160009054906101000a900473ffffffffffffffffffffffffffffffffffffffff1673ffffffffffffffffffffffffffffffffffffffff167f8b4c9c8a607d67b321582dd8461041b1dc2ceeca70c8b7f37f8e02095cf2e76d868560020154866003015460405161060b93929190610b33565b60405180910390a45050600160008190555050565b60026000541415610666576040517f08c379a000000000000000000000000000000000000000000000000000000000815260040161065d90610a97565b60405180910390fd5b6002600081905550600081116106b1576040517f08c379a00000000000000000000000000000000000000000000000000000000081526004016106a890610a77565b60405180910390fd5b600160008154809291906106c490610d20565b91905055508273ffffffffffffffffffffffffffffffffffffffff166323b872dd3330856040518463ffffffff1660e01b815260040161070693929190610a40565b600060405180830381600087803b15801561072057600080fd5b505af1158015610734573d6000803e3d6000fd5b505050506040518060c0016040528060015481526020018473ffffffffffffffffffffffffffffffffffffffff1681526020018381526020018281526020013373ffffffffffffffffffffffffffffffffffffffff168152602001600015158152506002600060015481526020019081526020016000206000820151816000015560208201518160010160006101000a81548173ffffffffffffffffffffffffffffffffffffffff021916908373ffffffffffffffffffffffffffffffffffffffff160217905550604082015181600201556060820151816003015560808201518160040160006101000a81548173ffffffffffffffffffffffffffffffffffffffff021916908373ffffffffffffffffffffffffffffffffffffffff16021790555060a08201518160040160146101000a81548160ff0219169083151502179055509050503373ffffffffffffffffffffffffffffffffffffffff168373ffffffffffffffffffffffffffffffffffffffff167f655a0cf9c8db81512be9a76dc1c5ae5380b8816ce6ad659cd61b715e2999d59a60015485856040516108dd93929190610b33565b60405180910390a36001600081905550505050565b60008135905061090181610e19565b92915050565b60008135905061091681610e30565b92915050565b60008060006060848603121561093157600080fd5b600061093f868287016108f2565b935050602061095086828701610907565b925050604061096186828701610907565b9150509250925092565b60006020828403121561097d57600080fd5b600061098b84828501610907565b91505092915050565b61099d81610ca2565b82525050565b6109ac81610c90565b82525050565b6109bb81610cb4565b82525050565b6109ca81610cfc565b82525050565b60006109dd601f83610b6a565b91506109e882610dc7565b602082019050919050565b6000610a00601f83610b6a565b9150610a0b82610df0565b602082019050919050565b610a1f81610cf2565b82525050565b6000602082019050610a3a6000830184610994565b92915050565b6000606082019050610a5560008301866109a3565b610a6260208301856109a3565b610a6f6040830184610a16565b949350505050565b60006020820190508181036000830152610a90816109d0565b9050919050565b60006020820190508181036000830152610ab0816109f3565b9050919050565b6000602082019050610acc6000830184610a16565b92915050565b600060c082019050610ae76000830189610a16565b610af460208301886109c1565b610b016040830187610a16565b610b0e6060830186610a16565b610b1b6080830185610994565b610b2860a08301846109b2565b979650505050505050565b6000606082019050610b486000830186610a16565b610b556020830185610a16565b610b626040830184610a16565b949350505050565b600082825260208201905092915050565b6000610b8682610cf2565b9150610b9183610cf2565b9250827fffffffffffffffffffffffffffffffffffffffffffffffffffffffffffffffff03821115610bc657610bc5610d69565b5b828201905092915050565b6000610bdc82610cf2565b9150610be783610cf2565b925082610bf757610bf6610d98565b5b828204905092915050565b6000610c0d82610cf2565b9150610c1883610cf2565b9250817fffffffffffffffffffffffffffffffffffffffffffffffffffffffffffffffff0483118215151615610c5157610c50610d69565b5b828202905092915050565b6000610c6782610cf2565b9150610c7283610cf2565b925082821015610c8557610c84610d69565b5b828203905092915050565b6000610c9b82610cd2565b9050919050565b6000610cad82610cd2565b9050919050565b60008115159050919050565b6000610ccb82610c90565b9050919050565b600073ffffffffffffffffffffffffffffffffffffffff82169050919050565b6000819050919050565b6000610d0782610d0e565b9050919050565b6000610d1982610cd2565b9050919050565b6000610d2b82610cf2565b91507fffffffffffffffffffffffffffffffffffffffffffffffffffffffffffffffff821415610d5e57610d5d610d69565b5b600182019050919050565b7f4e487b7100000000000000000000000000000000000000000000000000000000600052601160045260246000fd5b7f4e487b7100000000000000000000000000000000000000000000000000000000600052601260045260246000fd5b7f5072696365206d7573742062652067726561746572207468616e207a65726f00600082015250565b7f5265656e7472616e637947756172643a207265656e7472616e742063616c6c00600082015250565b610e2281610cc0565b8114610e2d57600080fd5b50565b610e3981610cf2565b8114610e4457600080fd5b5056fea2646970667358221220a0018ef4697db69f215539a1b039bc3c37a6cbbf2e739333662321d356994bbf64736f6c63430008040033",
          "opcodes": "PUSH1 0xC0 PUSH1 0x40 MSTORE CALLVALUE DUP1 ISZERO PUSH2 0x10 JUMPI PUSH1 0x0 DUP1 REVERT JUMPDEST POP PUSH1 0x40 MLOAD PUSH2 0xF91 CODESIZE SUB DUP1 PUSH2 0xF91 DUP4 CODECOPY DUP2 DUP2 ADD PUSH1 0x40 MSTORE DUP2 ADD SWAP1 PUSH2 0x32 SWAP2 SWAP1 PUSH2 0x94 JUMP JUMPDEST PUSH1 0x1 PUSH1 0x0 DUP2 SWAP1 SSTORE POP CALLER PUSH20 0xFFFFFFFFFFFFFFFFFFFFFFFFFFFFFFFFFFFFFFFF AND PUSH1 0x80 DUP2 PUSH20 0xFFFFFFFFFFFFFFFFFFFFFFFFFFFFFFFFFFFFFFFF AND PUSH1 0x60 SHL DUP2 MSTORE POP POP DUP1 PUSH1 0xA0 DUP2 DUP2 MSTORE POP POP POP PUSH2 0xDE JUMP JUMPDEST PUSH1 0x0 DUP2 MLOAD SWAP1 POP PUSH2 0x8E DUP2 PUSH2 0xC7 JUMP JUMPDEST SWAP3 SWAP2 POP POP JUMP JUMPDEST PUSH1 0x0 PUSH1 0x20 DUP3 DUP5 SUB SLT ISZERO PUSH2 0xA6 JUMPI PUSH1 0x0 DUP1 REVERT JUMPDEST PUSH1 0x0 PUSH2 0xB4 DUP5 DUP3 DUP6 ADD PUSH2 0x7F JUMP JUMPDEST SWAP2 POP POP SWAP3 SWAP2 POP POP JUMP JUMPDEST PUSH1 0x0 DUP2 SWAP1 POP SWAP2 SWAP1 POP JUMP JUMPDEST PUSH2 0xD0 DUP2 PUSH2 0xBD JUMP JUMPDEST DUP2 EQ PUSH2 0xDB JUMPI PUSH1 0x0 DUP1 REVERT JUMPDEST POP JUMP JUMPDEST PUSH1 0x80 MLOAD PUSH1 0x60 SHR PUSH1 0xA0 MLOAD PUSH2 0xE7D PUSH2 0x114 PUSH1 0x0 CODECOPY PUSH1 0x0 DUP2 DUP2 PUSH2 0x1E6 ADD MSTORE PUSH2 0x297 ADD MSTORE PUSH1 0x0 DUP2 DUP2 PUSH2 0x1BC ADD MSTORE PUSH2 0x41B ADD MSTORE PUSH2 0xE7D PUSH1 0x0 RETURN INVALID PUSH1 0x80 PUSH1 0x40 MSTORE PUSH1 0x4 CALLDATASIZE LT PUSH2 0x70 JUMPI PUSH1 0x0 CALLDATALOAD PUSH1 0xE0 SHR DUP1 PUSH4 0xBFB231D2 GT PUSH2 0x4E JUMPI DUP1 PUSH4 0xBFB231D2 EQ PUSH2 0xF6 JUMPI DUP1 PUSH4 0xCA7DD375 EQ PUSH2 0x138 JUMPI DUP1 PUSH4 0xD38EA5BF EQ PUSH2 0x175 JUMPI DUP1 PUSH4 0xFA00AFC7 EQ PUSH2 0x191 JUMPI PUSH2 0x70 JUMP JUMPDEST DUP1 PUSH4 0x65E17C9D EQ PUSH2 0x75 JUMPI DUP1 PUSH4 0x6BFB0D01 EQ PUSH2 0xA0 JUMPI DUP1 PUSH4 0x7FD6F15C EQ PUSH2 0xCB JUMPI JUMPDEST PUSH1 0x0 DUP1 REVERT JUMPDEST CALLVALUE DUP1 ISZERO PUSH2 0x81 JUMPI PUSH1 0x0 DUP1 REVERT JUMPDEST POP PUSH2 0x8A PUSH2 0x1BA JUMP JUMPDEST PUSH1 0x40 MLOAD PUSH2 0x97 SWAP2 SWAP1 PUSH2 0xA25 JUMP JUMPDEST PUSH1 0x40 MLOAD DUP1 SWAP2 SUB SWAP1 RETURN JUMPDEST CALLVALUE DUP1 ISZERO PUSH2 0xAC JUMPI PUSH1 0x0 DUP1 REVERT JUMPDEST POP PUSH2 0xB5 PUSH2 0x1DE JUMP JUMPDEST PUSH1 0x40 MLOAD PUSH2 0xC2 SWAP2 SWAP1 PUSH2 0xAB7 JUMP JUMPDEST PUSH1 0x40 MLOAD DUP1 SWAP2 SUB SWAP1 RETURN JUMPDEST CALLVALUE DUP1 ISZERO PUSH2 0xD7 JUMPI PUSH1 0x0 DUP1 REVERT JUMPDEST POP PUSH2 0xE0 PUSH2 0x1E4 JUMP JUMPDEST PUSH1 0x40 MLOAD PUSH2 0xED SWAP2 SWAP1 PUSH2 0xAB7 JUMP JUMPDEST PUSH1 0x40 MLOAD DUP1 SWAP2 SUB SWAP1 RETURN JUMPDEST CALLVALUE DUP1 ISZERO PUSH2 0x102 JUMPI PUSH1 0x0 DUP1 REVERT JUMPDEST POP PUSH2 0x11D PUSH1 0x4 DUP1 CALLDATASIZE SUB DUP2 ADD SWAP1 PUSH2 0x118 SWAP2 SWAP1 PUSH2 0x96B JUMP JUMPDEST PUSH2 0x208 JUMP JUMPDEST PUSH1 0x40 MLOAD PUSH2 0x12F SWAP7 SWAP6 SWAP5 SWAP4 SWAP3 SWAP2 SWAP1 PUSH2 0xAD2 JUMP JUMPDEST PUSH1 0x40 MLOAD DUP1 SWAP2 SUB SWAP1 RETURN JUMPDEST CALLVALUE DUP1 ISZERO PUSH2 0x144 JUMPI PUSH1 0x0 DUP1 REVERT JUMPDEST POP PUSH2 0x15F PUSH1 0x4 DUP1 CALLDATASIZE SUB DUP2 ADD SWAP1 PUSH2 0x15A SWAP2 SWAP1 PUSH2 0x96B JUMP JUMPDEST PUSH2 0x291 JUMP JUMPDEST PUSH1 0x40 MLOAD PUSH2 0x16C SWAP2 SWAP1 PUSH2 0xAB7 JUMP JUMPDEST PUSH1 0x40 MLOAD DUP1 SWAP2 SUB SWAP1 RETURN JUMPDEST PUSH2 0x18F PUSH1 0x4 DUP1 CALLDATASIZE SUB DUP2 ADD SWAP1 PUSH2 0x18A SWAP2 SWAP1 PUSH2 0x96B JUMP JUMPDEST PUSH2 0x2F4 JUMP JUMPDEST STOP JUMPDEST CALLVALUE DUP1 ISZERO PUSH2 0x19D JUMPI PUSH1 0x0 DUP1 REVERT JUMPDEST POP PUSH2 0x1B8 PUSH1 0x4 DUP1 CALLDATASIZE SUB DUP2 ADD SWAP1 PUSH2 0x1B3 SWAP2 SWAP1 PUSH2 0x91C JUMP JUMPDEST PUSH2 0x620 JUMP JUMPDEST STOP JUMPDEST PUSH32 0x0 DUP2 JUMP JUMPDEST PUSH1 0x1 SLOAD DUP2 JUMP JUMPDEST PUSH32 0x0 DUP2 JUMP JUMPDEST PUSH1 0x2 PUSH1 0x20 MSTORE DUP1 PUSH1 0x0 MSTORE PUSH1 0x40 PUSH1 0x0 KECCAK256 PUSH1 0x0 SWAP2 POP SWAP1 POP DUP1 PUSH1 0x0 ADD SLOAD SWAP1 DUP1 PUSH1 0x1 ADD PUSH1 0x0 SWAP1 SLOAD SWAP1 PUSH2 0x100 EXP SWAP1 DIV PUSH20 0xFFFFFFFFFFFFFFFFFFFFFFFFFFFFFFFFFFFFFFFF AND SWAP1 DUP1 PUSH1 0x2 ADD SLOAD SWAP1 DUP1 PUSH1 0x3 ADD SLOAD SWAP1 DUP1 PUSH1 0x4 ADD PUSH1 0x0 SWAP1 SLOAD SWAP1 PUSH2 0x100 EXP SWAP1 DIV PUSH20 0xFFFFFFFFFFFFFFFFFFFFFFFFFFFFFFFFFFFFFFFF AND SWAP1 DUP1 PUSH1 0x4 ADD PUSH1 0x14 SWAP1 SLOAD SWAP1 PUSH2 0x100 EXP SWAP1 DIV PUSH1 0xFF AND SWAP1 POP DUP7 JUMP JUMPDEST PUSH1 0x0 PUSH1 0x64 PUSH32 0x0 PUSH1 0x64 PUSH2 0x2C2 SWAP2 SWAP1 PUSH2 0xB7B JUMP JUMPDEST PUSH1 0x2 PUSH1 0x0 DUP6 DUP2 MSTORE PUSH1 0x20 ADD SWAP1 DUP2 MSTORE PUSH1 0x20 ADD PUSH1 0x0 KECCAK256 PUSH1 0x3 ADD SLOAD PUSH2 0x2E3 SWAP2 SWAP1 PUSH2 0xC02 JUMP JUMPDEST PUSH2 0x2ED SWAP2 SWAP1 PUSH2 0xBD1 JUMP JUMPDEST SWAP1 POP SWAP2 SWAP1 POP JUMP JUMPDEST PUSH1 0x2 PUSH1 0x0 SLOAD EQ ISZERO PUSH2 0x33A JUMPI PUSH1 0x40 MLOAD PUSH32 0x8C379A000000000000000000000000000000000000000000000000000000000 DUP2 MSTORE PUSH1 0x4 ADD PUSH2 0x331 SWAP1 PUSH2 0xA97 JUMP JUMPDEST PUSH1 0x40 MLOAD DUP1 SWAP2 SUB SWAP1 REVERT JUMPDEST PUSH1 0x2 PUSH1 0x0 DUP2 SWAP1 SSTORE POP PUSH1 0x0 PUSH2 0x34D DUP3 PUSH2 0x291 JUMP JUMPDEST SWAP1 POP PUSH1 0x0 PUSH1 0x2 PUSH1 0x0 DUP5 DUP2 MSTORE PUSH1 0x20 ADD SWAP1 DUP2 MSTORE PUSH1 0x20 ADD PUSH1 0x0 KECCAK256 SWAP1 POP PUSH1 0x0 DUP4 GT DUP1 ISZERO PUSH2 0x378 JUMPI POP PUSH1 0x1 SLOAD DUP4 GT ISZERO JUMPDEST PUSH2 0x381 JUMPI PUSH1 0x0 DUP1 REVERT JUMPDEST DUP2 CALLVALUE LT ISZERO PUSH2 0x38E JUMPI PUSH1 0x0 DUP1 REVERT JUMPDEST DUP1 PUSH1 0x4 ADD PUSH1 0x14 SWAP1 SLOAD SWAP1 PUSH2 0x100 EXP SWAP1 DIV PUSH1 0xFF AND ISZERO PUSH2 0x3AA JUMPI PUSH1 0x0 DUP1 REVERT JUMPDEST DUP1 PUSH1 0x4 ADD PUSH1 0x0 SWAP1 SLOAD SWAP1 PUSH2 0x100 EXP SWAP1 DIV PUSH20 0xFFFFFFFFFFFFFFFFFFFFFFFFFFFFFFFFFFFFFFFF AND PUSH20 0xFFFFFFFFFFFFFFFFFFFFFFFFFFFFFFFFFFFFFFFF AND PUSH2 0x8FC DUP3 PUSH1 0x3 ADD SLOAD SWAP1 DUP2 ISZERO MUL SWAP1 PUSH1 0x40 MLOAD PUSH1 0x0 PUSH1 0x40 MLOAD DUP1 DUP4 SUB DUP2 DUP6 DUP9 DUP9 CALL SWAP4 POP POP POP POP ISZERO DUP1 ISZERO PUSH2 0x418 JUMPI RETURNDATASIZE PUSH1 0x0 DUP1 RETURNDATACOPY RETURNDATASIZE PUSH1 0x0 REVERT JUMPDEST POP PUSH32 0x0 PUSH20 0xFFFFFFFFFFFFFFFFFFFFFFFFFFFFFFFFFFFFFFFF AND PUSH2 0x8FC DUP3 PUSH1 0x3 ADD SLOAD DUP5 PUSH2 0x463 SWAP2 SWAP1 PUSH2 0xC5C JUMP JUMPDEST SWAP1 DUP2 ISZERO MUL SWAP1 PUSH1 0x40 MLOAD PUSH1 0x0 PUSH1 0x40 MLOAD DUP1 DUP4 SUB DUP2 DUP6 DUP9 DUP9 CALL SWAP4 POP POP POP POP ISZERO DUP1 ISZERO PUSH2 0x48E JUMPI RETURNDATASIZE PUSH1 0x0 DUP1 RETURNDATACOPY RETURNDATASIZE PUSH1 0x0 REVERT JUMPDEST POP PUSH1 0x1 DUP2 PUSH1 0x4 ADD PUSH1 0x14 PUSH2 0x100 EXP DUP2 SLOAD DUP2 PUSH1 0xFF MUL NOT AND SWAP1 DUP4 ISZERO ISZERO MUL OR SWAP1 SSTORE POP DUP1 PUSH1 0x1 ADD PUSH1 0x0 SWAP1 SLOAD SWAP1 PUSH2 0x100 EXP SWAP1 DIV PUSH20 0xFFFFFFFFFFFFFFFFFFFFFFFFFFFFFFFFFFFFFFFF AND PUSH20 0xFFFFFFFFFFFFFFFFFFFFFFFFFFFFFFFFFFFFFFFF AND PUSH4 0x23B872DD ADDRESS CALLER DUP5 PUSH1 0x2 ADD SLOAD PUSH1 0x40 MLOAD DUP5 PUSH4 0xFFFFFFFF AND PUSH1 0xE0 SHL DUP2 MSTORE PUSH1 0x4 ADD PUSH2 0x511 SWAP4 SWAP3 SWAP2 SWAP1 PUSH2 0xA40 JUMP JUMPDEST PUSH1 0x0 PUSH1 0x40 MLOAD DUP1 DUP4 SUB DUP2 PUSH1 0x0 DUP8 DUP1 EXTCODESIZE ISZERO DUP1 ISZERO PUSH2 0x52B JUMPI PUSH1 0x0 DUP1 REVERT JUMPDEST POP GAS CALL ISZERO DUP1 ISZERO PUSH2 0x53F JUMPI RETURNDATASIZE PUSH1 0x0 DUP1 RETURNDATACOPY RETURNDATASIZE PUSH1 0x0 REVERT JUMPDEST POP POP POP POP CALLER PUSH20 0xFFFFFFFFFFFFFFFFFFFFFFFFFFFFFFFFFFFFFFFF AND DUP2 PUSH1 0x4 ADD PUSH1 0x0 SWAP1 SLOAD SWAP1 PUSH2 0x100 EXP SWAP1 DIV PUSH20 0xFFFFFFFFFFFFFFFFFFFFFFFFFFFFFFFFFFFFFFFF AND PUSH20 0xFFFFFFFFFFFFFFFFFFFFFFFFFFFFFFFFFFFFFFFF AND DUP3 PUSH1 0x1 ADD PUSH1 0x0 SWAP1 SLOAD SWAP1 PUSH2 0x100 EXP SWAP1 DIV PUSH20 0xFFFFFFFFFFFFFFFFFFFFFFFFFFFFFFFFFFFFFFFF AND PUSH20 0xFFFFFFFFFFFFFFFFFFFFFFFFFFFFFFFFFFFFFFFF AND PUSH32 0x8B4C9C8A607D67B321582DD8461041B1DC2CEECA70C8B7F37F8E02095CF2E76D DUP7 DUP6 PUSH1 0x2 ADD SLOAD DUP7 PUSH1 0x3 ADD SLOAD PUSH1 0x40 MLOAD PUSH2 0x60B SWAP4 SWAP3 SWAP2 SWAP1 PUSH2 0xB33 JUMP JUMPDEST PUSH1 0x40 MLOAD DUP1 SWAP2 SUB SWAP1 LOG4 POP POP PUSH1 0x1 PUSH1 0x0 DUP2 SWAP1 SSTORE POP POP JUMP JUMPDEST PUSH1 0x2 PUSH1 0x0 SLOAD EQ ISZERO PUSH2 0x666 JUMPI PUSH1 0x40 MLOAD PUSH32 0x8C379A000000000000000000000000000000000000000000000000000000000 DUP2 MSTORE PUSH1 0x4 ADD PUSH2 0x65D SWAP1 PUSH2 0xA97 JUMP JUMPDEST PUSH1 0x40 MLOAD DUP1 SWAP2 SUB SWAP1 REVERT JUMPDEST PUSH1 0x2 PUSH1 0x0 DUP2 SWAP1 SSTORE POP PUSH1 0x0 DUP2 GT PUSH2 0x6B1 JUMPI PUSH1 0x40 MLOAD PUSH32 0x8C379A000000000000000000000000000000000000000000000000000000000 DUP2 MSTORE PUSH1 0x4 ADD PUSH2 0x6A8 SWAP1 PUSH2 0xA77 JUMP JUMPDEST PUSH1 0x40 MLOAD DUP1 SWAP2 SUB SWAP1 REVERT JUMPDEST PUSH1 0x1 PUSH1 0x0 DUP2 SLOAD DUP1 SWAP3 SWAP2 SWAP1 PUSH2 0x6C4 SWAP1 PUSH2 0xD20 JUMP JUMPDEST SWAP2 SWAP1 POP SSTORE POP DUP3 PUSH20 0xFFFFFFFFFFFFFFFFFFFFFFFFFFFFFFFFFFFFFFFF AND PUSH4 0x23B872DD CALLER ADDRESS DUP6 PUSH1 0x40 MLOAD DUP5 PUSH4 0xFFFFFFFF AND PUSH1 0xE0 SHL DUP2 MSTORE PUSH1 0x4 ADD PUSH2 0x706 SWAP4 SWAP3 SWAP2 SWAP1 PUSH2 0xA40 JUMP JUMPDEST PUSH1 0x0 PUSH1 0x40 MLOAD DUP1 DUP4 SUB DUP2 PUSH1 0x0 DUP8 DUP1 EXTCODESIZE ISZERO DUP1 ISZERO PUSH2 0x720 JUMPI PUSH1 0x0 DUP1 REVERT JUMPDEST POP GAS CALL ISZERO DUP1 ISZERO PUSH2 0x734 JUMPI RETURNDATASIZE PUSH1 0x0 DUP1 RETURNDATACOPY RETURNDATASIZE PUSH1 0x0 REVERT JUMPDEST POP POP POP POP PUSH1 0x40 MLOAD DUP1 PUSH1 0xC0 ADD PUSH1 0x40 MSTORE DUP1 PUSH1 0x1 SLOAD DUP2 MSTORE PUSH1 0x20 ADD DUP5 PUSH20 0xFFFFFFFFFFFFFFFFFFFFFFFFFFFFFFFFFFFFFFFF AND DUP2 MSTORE PUSH1 0x20 ADD DUP4 DUP2 MSTORE PUSH1 0x20 ADD DUP3 DUP2 MSTORE PUSH1 0x20 ADD CALLER PUSH20 0xFFFFFFFFFFFFFFFFFFFFFFFFFFFFFFFFFFFFFFFF AND DUP2 MSTORE PUSH1 0x20 ADD PUSH1 0x0 ISZERO ISZERO DUP2 MSTORE POP PUSH1 0x2 PUSH1 0x0 PUSH1 0x1 SLOAD DUP2 MSTORE PUSH1 0x20 ADD SWAP1 DUP2 MSTORE PUSH1 0x20 ADD PUSH1 0x0 KECCAK256 PUSH1 0x0 DUP3 ADD MLOAD DUP2 PUSH1 0x0 ADD SSTORE PUSH1 0x20 DUP3 ADD MLOAD DUP2 PUSH1 0x1 ADD PUSH1 0x0 PUSH2 0x100 EXP DUP2 SLOAD DUP2 PUSH20 0xFFFFFFFFFFFFFFFFFFFFFFFFFFFFFFFFFFFFFFFF MUL NOT AND SWAP1 DUP4 PUSH20 0xFFFFFFFFFFFFFFFFFFFFFFFFFFFFFFFFFFFFFFFF AND MUL OR SWAP1 SSTORE POP PUSH1 0x40 DUP3 ADD MLOAD DUP2 PUSH1 0x2 ADD SSTORE PUSH1 0x60 DUP3 ADD MLOAD DUP2 PUSH1 0x3 ADD SSTORE PUSH1 0x80 DUP3 ADD MLOAD DUP2 PUSH1 0x4 ADD PUSH1 0x0 PUSH2 0x100 EXP DUP2 SLOAD DUP2 PUSH20 0xFFFFFFFFFFFFFFFFFFFFFFFFFFFFFFFFFFFFFFFF MUL NOT AND SWAP1 DUP4 PUSH20 0xFFFFFFFFFFFFFFFFFFFFFFFFFFFFFFFFFFFFFFFF AND MUL OR SWAP1 SSTORE POP PUSH1 0xA0 DUP3 ADD MLOAD DUP2 PUSH1 0x4 ADD PUSH1 0x14 PUSH2 0x100 EXP DUP2 SLOAD DUP2 PUSH1 0xFF MUL NOT AND SWAP1 DUP4 ISZERO ISZERO MUL OR SWAP1 SSTORE POP SWAP1 POP POP CALLER PUSH20 0xFFFFFFFFFFFFFFFFFFFFFFFFFFFFFFFFFFFFFFFF AND DUP4 PUSH20 0xFFFFFFFFFFFFFFFFFFFFFFFFFFFFFFFFFFFFFFFF AND PUSH32 0x655A0CF9C8DB81512BE9A76DC1C5AE5380B8816CE6AD659CD61B715E2999D59A PUSH1 0x1 SLOAD DUP6 DUP6 PUSH1 0x40 MLOAD PUSH2 0x8DD SWAP4 SWAP3 SWAP2 SWAP1 PUSH2 0xB33 JUMP JUMPDEST PUSH1 0x40 MLOAD DUP1 SWAP2 SUB SWAP1 LOG3 PUSH1 0x1 PUSH1 0x0 DUP2 SWAP1 SSTORE POP POP POP POP JUMP JUMPDEST PUSH1 0x0 DUP2 CALLDATALOAD SWAP1 POP PUSH2 0x901 DUP2 PUSH2 0xE19 JUMP JUMPDEST SWAP3 SWAP2 POP POP JUMP JUMPDEST PUSH1 0x0 DUP2 CALLDATALOAD SWAP1 POP PUSH2 0x916 DUP2 PUSH2 0xE30 JUMP JUMPDEST SWAP3 SWAP2 POP POP JUMP JUMPDEST PUSH1 0x0 DUP1 PUSH1 0x0 PUSH1 0x60 DUP5 DUP7 SUB SLT ISZERO PUSH2 0x931 JUMPI PUSH1 0x0 DUP1 REVERT JUMPDEST PUSH1 0x0 PUSH2 0x93F DUP7 DUP3 DUP8 ADD PUSH2 0x8F2 JUMP JUMPDEST SWAP4 POP POP PUSH1 0x20 PUSH2 0x950 DUP7 DUP3 DUP8 ADD PUSH2 0x907 JUMP JUMPDEST SWAP3 POP POP PUSH1 0x40 PUSH2 0x961 DUP7 DUP3 DUP8 ADD PUSH2 0x907 JUMP JUMPDEST SWAP2 POP POP SWAP3 POP SWAP3 POP SWAP3 JUMP JUMPDEST PUSH1 0x0 PUSH1 0x20 DUP3 DUP5 SUB SLT ISZERO PUSH2 0x97D JUMPI PUSH1 0x0 DUP1 REVERT JUMPDEST PUSH1 0x0 PUSH2 0x98B DUP5 DUP3 DUP6 ADD PUSH2 0x907 JUMP JUMPDEST SWAP2 POP POP SWAP3 SWAP2 POP POP JUMP JUMPDEST PUSH2 0x99D DUP2 PUSH2 0xCA2 JUMP JUMPDEST DUP3 MSTORE POP POP JUMP JUMPDEST PUSH2 0x9AC DUP2 PUSH2 0xC90 JUMP JUMPDEST DUP3 MSTORE POP POP JUMP JUMPDEST PUSH2 0x9BB DUP2 PUSH2 0xCB4 JUMP JUMPDEST DUP3 MSTORE POP POP JUMP JUMPDEST PUSH2 0x9CA DUP2 PUSH2 0xCFC JUMP JUMPDEST DUP3 MSTORE POP POP JUMP JUMPDEST PUSH1 0x0 PUSH2 0x9DD PUSH1 0x1F DUP4 PUSH2 0xB6A JUMP JUMPDEST SWAP2 POP PUSH2 0x9E8 DUP3 PUSH2 0xDC7 JUMP JUMPDEST PUSH1 0x20 DUP3 ADD SWAP1 POP SWAP2 SWAP1 POP JUMP JUMPDEST PUSH1 0x0 PUSH2 0xA00 PUSH1 0x1F DUP4 PUSH2 0xB6A JUMP JUMPDEST SWAP2 POP PUSH2 0xA0B DUP3 PUSH2 0xDF0 JUMP JUMPDEST PUSH1 0x20 DUP3 ADD SWAP1 POP SWAP2 SWAP1 POP JUMP JUMPDEST PUSH2 0xA1F DUP2 PUSH2 0xCF2 JUMP JUMPDEST DUP3 MSTORE POP POP JUMP JUMPDEST PUSH1 0x0 PUSH1 0x20 DUP3 ADD SWAP1 POP PUSH2 0xA3A PUSH1 0x0 DUP4 ADD DUP5 PUSH2 0x994 JUMP JUMPDEST SWAP3 SWAP2 POP POP JUMP JUMPDEST PUSH1 0x0 PUSH1 0x60 DUP3 ADD SWAP1 POP PUSH2 0xA55 PUSH1 0x0 DUP4 ADD DUP7 PUSH2 0x9A3 JUMP JUMPDEST PUSH2 0xA62 PUSH1 0x20 DUP4 ADD DUP6 PUSH2 0x9A3 JUMP JUMPDEST PUSH2 0xA6F PUSH1 0x40 DUP4 ADD DUP5 PUSH2 0xA16 JUMP JUMPDEST SWAP5 SWAP4 POP POP POP POP JUMP JUMPDEST PUSH1 0x0 PUSH1 0x20 DUP3 ADD SWAP1 POP DUP2 DUP2 SUB PUSH1 0x0 DUP4 ADD MSTORE PUSH2 0xA90 DUP2 PUSH2 0x9D0 JUMP JUMPDEST SWAP1 POP SWAP2 SWAP1 POP JUMP JUMPDEST PUSH1 0x0 PUSH1 0x20 DUP3 ADD SWAP1 POP DUP2 DUP2 SUB PUSH1 0x0 DUP4 ADD MSTORE PUSH2 0xAB0 DUP2 PUSH2 0x9F3 JUMP JUMPDEST SWAP1 POP SWAP2 SWAP1 POP JUMP JUMPDEST PUSH1 0x0 PUSH1 0x20 DUP3 ADD SWAP1 POP PUSH2 0xACC PUSH1 0x0 DUP4 ADD DUP5 PUSH2 0xA16 JUMP JUMPDEST SWAP3 SWAP2 POP POP JUMP JUMPDEST PUSH1 0x0 PUSH1 0xC0 DUP3 ADD SWAP1 POP PUSH2 0xAE7 PUSH1 0x0 DUP4 ADD DUP10 PUSH2 0xA16 JUMP JUMPDEST PUSH2 0xAF4 PUSH1 0x20 DUP4 ADD DUP9 PUSH2 0x9C1 JUMP JUMPDEST PUSH2 0xB01 PUSH1 0x40 DUP4 ADD DUP8 PUSH2 0xA16 JUMP JUMPDEST PUSH2 0xB0E PUSH1 0x60 DUP4 ADD DUP7 PUSH2 0xA16 JUMP JUMPDEST PUSH2 0xB1B PUSH1 0x80 DUP4 ADD DUP6 PUSH2 0x994 JUMP JUMPDEST PUSH2 0xB28 PUSH1 0xA0 DUP4 ADD DUP5 PUSH2 0x9B2 JUMP JUMPDEST SWAP8 SWAP7 POP POP POP POP POP POP POP JUMP JUMPDEST PUSH1 0x0 PUSH1 0x60 DUP3 ADD SWAP1 POP PUSH2 0xB48 PUSH1 0x0 DUP4 ADD DUP7 PUSH2 0xA16 JUMP JUMPDEST PUSH2 0xB55 PUSH1 0x20 DUP4 ADD DUP6 PUSH2 0xA16 JUMP JUMPDEST PUSH2 0xB62 PUSH1 0x40 DUP4 ADD DUP5 PUSH2 0xA16 JUMP JUMPDEST SWAP5 SWAP4 POP POP POP POP JUMP JUMPDEST PUSH1 0x0 DUP3 DUP3 MSTORE PUSH1 0x20 DUP3 ADD SWAP1 POP SWAP3 SWAP2 POP POP JUMP JUMPDEST PUSH1 0x0 PUSH2 0xB86 DUP3 PUSH2 0xCF2 JUMP JUMPDEST SWAP2 POP PUSH2 0xB91 DUP4 PUSH2 0xCF2 JUMP JUMPDEST SWAP3 POP DUP3 PUSH32 0xFFFFFFFFFFFFFFFFFFFFFFFFFFFFFFFFFFFFFFFFFFFFFFFFFFFFFFFFFFFFFFFF SUB DUP3 GT ISZERO PUSH2 0xBC6 JUMPI PUSH2 0xBC5 PUSH2 0xD69 JUMP JUMPDEST JUMPDEST DUP3 DUP3 ADD SWAP1 POP SWAP3 SWAP2 POP POP JUMP JUMPDEST PUSH1 0x0 PUSH2 0xBDC DUP3 PUSH2 0xCF2 JUMP JUMPDEST SWAP2 POP PUSH2 0xBE7 DUP4 PUSH2 0xCF2 JUMP JUMPDEST SWAP3 POP DUP3 PUSH2 0xBF7 JUMPI PUSH2 0xBF6 PUSH2 0xD98 JUMP JUMPDEST JUMPDEST DUP3 DUP3 DIV SWAP1 POP SWAP3 SWAP2 POP POP JUMP JUMPDEST PUSH1 0x0 PUSH2 0xC0D DUP3 PUSH2 0xCF2 JUMP JUMPDEST SWAP2 POP PUSH2 0xC18 DUP4 PUSH2 0xCF2 JUMP JUMPDEST SWAP3 POP DUP2 PUSH32 0xFFFFFFFFFFFFFFFFFFFFFFFFFFFFFFFFFFFFFFFFFFFFFFFFFFFFFFFFFFFFFFFF DIV DUP4 GT DUP3 ISZERO ISZERO AND ISZERO PUSH2 0xC51 JUMPI PUSH2 0xC50 PUSH2 0xD69 JUMP JUMPDEST JUMPDEST DUP3 DUP3 MUL SWAP1 POP SWAP3 SWAP2 POP POP JUMP JUMPDEST PUSH1 0x0 PUSH2 0xC67 DUP3 PUSH2 0xCF2 JUMP JUMPDEST SWAP2 POP PUSH2 0xC72 DUP4 PUSH2 0xCF2 JUMP JUMPDEST SWAP3 POP DUP3 DUP3 LT ISZERO PUSH2 0xC85 JUMPI PUSH2 0xC84 PUSH2 0xD69 JUMP JUMPDEST JUMPDEST DUP3 DUP3 SUB SWAP1 POP SWAP3 SWAP2 POP POP JUMP JUMPDEST PUSH1 0x0 PUSH2 0xC9B DUP3 PUSH2 0xCD2 JUMP JUMPDEST SWAP1 POP SWAP2 SWAP1 POP JUMP JUMPDEST PUSH1 0x0 PUSH2 0xCAD DUP3 PUSH2 0xCD2 JUMP JUMPDEST SWAP1 POP SWAP2 SWAP1 POP JUMP JUMPDEST PUSH1 0x0 DUP2 ISZERO ISZERO SWAP1 POP SWAP2 SWAP1 POP JUMP JUMPDEST PUSH1 0x0 PUSH2 0xCCB DUP3 PUSH2 0xC90 JUMP JUMPDEST SWAP1 POP SWAP2 SWAP1 POP JUMP JUMPDEST PUSH1 0x0 PUSH20 0xFFFFFFFFFFFFFFFFFFFFFFFFFFFFFFFFFFFFFFFF DUP3 AND SWAP1 POP SWAP2 SWAP1 POP JUMP JUMPDEST PUSH1 0x0 DUP2 SWAP1 POP SWAP2 SWAP1 POP JUMP JUMPDEST PUSH1 0x0 PUSH2 0xD07 DUP3 PUSH2 0xD0E JUMP JUMPDEST SWAP1 POP SWAP2 SWAP1 POP JUMP JUMPDEST PUSH1 0x0 PUSH2 0xD19 DUP3 PUSH2 0xCD2 JUMP JUMPDEST SWAP1 POP SWAP2 SWAP1 POP JUMP JUMPDEST PUSH1 0x0 PUSH2 0xD2B DUP3 PUSH2 0xCF2 JUMP JUMPDEST SWAP2 POP PUSH32 0xFFFFFFFFFFFFFFFFFFFFFFFFFFFFFFFFFFFFFFFFFFFFFFFFFFFFFFFFFFFFFFFF DUP3 EQ ISZERO PUSH2 0xD5E JUMPI PUSH2 0xD5D PUSH2 0xD69 JUMP JUMPDEST JUMPDEST PUSH1 0x1 DUP3 ADD SWAP1 POP SWAP2 SWAP1 POP JUMP JUMPDEST PUSH32 0x4E487B7100000000000000000000000000000000000000000000000000000000 PUSH1 0x0 MSTORE PUSH1 0x11 PUSH1 0x4 MSTORE PUSH1 0x24 PUSH1 0x0 REVERT JUMPDEST PUSH32 0x4E487B7100000000000000000000000000000000000000000000000000000000 PUSH1 0x0 MSTORE PUSH1 0x12 PUSH1 0x4 MSTORE PUSH1 0x24 PUSH1 0x0 REVERT JUMPDEST PUSH32 0x5072696365206D7573742062652067726561746572207468616E207A65726F00 PUSH1 0x0 DUP3 ADD MSTORE POP JUMP JUMPDEST PUSH32 0x5265656E7472616E637947756172643A207265656E7472616E742063616C6C00 PUSH1 0x0 DUP3 ADD MSTORE POP JUMP JUMPDEST PUSH2 0xE22 DUP2 PUSH2 0xCC0 JUMP JUMPDEST DUP2 EQ PUSH2 0xE2D JUMPI PUSH1 0x0 DUP1 REVERT JUMPDEST POP JUMP JUMPDEST PUSH2 0xE39 DUP2 PUSH2 0xCF2 JUMP JUMPDEST DUP2 EQ PUSH2 0xE44 JUMPI PUSH1 0x0 DUP1 REVERT JUMPDEST POP JUMP INVALID LOG2 PUSH5 0x6970667358 0x22 SLT KECCAK256 LOG0 ADD DUP15 DELEGATECALL PUSH10 0x7DB69F215539A1B039BC EXTCODECOPY CALLDATACOPY 0xA6 0xCB 0xBF 0x2E PUSH20 0x9333662321D356994BBF64736F6C634300080400 CALLER "
        },
        "methodIdentifiers": {
          "feeAccount()": "65e17c9d",
          "feePercent()": "7fd6f15c",
          "getTotalPrice(uint256)": "ca7dd375",
          "itemCount()": "6bfb0d01",
          "items(uint256)": "bfb231d2",
          "makeItem(address,uint256,uint256)": "fa00afc7",
          "purchaseItem(uint256)": "d38ea5bf"
        }
      }
    }
  }
}