{
  "contractName": "ganache",
  "abi": [
    {
      "inputs": [],
      "stateMutability": "nonpayable",
      "type": "constructor"
    },
    {
      "anonymous": false,
      "inputs": [
        {
          "indexed": false,
          "internalType": "address",
          "name": "owner",
          "type": "address"
        },
        {
          "indexed": false,
          "internalType": "address",
          "name": "smartContract",
          "type": "address"
        }
      ],
      "name": "newContract",
      "type": "event"
    },
    {
      "anonymous": false,
      "inputs": [
        {
          "indexed": false,
          "internalType": "string",
          "name": "message",
          "type": "string"
        }
      ],
      "name": "newMessage",
      "type": "event"
    },
    {
      "inputs": [],
      "name": "owner",
      "outputs": [
        {
          "internalType": "address",
          "name": "",
          "type": "address"
        }
      ],
      "stateMutability": "view",
      "type": "function",
      "constant": true
    },
    {
      "inputs": [],
      "name": "smartContract",
      "outputs": [
        {
          "internalType": "address",
          "name": "",
          "type": "address"
        }
      ],
      "stateMutability": "view",
      "type": "function",
      "constant": true
    },
    {
      "inputs": [
        {
          "internalType": "string",
          "name": "_message",
          "type": "string"
        }
      ],
      "name": "setMessage",
      "outputs": [],
      "stateMutability": "nonpayable",
      "type": "function"
    },
    {
      "inputs": [],
      "name": "getMessage",
      "outputs": [
        {
          "internalType": "string",
          "name": "",
          "type": "string"
        }
      ],
      "stateMutability": "view",
      "type": "function",
      "constant": true
    }
  ],
  "bytecode": "0x60806040526040518060200160405280600081525060029080519060200190610029929190610138565b5034801561003657600080fd5b50336000806101000a81548173ffffffffffffffffffffffffffffffffffffffff021916908373ffffffffffffffffffffffffffffffffffffffff16021790555030600160006101000a81548173ffffffffffffffffffffffffffffffffffffffff021916908373ffffffffffffffffffffffffffffffffffffffff1602179055507fe4f1e239ef633924ba611260f27425b0855d45f598b69b49f08f8dd9b2cc0fac60008054906101000a900473ffffffffffffffffffffffffffffffffffffffff16600160009054906101000a900473ffffffffffffffffffffffffffffffffffffffff1660405161012b9291906101ea565b60405180910390a16102a6565b82805461014490610245565b90600052602060002090601f01602090048101928261016657600085556101ad565b82601f1061017f57805160ff19168380011785556101ad565b828001600101855582156101ad579182015b828111156101ac578251825591602001919060010190610191565b5b5090506101ba91906101be565b5090565b5b808211156101d75760008160009055506001016101bf565b5090565b6101e481610213565b82525050565b60006040820190506101ff60008301856101db565b61020c60208301846101db565b9392505050565b600061021e82610225565b9050919050565b600073ffffffffffffffffffffffffffffffffffffffff82169050919050565b6000600282049050600182168061025d57607f821691505b6020821081141561027157610270610277565b5b50919050565b7f4e487b7100000000000000000000000000000000000000000000000000000000600052602260045260246000fd5b61066b806102b56000396000f3fe608060405234801561001057600080fd5b506004361061004c5760003560e01c8063368b8772146100515780638da5cb5b1461006d578063ce6d41de1461008b578063f62639e5146100a9575b600080fd5b61006b60048036038101906100669190610300565b6100c7565b005b610075610119565b6040516100829190610409565b60405180910390f35b61009361013d565b6040516100a09190610424565b60405180910390f35b6100b16101cf565b6040516100be9190610409565b60405180910390f35b80600290805190602001906100dd9291906101f5565b507fb6b9255ef41b64a179028fa358d210c528409790c6daf4907f41fcba571e1112600260405161010e9190610446565b60405180910390a150565b60008054906101000a900473ffffffffffffffffffffffffffffffffffffffff1681565b60606002805461014c90610563565b80601f016020809104026020016040519081016040528092919081815260200182805461017890610563565b80156101c55780601f1061019a576101008083540402835291602001916101c5565b820191906000526020600020905b8154815290600101906020018083116101a857829003601f168201915b5050505050905090565b600160009054906101000a900473ffffffffffffffffffffffffffffffffffffffff1681565b82805461020190610563565b90600052602060002090601f016020900481019282610223576000855561026a565b82601f1061023c57805160ff191683800117855561026a565b8280016001018555821561026a579182015b8281111561026957825182559160200191906001019061024e565b5b509050610277919061027b565b5090565b5b8082111561029457600081600090555060010161027c565b5090565b60006102ab6102a68461048d565b610468565b9050828152602081018484840111156102c357600080fd5b6102ce848285610521565b509392505050565b600082601f8301126102e757600080fd5b81356102f7848260208601610298565b91505092915050565b60006020828403121561031257600080fd5b600082013567ffffffffffffffff81111561032c57600080fd5b610338848285016102d6565b91505092915050565b61034a816104ef565b82525050565b600061035b826104d3565b61036581856104de565b9350610375818560208601610530565b61037e81610624565b840191505092915050565b6000815461039681610563565b6103a081866104de565b945060018216600081146103bb57600181146103cd57610400565b60ff1983168652602086019350610400565b6103d6856104be565b60005b838110156103f8578154818901526001820191506020810190506103d9565b808801955050505b50505092915050565b600060208201905061041e6000830184610341565b92915050565b6000602082019050818103600083015261043e8184610350565b905092915050565b600060208201905081810360008301526104608184610389565b905092915050565b6000610472610483565b905061047e8282610595565b919050565b6000604051905090565b600067ffffffffffffffff8211156104a8576104a76105f5565b5b6104b182610624565b9050602081019050919050565b60008190508160005260206000209050919050565b600081519050919050565b600082825260208201905092915050565b60006104fa82610501565b9050919050565b600073ffffffffffffffffffffffffffffffffffffffff82169050919050565b82818337600083830152505050565b60005b8381101561054e578082015181840152602081019050610533565b8381111561055d576000848401525b50505050565b6000600282049050600182168061057b57607f821691505b6020821081141561058f5761058e6105c6565b5b50919050565b61059e82610624565b810181811067ffffffffffffffff821117156105bd576105bc6105f5565b5b80604052505050565b7f4e487b7100000000000000000000000000000000000000000000000000000000600052602260045260246000fd5b7f4e487b7100000000000000000000000000000000000000000000000000000000600052604160045260246000fd5b6000601f19601f830116905091905056fea2646970667358221220118ef1b0a26c3ca45c0e83f2b6f59a823c2ba9a85bb534993e8b7816be9c9b0964736f6c63430008040033",
  "immutableReferences": {},
  "source": "// SPDX-License-Identifier: MIT\npragma solidity ^0.8.4;\n\ncontract ganache {\n\n    // Direccion del propietario del Smart Contract\n    address public owner;\n\n    // Direccion del Smart Contract\n    address public smartContract;\n\n    // Declaracion del mensaje\n    string message = \"\";\n\n    // Evento de construccion del Smart Contract\n    event newContract(address owner, address smartContract);\n\n    // Evento de publicacion del mensaje\n    event newMessage(string message);\n\n    // Constructor \n    constructor(){\n        owner = msg.sender;\n        smartContract = address(this);\n        emit newContract(owner, smartContract);\n    }\n\n    // Publicar un mensaje a la Blockchain\n    function setMessage(string memory _message) public {\n        message = _message;\n        emit newMessage(message);\n    }\n\n    // Visualizar el mensaje de la Blockchain\n    function getMessage() public view returns (string memory){\n        return message;\n    }\n\n}",
  "sourcePath": "/Users/joan_amengual/Desktop/proyecto/contracts/ganache.sol",
  "compiler": {
    "name": "solc",
    "version": "0.8.4+commit.c7e474f2.Emscripten.clang"
  },
  "schemaVersion": "3.4.7",
  "updatedAt": "2022-05-21T15:00:47.416Z",
  "networkType": "ethereum",
  "devdoc": {
    "kind": "dev",
    "methods": {},
    "version": 1
  },
  "userdoc": {
    "kind": "user",
    "methods": {},
    "version": 1
  }
}