{
  "contractName": "loteria",
  "abi": [
    {
      "inputs": [],
      "stateMutability": "nonpayable",
      "type": "constructor"
    },
    {
      "anonymous": false,
      "inputs": [
        {
          "indexed": true,
          "internalType": "address",
          "name": "owner",
          "type": "address"
        },
        {
          "indexed": true,
          "internalType": "address",
          "name": "spender",
          "type": "address"
        },
        {
          "indexed": false,
          "internalType": "uint256",
          "name": "value",
          "type": "uint256"
        }
      ],
      "name": "Approval",
      "type": "event"
    },
    {
      "anonymous": false,
      "inputs": [
        {
          "indexed": true,
          "internalType": "address",
          "name": "previousOwner",
          "type": "address"
        },
        {
          "indexed": true,
          "internalType": "address",
          "name": "newOwner",
          "type": "address"
        }
      ],
      "name": "OwnershipTransferred",
      "type": "event"
    },
    {
      "anonymous": false,
      "inputs": [
        {
          "indexed": true,
          "internalType": "address",
          "name": "from",
          "type": "address"
        },
        {
          "indexed": true,
          "internalType": "address",
          "name": "to",
          "type": "address"
        },
        {
          "indexed": false,
          "internalType": "uint256",
          "name": "value",
          "type": "uint256"
        }
      ],
      "name": "Transfer",
      "type": "event"
    },
    {
      "inputs": [
        {
          "internalType": "address",
          "name": "owner",
          "type": "address"
        },
        {
          "internalType": "address",
          "name": "spender",
          "type": "address"
        }
      ],
      "name": "allowance",
      "outputs": [
        {
          "internalType": "uint256",
          "name": "",
          "type": "uint256"
        }
      ],
      "stateMutability": "view",
      "type": "function",
      "constant": true
    },
    {
      "inputs": [
        {
          "internalType": "address",
          "name": "spender",
          "type": "address"
        },
        {
          "internalType": "uint256",
          "name": "amount",
          "type": "uint256"
        }
      ],
      "name": "approve",
      "outputs": [
        {
          "internalType": "bool",
          "name": "",
          "type": "bool"
        }
      ],
      "stateMutability": "nonpayable",
      "type": "function"
    },
    {
      "inputs": [
        {
          "internalType": "address",
          "name": "account",
          "type": "address"
        }
      ],
      "name": "balanceOf",
      "outputs": [
        {
          "internalType": "uint256",
          "name": "",
          "type": "uint256"
        }
      ],
      "stateMutability": "view",
      "type": "function",
      "constant": true
    },
    {
      "inputs": [],
      "name": "decimals",
      "outputs": [
        {
          "internalType": "uint8",
          "name": "",
          "type": "uint8"
        }
      ],
      "stateMutability": "view",
      "type": "function",
      "constant": true
    },
    {
      "inputs": [
        {
          "internalType": "address",
          "name": "spender",
          "type": "address"
        },
        {
          "internalType": "uint256",
          "name": "subtractedValue",
          "type": "uint256"
        }
      ],
      "name": "decreaseAllowance",
      "outputs": [
        {
          "internalType": "bool",
          "name": "",
          "type": "bool"
        }
      ],
      "stateMutability": "nonpayable",
      "type": "function"
    },
    {
      "inputs": [],
      "name": "ganador",
      "outputs": [
        {
          "internalType": "address",
          "name": "",
          "type": "address"
        }
      ],
      "stateMutability": "view",
      "type": "function",
      "constant": true
    },
    {
      "inputs": [
        {
          "internalType": "address",
          "name": "spender",
          "type": "address"
        },
        {
          "internalType": "uint256",
          "name": "addedValue",
          "type": "uint256"
        }
      ],
      "name": "increaseAllowance",
      "outputs": [
        {
          "internalType": "bool",
          "name": "",
          "type": "bool"
        }
      ],
      "stateMutability": "nonpayable",
      "type": "function"
    },
    {
      "inputs": [],
      "name": "name",
      "outputs": [
        {
          "internalType": "string",
          "name": "",
          "type": "string"
        }
      ],
      "stateMutability": "view",
      "type": "function",
      "constant": true
    },
    {
      "inputs": [],
      "name": "nft",
      "outputs": [
        {
          "internalType": "address",
          "name": "",
          "type": "address"
        }
      ],
      "stateMutability": "view",
      "type": "function",
      "constant": true
    },
    {
      "inputs": [],
      "name": "owner",
      "outputs": [
        {
          "internalType": "address",
          "name": "",
          "type": "address"
        }
      ],
      "stateMutability": "view",
      "type": "function",
      "constant": true
    },
    {
      "inputs": [],
      "name": "precioBoleto",
      "outputs": [
        {
          "internalType": "uint256",
          "name": "",
          "type": "uint256"
        }
      ],
      "stateMutability": "view",
      "type": "function",
      "constant": true
    },
    {
      "inputs": [],
      "name": "renounceOwnership",
      "outputs": [],
      "stateMutability": "nonpayable",
      "type": "function"
    },
    {
      "inputs": [],
      "name": "symbol",
      "outputs": [
        {
          "internalType": "string",
          "name": "",
          "type": "string"
        }
      ],
      "stateMutability": "view",
      "type": "function",
      "constant": true
    },
    {
      "inputs": [],
      "name": "totalSupply",
      "outputs": [
        {
          "internalType": "uint256",
          "name": "",
          "type": "uint256"
        }
      ],
      "stateMutability": "view",
      "type": "function",
      "constant": true
    },
    {
      "inputs": [
        {
          "internalType": "address",
          "name": "to",
          "type": "address"
        },
        {
          "internalType": "uint256",
          "name": "amount",
          "type": "uint256"
        }
      ],
      "name": "transfer",
      "outputs": [
        {
          "internalType": "bool",
          "name": "",
          "type": "bool"
        }
      ],
      "stateMutability": "nonpayable",
      "type": "function"
    },
    {
      "inputs": [
        {
          "internalType": "address",
          "name": "from",
          "type": "address"
        },
        {
          "internalType": "address",
          "name": "to",
          "type": "address"
        },
        {
          "internalType": "uint256",
          "name": "amount",
          "type": "uint256"
        }
      ],
      "name": "transferFrom",
      "outputs": [
        {
          "internalType": "bool",
          "name": "",
          "type": "bool"
        }
      ],
      "stateMutability": "nonpayable",
      "type": "function"
    },
    {
      "inputs": [
        {
          "internalType": "address",
          "name": "newOwner",
          "type": "address"
        }
      ],
      "name": "transferOwnership",
      "outputs": [],
      "stateMutability": "nonpayable",
      "type": "function"
    },
    {
      "inputs": [
        {
          "internalType": "address",
          "name": "",
          "type": "address"
        }
      ],
      "name": "usuario_contract",
      "outputs": [
        {
          "internalType": "address",
          "name": "",
          "type": "address"
        }
      ],
      "stateMutability": "view",
      "type": "function",
      "constant": true
    },
    {
      "inputs": [
        {
          "internalType": "address",
          "name": "_account",
          "type": "address"
        }
      ],
      "name": "balanceTokens",
      "outputs": [
        {
          "internalType": "uint256",
          "name": "",
          "type": "uint256"
        }
      ],
      "stateMutability": "view",
      "type": "function",
      "constant": true
    },
    {
      "inputs": [],
      "name": "balanceTokensSC",
      "outputs": [
        {
          "internalType": "uint256",
          "name": "",
          "type": "uint256"
        }
      ],
      "stateMutability": "view",
      "type": "function",
      "constant": true
    },
    {
      "inputs": [],
      "name": "balanceEthersSC",
      "outputs": [
        {
          "internalType": "uint256",
          "name": "",
          "type": "uint256"
        }
      ],
      "stateMutability": "view",
      "type": "function",
      "constant": true
    },
    {
      "inputs": [
        {
          "internalType": "uint256",
          "name": "_cantidad",
          "type": "uint256"
        }
      ],
      "name": "mint",
      "outputs": [],
      "stateMutability": "nonpayable",
      "type": "function"
    },
    {
      "inputs": [
        {
          "internalType": "uint256",
          "name": "_numTokens",
          "type": "uint256"
        }
      ],
      "name": "compraTokens",
      "outputs": [],
      "stateMutability": "payable",
      "type": "function",
      "payable": true
    },
    {
      "inputs": [
        {
          "internalType": "uint256",
          "name": "_numTokens",
          "type": "uint256"
        }
      ],
      "name": "devolverTokens",
      "outputs": [],
      "stateMutability": "payable",
      "type": "function",
      "payable": true
    },
    {
      "inputs": [
        {
          "internalType": "uint256",
          "name": "_numBoletos",
          "type": "uint256"
        }
      ],
      "name": "compraBoleto",
      "outputs": [],
      "stateMutability": "nonpayable",
      "type": "function"
    },
    {
      "inputs": [
        {
          "internalType": "address",
          "name": "_propietario",
          "type": "address"
        }
      ],
      "name": "tusBoletos",
      "outputs": [
        {
          "internalType": "uint256[]",
          "name": "",
          "type": "uint256[]"
        }
      ],
      "stateMutability": "view",
      "type": "function",
      "constant": true
    },
    {
      "inputs": [],
      "name": "generarGanador",
      "outputs": [],
      "stateMutability": "nonpayable",
      "type": "function"
    }
  ],
  "bytecode": "0x608060405260016009556000600c553480156200001b57600080fd5b506040518060400160405280600781526020017f4c6f7465726961000000000000000000000000000000000000000000000000008152506040518060400160405280600281526020017f4a410000000000000000000000000000000000000000000000000000000000008152508160039080519060200190620000a0929190620003b3565b508060049080519060200190620000b9929190620003b3565b505050620000dc620000d06200016260201b60201c565b6200016a60201b60201c565b620000f0306103e86200023060201b60201c565b604051620000fe9062000444565b604051809103906000f0801580156200011b573d6000803e3d6000fd5b50600660006101000a81548173ffffffffffffffffffffffffffffffffffffffff021916908373ffffffffffffffffffffffffffffffffffffffff1602179055506200061d565b600033905090565b6000600560009054906101000a900473ffffffffffffffffffffffffffffffffffffffff16905081600560006101000a81548173ffffffffffffffffffffffffffffffffffffffff021916908373ffffffffffffffffffffffffffffffffffffffff1602179055508173ffffffffffffffffffffffffffffffffffffffff168173ffffffffffffffffffffffffffffffffffffffff167f8be0079c531659141344cd1fd0a4f28419497f9722a3daafe3b4186f6b6457e060405160405180910390a35050565b600073ffffffffffffffffffffffffffffffffffffffff168273ffffffffffffffffffffffffffffffffffffffff161415620002a3576040517f08c379a00000000000000000000000000000000000000000000000000000000081526004016200029a90620004a9565b60405180910390fd5b620002b760008383620003a960201b60201c565b8060026000828254620002cb9190620004f9565b92505081905550806000808473ffffffffffffffffffffffffffffffffffffffff1673ffffffffffffffffffffffffffffffffffffffff1681526020019081526020016000206000828254620003229190620004f9565b925050819055508173ffffffffffffffffffffffffffffffffffffffff16600073ffffffffffffffffffffffffffffffffffffffff167fddf252ad1be2c89b69c2b068fc378daa952ba7f163c4a11628f55a4df523b3ef83604051620003899190620004cb565b60405180910390a3620003a560008383620003ae60201b60201c565b5050565b505050565b505050565b828054620003c19062000560565b90600052602060002090601f016020900481019282620003e5576000855562000431565b82601f106200040057805160ff191683800117855562000431565b8280016001018555821562000431579182015b828111156200043057825182559160200191906001019062000413565b5b50905062000440919062000452565b5090565b6129148062003c2983390190565b5b808211156200046d57600081600090555060010162000453565b5090565b600062000480601f83620004e8565b91506200048d82620005f4565b602082019050919050565b620004a38162000556565b82525050565b60006020820190508181036000830152620004c48162000471565b9050919050565b6000602082019050620004e2600083018462000498565b92915050565b600082825260208201905092915050565b6000620005068262000556565b9150620005138362000556565b9250827fffffffffffffffffffffffffffffffffffffffffffffffffffffffffffffffff038211156200054b576200054a62000596565b5b828201905092915050565b6000819050919050565b600060028204905060018216806200057957607f821691505b6020821081141562000590576200058f620005c5565b5b50919050565b7f4e487b7100000000000000000000000000000000000000000000000000000000600052601160045260246000fd5b7f4e487b7100000000000000000000000000000000000000000000000000000000600052602260045260246000fd5b7f45524332303a206d696e7420746f20746865207a65726f206164647265737300600082015250565b6135fc806200062d6000396000f3fe608060405260043610620001c45760003560e01c80639114bde81162000103578063b934c3841162000097578063e51c9bdf116200006d578063e51c9bdf146200067f578063ee5ade8314620006ad578063f2fde38b14620006dd578063f9b4527a146200070b57620001c4565b8063b934c38414620005eb578063c29dd7c9146200061b578063dd62ed3e146200063b57620001c4565b806395d89b4111620000d957806395d89b411462000505578063a0712d681462000535578063a457c2d71462000563578063a9059cbb14620005a757620001c4565b80639114bde81462000461578063912cf304146200049157806392ef10d814620004d557620001c4565b8063313ce567116200017b57806370a08231116200015157806370a0823114620003b9578063715018a614620003fd57806389e25c2814620004175780638da5cb5b146200043157620001c4565b8063313ce567146200031557806339509351146200034557806347ccca02146200038957620001c4565b806306fdde0314620001c9578063095ea7b314620001f957806318160ddd146200023d57806323acfa81146200026d57806323b872dd14620002b15780632e95161c14620002f5575b600080fd5b348015620001d657600080fd5b50620001e16200074f565b604051620001f09190620025f3565b60405180910390f35b3480156200020657600080fd5b506200022560048036038101906200021f91906200209e565b620007e9565b604051620002349190620025d6565b60405180910390f35b3480156200024a57600080fd5b506200025562000810565b60405162000264919062002837565b60405180910390f35b3480156200027a57600080fd5b5062000299600480360381019062000293919062001fdb565b6200081a565b604051620002a891906200252b565b60405180910390f35b348015620002be57600080fd5b50620002dd6004803603810190620002d7919062002048565b6200084d565b604051620002ec9190620025d6565b60405180910390f35b6200031360048036038101906200030d9190620020df565b62000882565b005b3480156200032257600080fd5b506200032d6200097a565b6040516200033c919062002854565b60405180910390f35b3480156200035257600080fd5b506200037160048036038101906200036b91906200209e565b62000983565b604051620003809190620025d6565b60405180910390f35b3480156200039657600080fd5b50620003a162000a33565b604051620003b091906200252b565b60405180910390f35b348015620003c657600080fd5b50620003e56004803603810190620003df919062001fdb565b62000a59565b604051620003f4919062002837565b60405180910390f35b3480156200040a57600080fd5b506200041562000aa1565b005b3480156200042457600080fd5b506200042f62000b32565b005b3480156200043e57600080fd5b506200044962000dfd565b6040516200045891906200252b565b60405180910390f35b3480156200046e57600080fd5b506200047962000e27565b6040516200048891906200252b565b60405180910390f35b3480156200049e57600080fd5b50620004bd6004803603810190620004b7919062001fdb565b62000e4d565b604051620004cc9190620025b2565b60405180910390f35b348015620004e257600080fd5b50620004ed62000ee6565b604051620004fc919062002837565b60405180910390f35b3480156200051257600080fd5b506200051d62000ef8565b6040516200052c9190620025f3565b60405180910390f35b3480156200054257600080fd5b506200056160048036038101906200055b9190620020df565b62000f92565b005b3480156200057057600080fd5b506200058f60048036038101906200058991906200209e565b62001024565b6040516200059e9190620025d6565b60405180910390f35b348015620005b457600080fd5b50620005d36004803603810190620005cd91906200209e565b62001115565b604051620005e29190620025d6565b60405180910390f35b348015620005f857600080fd5b50620006036200113c565b60405162000612919062002837565b60405180910390f35b620006396004803603810190620006339190620020df565b62001159565b005b3480156200064857600080fd5b5062000667600480360381019062000661919062002007565b62001310565b60405162000676919062002837565b60405180910390f35b3480156200068c57600080fd5b50620006ab6004803603810190620006a59190620020df565b62001397565b005b348015620006ba57600080fd5b50620006c562001640565b604051620006d4919062002837565b60405180910390f35b348015620006ea57600080fd5b5062000709600480360381019062000703919062001fdb565b62001646565b005b3480156200071857600080fd5b5062000737600480360381019062000731919062001fdb565b6200174a565b60405162000746919062002837565b60405180910390f35b606060038054620007609062002a84565b80601f01602080910402602001604051908101604052809291908181526020018280546200078e9062002a84565b8015620007df5780601f10620007b357610100808354040283529160200191620007df565b820191906000526020600020905b815481529060010190602001808311620007c157829003601f168201915b5050505050905090565b600080620007f66200175e565b90506200080581858562001766565b600191505092915050565b6000600254905090565b60086020528060005260406000206000915054906101000a900473ffffffffffffffffffffffffffffffffffffffff1681565b6000806200085a6200175e565b90506200086985828562001939565b62000876858585620019cd565b60019150509392505050565b60008111620008c8576040517f08c379a0000000000000000000000000000000000000000000000000000000008152600401620008bf90620026e3565b60405180910390fd5b620008d3336200174a565b81111562000918576040517f08c379a00000000000000000000000000000000000000000000000000000000081526004016200090f9062002705565b60405180910390fd5b62000925333083620019cd565b3373ffffffffffffffffffffffffffffffffffffffff166108fc6200094a8362001c5f565b9081150290604051600060405180830381858888f1935050505015801562000976573d6000803e3d6000fd5b5050565b60006012905090565b600080620009906200175e565b905062000a28818585600160008673ffffffffffffffffffffffffffffffffffffffff1673ffffffffffffffffffffffffffffffffffffffff16815260200190815260200160002060008973ffffffffffffffffffffffffffffffffffffffff1673ffffffffffffffffffffffffffffffffffffffff1681526020019081526020016000205462000a229190620028c6565b62001766565b600191505092915050565b600660009054906101000a900473ffffffffffffffffffffffffffffffffffffffff1681565b60008060008373ffffffffffffffffffffffffffffffffffffffff1673ffffffffffffffffffffffffffffffffffffffff168152602001908152602001600020549050919050565b62000aab6200175e565b73ffffffffffffffffffffffffffffffffffffffff1662000acb62000dfd565b73ffffffffffffffffffffffffffffffffffffffff161462000b24576040517f08c379a000000000000000000000000000000000000000000000000000000000815260040162000b1b906200276b565b60405180910390fd5b62000b30600062001c7e565b565b62000b3c6200175e565b73ffffffffffffffffffffffffffffffffffffffff1662000b5c62000dfd565b73ffffffffffffffffffffffffffffffffffffffff161462000bb5576040517f08c379a000000000000000000000000000000000000000000000000000000000815260040162000bac906200276b565b60405180910390fd5b6000600d805490501162000c00576040517f08c379a000000000000000000000000000000000000000000000000000000000815260040162000bf79062002727565b60405180910390fd5b6000600d8054905090506000814260405160200162000c209190620024cb565b6040516020818303038152906040528051906020012060001c62000c45919062002b3a565b90506000600d828154811062000c84577f4e487b7100000000000000000000000000000000000000000000000000000000600052603260045260246000fd5b90600052602060002001549050600b600082815260200190815260200160002060009054906101000a900473ffffffffffffffffffffffffffffffffffffffff16600760006101000a81548173ffffffffffffffffffffffffffffffffffffffff021916908373ffffffffffffffffffffffffffffffffffffffff160217905550600760009054906101000a900473ffffffffffffffffffffffffffffffffffffffff1673ffffffffffffffffffffffffffffffffffffffff166108fc6064605f4762000d5291906200295b565b62000d5e919062002923565b9081150290604051600060405180830381858888f1935050505015801562000d8a573d6000803e3d6000fd5b5062000d9562000dfd565b73ffffffffffffffffffffffffffffffffffffffff166108fc606460054762000dbf91906200295b565b62000dcb919062002923565b9081150290604051600060405180830381858888f1935050505015801562000df7573d6000803e3d6000fd5b50505050565b6000600560009054906101000a900473ffffffffffffffffffffffffffffffffffffffff16905090565b600760009054906101000a900473ffffffffffffffffffffffffffffffffffffffff1681565b6060600a60008373ffffffffffffffffffffffffffffffffffffffff1673ffffffffffffffffffffffffffffffffffffffff16815260200190815260200160002080548060200260200160405190810160405280929190818152602001828054801562000eda57602002820191906000526020600020905b81548152602001906001019080831162000ec5575b50505050509050919050565b600062000ef33062000a59565b905090565b60606004805462000f099062002a84565b80601f016020809104026020016040519081016040528092919081815260200182805462000f379062002a84565b801562000f885780601f1062000f5c5761010080835404028352916020019162000f88565b820191906000526020600020905b81548152906001019060200180831162000f6a57829003601f168201915b5050505050905090565b62000f9c6200175e565b73ffffffffffffffffffffffffffffffffffffffff1662000fbc62000dfd565b73ffffffffffffffffffffffffffffffffffffffff161462001015576040517f08c379a00000000000000000000000000000000000000000000000000000000081526004016200100c906200276b565b60405180910390fd5b62001021308262001d44565b50565b600080620010316200175e565b90506000600160008373ffffffffffffffffffffffffffffffffffffffff1673ffffffffffffffffffffffffffffffffffffffff16815260200190815260200160002060008673ffffffffffffffffffffffffffffffffffffffff1673ffffffffffffffffffffffffffffffffffffffff16815260200190815260200160002054905083811015620010fa576040517f08c379a0000000000000000000000000000000000000000000000000000000008152600401620010f190620027f3565b60405180910390fd5b62001109828686840362001766565b60019250505092915050565b600080620011226200175e565b905062001131818585620019cd565b600191505092915050565b6000670de0b6b3a76400004762001154919062002923565b905090565b600073ffffffffffffffffffffffffffffffffffffffff16600860003373ffffffffffffffffffffffffffffffffffffffff1673ffffffffffffffffffffffffffffffffffffffff16815260200190815260200160002060009054906101000a900473ffffffffffffffffffffffffffffffffffffffff1673ffffffffffffffffffffffffffffffffffffffff161415620011f957620011f862001eb1565b5b6000620012068262001c5f565b9050803410156200124e576040517f08c379a00000000000000000000000000000000000000000000000000000000081526004016200124590620027d1565b60405180910390fd5b60006200125b306200174a565b905080831115620012a3576040517f08c379a00000000000000000000000000000000000000000000000000000000081526004016200129a9062002749565b60405180910390fd5b60008234620012b39190620029bc565b90503373ffffffffffffffffffffffffffffffffffffffff166108fc829081150290604051600060405180830381858888f19350505050158015620012fc573d6000803e3d6000fd5b506200130a303386620019cd565b50505050565b6000600160008473ffffffffffffffffffffffffffffffffffffffff1673ffffffffffffffffffffffffffffffffffffffff16815260200190815260200160002060008373ffffffffffffffffffffffffffffffffffffffff1673ffffffffffffffffffffffffffffffffffffffff16815260200190815260200160002054905092915050565b600060095482620013a991906200295b565b9050620013b6336200174a565b811115620013fb576040517f08c379a0000000000000000000000000000000000000000000000000000000008152600401620013f29062002639565b60405180910390fd5b62001408333083620019cd565b60005b828110156200163b5760006127104233600c546040516020016200143293929190620024e8565b6040516020818303038152906040528051906020012060001c62001457919062002b3a565b9050600c60008154809291906200146e9062002aba565b9190505550600a60003373ffffffffffffffffffffffffffffffffffffffff1673ffffffffffffffffffffffffffffffffffffffff168152602001908152602001600020819080600181540180825580915050600190039060005260206000200160009091909190915055600d81908060018154018082558091505060019003906000526020600020016000909190919091505533600b600083815260200190815260200160002060006101000a81548173ffffffffffffffffffffffffffffffffffffffff021916908373ffffffffffffffffffffffffffffffffffffffff160217905550600860003373ffffffffffffffffffffffffffffffffffffffff1673ffffffffffffffffffffffffffffffffffffffff16815260200190815260200160002060009054906101000a900473ffffffffffffffffffffffffffffffffffffffff1673ffffffffffffffffffffffffffffffffffffffff1663120e852333836040518363ffffffff1660e01b8152600401620015f092919062002585565b600060405180830381600087803b1580156200160b57600080fd5b505af115801562001620573d6000803e3d6000fd5b50505050508080620016329062002aba565b9150506200140b565b505050565b60095481565b620016506200175e565b73ffffffffffffffffffffffffffffffffffffffff166200167062000dfd565b73ffffffffffffffffffffffffffffffffffffffff1614620016c9576040517f08c379a0000000000000000000000000000000000000000000000000000000008152600401620016c0906200276b565b60405180910390fd5b600073ffffffffffffffffffffffffffffffffffffffff168173ffffffffffffffffffffffffffffffffffffffff1614156200173c576040517f08c379a000000000000000000000000000000000000000000000000000000000815260040162001733906200265b565b60405180910390fd5b620017478162001c7e565b50565b6000620017578262000a59565b9050919050565b600033905090565b600073ffffffffffffffffffffffffffffffffffffffff168373ffffffffffffffffffffffffffffffffffffffff161415620017d9576040517f08c379a0000000000000000000000000000000000000000000000000000000008152600401620017d090620027af565b60405180910390fd5b600073ffffffffffffffffffffffffffffffffffffffff168273ffffffffffffffffffffffffffffffffffffffff1614156200184c576040517f08c379a000000000000000000000000000000000000000000000000000000000815260040162001843906200267d565b60405180910390fd5b80600160008573ffffffffffffffffffffffffffffffffffffffff1673ffffffffffffffffffffffffffffffffffffffff16815260200190815260200160002060008473ffffffffffffffffffffffffffffffffffffffff1673ffffffffffffffffffffffffffffffffffffffff168152602001908152602001600020819055508173ffffffffffffffffffffffffffffffffffffffff168373ffffffffffffffffffffffffffffffffffffffff167f8c5be1e5ebec7d5bd14f71427d1e84f3dd0314c0f7b2291e5b200ac8c7c3b925836040516200192c919062002837565b60405180910390a3505050565b600062001947848462001310565b90507fffffffffffffffffffffffffffffffffffffffffffffffffffffffffffffffff8114620019c75781811015620019b7576040517f08c379a0000000000000000000000000000000000000000000000000000000008152600401620019ae906200269f565b60405180910390fd5b620019c6848484840362001766565b5b50505050565b600073ffffffffffffffffffffffffffffffffffffffff168373ffffffffffffffffffffffffffffffffffffffff16141562001a40576040517f08c379a000000000000000000000000000000000000000000000000000000000815260040162001a37906200278d565b60405180910390fd5b600073ffffffffffffffffffffffffffffffffffffffff168273ffffffffffffffffffffffffffffffffffffffff16141562001ab3576040517f08c379a000000000000000000000000000000000000000000000000000000000815260040162001aaa9062002617565b60405180910390fd5b62001ac083838362001f95565b60008060008573ffffffffffffffffffffffffffffffffffffffff1673ffffffffffffffffffffffffffffffffffffffff1681526020019081526020016000205490508181101562001b49576040517f08c379a000000000000000000000000000000000000000000000000000000000815260040162001b4090620026c1565b60405180910390fd5b8181036000808673ffffffffffffffffffffffffffffffffffffffff1673ffffffffffffffffffffffffffffffffffffffff16815260200190815260200160002081905550816000808573ffffffffffffffffffffffffffffffffffffffff1673ffffffffffffffffffffffffffffffffffffffff168152602001908152602001600020600082825462001bde9190620028c6565b925050819055508273ffffffffffffffffffffffffffffffffffffffff168473ffffffffffffffffffffffffffffffffffffffff167fddf252ad1be2c89b69c2b068fc378daa952ba7f163c4a11628f55a4df523b3ef8460405162001c44919062002837565b60405180910390a362001c5984848462001f9a565b50505050565b6000670de0b6b3a76400008262001c7791906200295b565b9050919050565b6000600560009054906101000a900473ffffffffffffffffffffffffffffffffffffffff16905081600560006101000a81548173ffffffffffffffffffffffffffffffffffffffff021916908373ffffffffffffffffffffffffffffffffffffffff1602179055508173ffffffffffffffffffffffffffffffffffffffff168173ffffffffffffffffffffffffffffffffffffffff167f8be0079c531659141344cd1fd0a4f28419497f9722a3daafe3b4186f6b6457e060405160405180910390a35050565b600073ffffffffffffffffffffffffffffffffffffffff168273ffffffffffffffffffffffffffffffffffffffff16141562001db7576040517f08c379a000000000000000000000000000000000000000000000000000000000815260040162001dae9062002815565b60405180910390fd5b62001dc56000838362001f95565b806002600082825462001dd99190620028c6565b92505081905550806000808473ffffffffffffffffffffffffffffffffffffffff1673ffffffffffffffffffffffffffffffffffffffff168152602001908152602001600020600082825462001e309190620028c6565b925050819055508173ffffffffffffffffffffffffffffffffffffffff16600073ffffffffffffffffffffffffffffffffffffffff167fddf252ad1be2c89b69c2b068fc378daa952ba7f163c4a11628f55a4df523b3ef8360405162001e97919062002837565b60405180910390a362001ead6000838362001f9a565b5050565b60003330600660009054906101000a900473ffffffffffffffffffffffffffffffffffffffff1660405162001ee69062001f9f565b62001ef49392919062002548565b604051809103906000f08015801562001f11573d6000803e3d6000fd5b50905080600860003373ffffffffffffffffffffffffffffffffffffffff1673ffffffffffffffffffffffffffffffffffffffff16815260200190815260200160002060006101000a81548173ffffffffffffffffffffffffffffffffffffffff021916908373ffffffffffffffffffffffffffffffffffffffff16021790555050565b505050565b505050565b610543806200308483390190565b60008135905062001fbe816200304f565b92915050565b60008135905062001fd58162003069565b92915050565b60006020828403121562001fee57600080fd5b600062001ffe8482850162001fad565b91505092915050565b600080604083850312156200201b57600080fd5b60006200202b8582860162001fad565b92505060206200203e8582860162001fad565b9150509250929050565b6000806000606084860312156200205e57600080fd5b60006200206e8682870162001fad565b9350506020620020818682870162001fad565b9250506040620020948682870162001fc4565b9150509250925092565b60008060408385031215620020b257600080fd5b6000620020c28582860162001fad565b9250506020620020d58582860162001fc4565b9150509250929050565b600060208284031215620020f257600080fd5b6000620021028482850162001fc4565b91505092915050565b60006200211983836200247d565b60208301905092915050565b6200213081620029f7565b82525050565b6200214b6200214582620029f7565b62002b08565b82525050565b60006200215e8262002881565b6200216a8185620028a4565b9350620021778362002871565b8060005b83811015620021ae5781516200219288826200210b565b97506200219f8362002897565b9250506001810190506200217b565b5085935050505092915050565b620021c68162002a0b565b82525050565b6000620021d9826200288c565b620021e58185620028b5565b9350620021f781856020860162002a4e565b620022028162002bff565b840191505092915050565b60006200221c602383620028b5565b9150620022298262002c1d565b604082019050919050565b600062002243601d83620028b5565b9150620022508262002c6c565b602082019050919050565b60006200226a602683620028b5565b9150620022778262002c95565b604082019050919050565b600062002291602283620028b5565b91506200229e8262002ce4565b604082019050919050565b6000620022b8601d83620028b5565b9150620022c58262002d33565b602082019050919050565b6000620022df602683620028b5565b9150620022ec8262002d5c565b604082019050919050565b600062002306603083620028b5565b9150620023138262002dab565b604082019050919050565b60006200232d602983620028b5565b91506200233a8262002dfa565b604082019050919050565b600062002354601883620028b5565b9150620023618262002e49565b602082019050919050565b60006200237b602183620028b5565b9150620023888262002e72565b604082019050919050565b6000620023a2602083620028b5565b9150620023af8262002ec1565b602082019050919050565b6000620023c9602583620028b5565b9150620023d68262002eea565b604082019050919050565b6000620023f0602483620028b5565b9150620023fd8262002f39565b604082019050919050565b600062002417602983620028b5565b9150620024248262002f88565b604082019050919050565b60006200243e602583620028b5565b91506200244b8262002fd7565b604082019050919050565b600062002465601f83620028b5565b9150620024728262003026565b602082019050919050565b620024888162002a37565b82525050565b620024998162002a37565b82525050565b620024b4620024ae8262002a37565b62002b30565b82525050565b620024c58162002a41565b82525050565b6000620024d982846200249f565b60208201915081905092915050565b6000620024f682866200249f565b60208201915062002508828562002136565b6014820191506200251a82846200249f565b602082019150819050949350505050565b600060208201905062002542600083018462002125565b92915050565b60006060820190506200255f600083018662002125565b6200256e602083018562002125565b6200257d604083018462002125565b949350505050565b60006040820190506200259c600083018562002125565b620025ab60208301846200248e565b9392505050565b60006020820190508181036000830152620025ce818462002151565b905092915050565b6000602082019050620025ed6000830184620021bb565b92915050565b600060208201905081810360008301526200260f8184620021cc565b905092915050565b6000602082019050818103600083015262002632816200220d565b9050919050565b60006020820190508181036000830152620026548162002234565b9050919050565b6000602082019050818103600083015262002676816200225b565b9050919050565b60006020820190508181036000830152620026988162002282565b9050919050565b60006020820190508181036000830152620026ba81620022a9565b9050919050565b60006020820190508181036000830152620026dc81620022d0565b9050919050565b60006020820190508181036000830152620026fe81620022f7565b9050919050565b6000602082019050818103600083015262002720816200231e565b9050919050565b60006020820190508181036000830152620027428162002345565b9050919050565b6000602082019050818103600083015262002764816200236c565b9050919050565b60006020820190508181036000830152620027868162002393565b9050919050565b60006020820190508181036000830152620027a881620023ba565b9050919050565b60006020820190508181036000830152620027ca81620023e1565b9050919050565b60006020820190508181036000830152620027ec8162002408565b9050919050565b600060208201905081810360008301526200280e816200242f565b9050919050565b60006020820190508181036000830152620028308162002456565b9050919050565b60006020820190506200284e60008301846200248e565b92915050565b60006020820190506200286b6000830184620024ba565b92915050565b6000819050602082019050919050565b600081519050919050565b600081519050919050565b6000602082019050919050565b600082825260208201905092915050565b600082825260208201905092915050565b6000620028d38262002a37565b9150620028e08362002a37565b9250827fffffffffffffffffffffffffffffffffffffffffffffffffffffffffffffffff0382111562002918576200291762002b72565b5b828201905092915050565b6000620029308262002a37565b91506200293d8362002a37565b92508262002950576200294f62002ba1565b5b828204905092915050565b6000620029688262002a37565b9150620029758362002a37565b9250817fffffffffffffffffffffffffffffffffffffffffffffffffffffffffffffffff0483118215151615620029b157620029b062002b72565b5b828202905092915050565b6000620029c98262002a37565b9150620029d68362002a37565b925082821015620029ec57620029eb62002b72565b5b828203905092915050565b600062002a048262002a17565b9050919050565b60008115159050919050565b600073ffffffffffffffffffffffffffffffffffffffff82169050919050565b6000819050919050565b600060ff82169050919050565b60005b8381101562002a6e57808201518184015260208101905062002a51565b8381111562002a7e576000848401525b50505050565b6000600282049050600182168062002a9d57607f821691505b6020821081141562002ab45762002ab362002bd0565b5b50919050565b600062002ac78262002a37565b91507fffffffffffffffffffffffffffffffffffffffffffffffffffffffffffffffff82141562002afd5762002afc62002b72565b5b600182019050919050565b600062002b158262002b1c565b9050919050565b600062002b298262002c10565b9050919050565b6000819050919050565b600062002b478262002a37565b915062002b548362002a37565b92508262002b675762002b6662002ba1565b5b828206905092915050565b7f4e487b7100000000000000000000000000000000000000000000000000000000600052601160045260246000fd5b7f4e487b7100000000000000000000000000000000000000000000000000000000600052601260045260246000fd5b7f4e487b7100000000000000000000000000000000000000000000000000000000600052602260045260246000fd5b6000601f19601f8301169050919050565b60008160601b9050919050565b7f45524332303a207472616e7366657220746f20746865207a65726f206164647260008201527f6573730000000000000000000000000000000000000000000000000000000000602082015250565b7f4e656365736974617320636f6d70726172206d617320746f6b656e732e000000600082015250565b7f4f776e61626c653a206e6577206f776e657220697320746865207a65726f206160008201527f6464726573730000000000000000000000000000000000000000000000000000602082015250565b7f45524332303a20617070726f766520746f20746865207a65726f20616464726560008201527f7373000000000000000000000000000000000000000000000000000000000000602082015250565b7f45524332303a20696e73756666696369656e7420616c6c6f77616e6365000000600082015250565b7f45524332303a207472616e7366657220616d6f756e742065786365656473206260008201527f616c616e63650000000000000000000000000000000000000000000000000000602082015250565b7f4e6563657369746173206465766f6c76657220756e206e756d65726f20706f7360008201527f697469766f20646520746f6b656e732e00000000000000000000000000000000602082015250565b7f4e6f207469656e6573206c6f7320746f6b656e7320717565206465736561732060008201527f6465766f6c7665722e0000000000000000000000000000000000000000000000602082015250565b7f4e6f2068617920626f6c65746f7320636f6d707261646f730000000000000000600082015250565b7f436f6d70726120756e206e756d65726f206d656e6f7220646520746f6b656e7360008201527f2e00000000000000000000000000000000000000000000000000000000000000602082015250565b7f4f776e61626c653a2063616c6c6572206973206e6f7420746865206f776e6572600082015250565b7f45524332303a207472616e736665722066726f6d20746865207a65726f20616460008201527f6472657373000000000000000000000000000000000000000000000000000000602082015250565b7f45524332303a20617070726f76652066726f6d20746865207a65726f2061646460008201527f7265737300000000000000000000000000000000000000000000000000000000602082015250565b7f436f6d707261206d656e6f7320746f6b656e73206f207061676120636f6e206d60008201527f6173206574686572730000000000000000000000000000000000000000000000602082015250565b7f45524332303a2064656372656173656420616c6c6f77616e63652062656c6f7760008201527f207a65726f000000000000000000000000000000000000000000000000000000602082015250565b7f45524332303a206d696e7420746f20746865207a65726f206164647265737300600082015250565b6200305a81620029f7565b81146200306657600080fd5b50565b620030748162002a37565b81146200308057600080fd5b5056fe608060405234801561001057600080fd5b506040516105433803806105438339818101604052810190610032919061015e565b826000800160006101000a81548173ffffffffffffffffffffffffffffffffffffffff021916908373ffffffffffffffffffffffffffffffffffffffff16021790555081600060010160006101000a81548173ffffffffffffffffffffffffffffffffffffffff021916908373ffffffffffffffffffffffffffffffffffffffff16021790555080600060020160006101000a81548173ffffffffffffffffffffffffffffffffffffffff021916908373ffffffffffffffffffffffffffffffffffffffff16021790555030600060030160006101000a81548173ffffffffffffffffffffffffffffffffffffffff021916908373ffffffffffffffffffffffffffffffffffffffff1602179055505050506101f6565b600081519050610158816101df565b92915050565b60008060006060848603121561017357600080fd5b600061018186828701610149565b935050602061019286828701610149565b92505060406101a386828701610149565b9150509250925092565b60006101b8826101bf565b9050919050565b600073ffffffffffffffffffffffffffffffffffffffff82169050919050565b6101e8816101ad565b81146101f357600080fd5b50565b61033e806102056000396000f3fe608060405234801561001057600080fd5b50600436106100365760003560e01c8063120e85231461003b5780633c4f81cd14610057575b600080fd5b610055600480360381019061005091906101d6565b610078565b005b61005f61010e565b60405161006f9493929190610230565b60405180910390f35b600060020160009054906101000a900473ffffffffffffffffffffffffffffffffffffffff1673ffffffffffffffffffffffffffffffffffffffff1663a144819483836040518363ffffffff1660e01b81526004016100d8929190610275565b600060405180830381600087803b1580156100f257600080fd5b505af1158015610106573d6000803e3d6000fd5b505050505050565b60008060000160009054906101000a900473ffffffffffffffffffffffffffffffffffffffff16908060010160009054906101000a900473ffffffffffffffffffffffffffffffffffffffff16908060020160009054906101000a900473ffffffffffffffffffffffffffffffffffffffff16908060030160009054906101000a900473ffffffffffffffffffffffffffffffffffffffff16905084565b6000813590506101bb816102da565b92915050565b6000813590506101d0816102f1565b92915050565b600080604083850312156101e957600080fd5b60006101f7858286016101ac565b9250506020610208858286016101c1565b9150509250929050565b61021b8161029e565b82525050565b61022a816102d0565b82525050565b60006080820190506102456000830187610212565b6102526020830186610212565b61025f6040830185610212565b61026c6060830184610212565b95945050505050565b600060408201905061028a6000830185610212565b6102976020830184610221565b9392505050565b60006102a9826102b0565b9050919050565b600073ffffffffffffffffffffffffffffffffffffffff82169050919050565b6000819050919050565b6102e38161029e565b81146102ee57600080fd5b50565b6102fa816102d0565b811461030557600080fd5b5056fea2646970667358221220005124e61ec9f0f4ed50ec3c570f8bec5fe5b5605d67a7e95406843bb6b446a564736f6c63430008040033a26469706673582212209d1996db67e6e86213c846f83cd629e39b7f3df63faa7cf7095a4d14f489241c64736f6c6343000804003360806040523480156200001157600080fd5b506040518060400160405280600781526020017f4c6f7465726961000000000000000000000000000000000000000000000000008152506040518060400160405280600381526020017f5354450000000000000000000000000000000000000000000000000000000000815250816000908051906020019062000096929190620000b8565b508060019080519060200190620000af929190620000b8565b505050620001cd565b828054620000c69062000168565b90600052602060002090601f016020900481019282620000ea576000855562000136565b82601f106200010557805160ff191683800117855562000136565b8280016001018555821562000136579182015b828111156200013557825182559160200191906001019062000118565b5b50905062000145919062000149565b5090565b5b80821115620001645760008160009055506001016200014a565b5090565b600060028204905060018216806200018157607f821691505b602082108114156200019857620001976200019e565b5b50919050565b7f4e487b7100000000000000000000000000000000000000000000000000000000600052602260045260246000fd5b61273780620001dd6000396000f3fe608060405234801561001057600080fd5b50600436106100ea5760003560e01c806370a082311161008c578063a22cb46511610066578063a22cb4651461025b578063b88d4fde14610277578063c87b56dd14610293578063e985e9c5146102c3576100ea565b806370a08231146101f157806395d89b4114610221578063a14481941461023f576100ea565b8063095ea7b3116100c8578063095ea7b31461016d57806323b872dd1461018957806342842e0e146101a55780636352211e146101c1576100ea565b806301ffc9a7146100ef57806306fdde031461011f578063081812fc1461013d575b600080fd5b61010960048036038101906101049190611939565b6102f3565b6040516101169190611cf9565b60405180910390f35b6101276103d5565b6040516101349190611d14565b60405180910390f35b6101576004803603810190610152919061198b565b610467565b6040516101649190611c92565b60405180910390f35b610187600480360381019061018291906118fd565b6104ec565b005b6101a3600480360381019061019e91906117f7565b610604565b005b6101bf60048036038101906101ba91906117f7565b610664565b005b6101db60048036038101906101d6919061198b565b610684565b6040516101e89190611c92565b60405180910390f35b61020b60048036038101906102069190611792565b610736565b6040516102189190611ef6565b60405180910390f35b6102296107ee565b6040516102369190611d14565b60405180910390f35b610259600480360381019061025491906118fd565b610880565b005b610275600480360381019061027091906118c1565b61088e565b005b610291600480360381019061028c9190611846565b6108a4565b005b6102ad60048036038101906102a8919061198b565b610906565b6040516102ba9190611d14565b60405180910390f35b6102dd60048036038101906102d891906117bb565b6109ad565b6040516102ea9190611cf9565b60405180910390f35b60007f80ac58cd000000000000000000000000000000000000000000000000000000007bffffffffffffffffffffffffffffffffffffffffffffffffffffffff1916827bffffffffffffffffffffffffffffffffffffffffffffffffffffffff191614806103be57507f5b5e139f000000000000000000000000000000000000000000000000000000007bffffffffffffffffffffffffffffffffffffffffffffffffffffffff1916827bffffffffffffffffffffffffffffffffffffffffffffffffffffffff1916145b806103ce57506103cd82610a41565b5b9050919050565b6060600080546103e49061211b565b80601f01602080910402602001604051908101604052809291908181526020018280546104109061211b565b801561045d5780601f106104325761010080835404028352916020019161045d565b820191906000526020600020905b81548152906001019060200180831161044057829003601f168201915b5050505050905090565b600061047282610aab565b6104b1576040517f08c379a00000000000000000000000000000000000000000000000000000000081526004016104a890611e76565b60405180910390fd5b6004600083815260200190815260200160002060009054906101000a900473ffffffffffffffffffffffffffffffffffffffff169050919050565b60006104f782610684565b90508073ffffffffffffffffffffffffffffffffffffffff168373ffffffffffffffffffffffffffffffffffffffff161415610568576040517f08c379a000000000000000000000000000000000000000000000000000000000815260040161055f90611eb6565b60405180910390fd5b8073ffffffffffffffffffffffffffffffffffffffff16610587610b17565b73ffffffffffffffffffffffffffffffffffffffff1614806105b657506105b5816105b0610b17565b6109ad565b5b6105f5576040517f08c379a00000000000000000000000000000000000000000000000000000000081526004016105ec90611df6565b60405180910390fd5b6105ff8383610b1f565b505050565b61061561060f610b17565b82610bd8565b610654576040517f08c379a000000000000000000000000000000000000000000000000000000000815260040161064b90611ed6565b60405180910390fd5b61065f838383610cb6565b505050565b61067f838383604051806020016040528060008152506108a4565b505050565b6000806002600084815260200190815260200160002060009054906101000a900473ffffffffffffffffffffffffffffffffffffffff169050600073ffffffffffffffffffffffffffffffffffffffff168173ffffffffffffffffffffffffffffffffffffffff16141561072d576040517f08c379a000000000000000000000000000000000000000000000000000000000815260040161072490611e36565b60405180910390fd5b80915050919050565b60008073ffffffffffffffffffffffffffffffffffffffff168273ffffffffffffffffffffffffffffffffffffffff1614156107a7576040517f08c379a000000000000000000000000000000000000000000000000000000000815260040161079e90611e16565b60405180910390fd5b600360008373ffffffffffffffffffffffffffffffffffffffff1673ffffffffffffffffffffffffffffffffffffffff168152602001908152602001600020549050919050565b6060600180546107fd9061211b565b80601f01602080910402602001604051908101604052809291908181526020018280546108299061211b565b80156108765780601f1061084b57610100808354040283529160200191610876565b820191906000526020600020905b81548152906001019060200180831161085957829003601f168201915b5050505050905090565b61088a8282610f1d565b5050565b6108a0610899610b17565b8383610f3b565b5050565b6108b56108af610b17565b83610bd8565b6108f4576040517f08c379a00000000000000000000000000000000000000000000000000000000081526004016108eb90611ed6565b60405180910390fd5b610900848484846110a8565b50505050565b606061091182610aab565b610950576040517f08c379a000000000000000000000000000000000000000000000000000000000815260040161094790611e96565b60405180910390fd5b600061095a611104565b9050600081511161097a57604051806020016040528060008152506109a5565b806109848461111b565b604051602001610995929190611c6e565b6040516020818303038152906040525b915050919050565b6000600560008473ffffffffffffffffffffffffffffffffffffffff1673ffffffffffffffffffffffffffffffffffffffff16815260200190815260200160002060008373ffffffffffffffffffffffffffffffffffffffff1673ffffffffffffffffffffffffffffffffffffffff16815260200190815260200160002060009054906101000a900460ff16905092915050565b60007f01ffc9a7000000000000000000000000000000000000000000000000000000007bffffffffffffffffffffffffffffffffffffffffffffffffffffffff1916827bffffffffffffffffffffffffffffffffffffffffffffffffffffffff1916149050919050565b60008073ffffffffffffffffffffffffffffffffffffffff166002600084815260200190815260200160002060009054906101000a900473ffffffffffffffffffffffffffffffffffffffff1673ffffffffffffffffffffffffffffffffffffffff1614159050919050565b600033905090565b816004600083815260200190815260200160002060006101000a81548173ffffffffffffffffffffffffffffffffffffffff021916908373ffffffffffffffffffffffffffffffffffffffff160217905550808273ffffffffffffffffffffffffffffffffffffffff16610b9283610684565b73ffffffffffffffffffffffffffffffffffffffff167f8c5be1e5ebec7d5bd14f71427d1e84f3dd0314c0f7b2291e5b200ac8c7c3b92560405160405180910390a45050565b6000610be382610aab565b610c22576040517f08c379a0000000000000000000000000000000000000000000000000000000008152600401610c1990611dd6565b60405180910390fd5b6000610c2d83610684565b90508073ffffffffffffffffffffffffffffffffffffffff168473ffffffffffffffffffffffffffffffffffffffff161480610c9c57508373ffffffffffffffffffffffffffffffffffffffff16610c8484610467565b73ffffffffffffffffffffffffffffffffffffffff16145b80610cad5750610cac81856109ad565b5b91505092915050565b8273ffffffffffffffffffffffffffffffffffffffff16610cd682610684565b73ffffffffffffffffffffffffffffffffffffffff1614610d2c576040517f08c379a0000000000000000000000000000000000000000000000000000000008152600401610d2390611d56565b60405180910390fd5b600073ffffffffffffffffffffffffffffffffffffffff168273ffffffffffffffffffffffffffffffffffffffff161415610d9c576040517f08c379a0000000000000000000000000000000000000000000000000000000008152600401610d9390611d96565b60405180910390fd5b610da78383836112c8565b610db2600082610b1f565b6001600360008573ffffffffffffffffffffffffffffffffffffffff1673ffffffffffffffffffffffffffffffffffffffff1681526020019081526020016000206000828254610e029190612031565b925050819055506001600360008473ffffffffffffffffffffffffffffffffffffffff1673ffffffffffffffffffffffffffffffffffffffff1681526020019081526020016000206000828254610e599190611faa565b92505081905550816002600083815260200190815260200160002060006101000a81548173ffffffffffffffffffffffffffffffffffffffff021916908373ffffffffffffffffffffffffffffffffffffffff160217905550808273ffffffffffffffffffffffffffffffffffffffff168473ffffffffffffffffffffffffffffffffffffffff167fddf252ad1be2c89b69c2b068fc378daa952ba7f163c4a11628f55a4df523b3ef60405160405180910390a4610f188383836112cd565b505050565b610f378282604051806020016040528060008152506112d2565b5050565b8173ffffffffffffffffffffffffffffffffffffffff168373ffffffffffffffffffffffffffffffffffffffff161415610faa576040517f08c379a0000000000000000000000000000000000000000000000000000000008152600401610fa190611db6565b60405180910390fd5b80600560008573ffffffffffffffffffffffffffffffffffffffff1673ffffffffffffffffffffffffffffffffffffffff16815260200190815260200160002060008473ffffffffffffffffffffffffffffffffffffffff1673ffffffffffffffffffffffffffffffffffffffff16815260200190815260200160002060006101000a81548160ff0219169083151502179055508173ffffffffffffffffffffffffffffffffffffffff168373ffffffffffffffffffffffffffffffffffffffff167f17307eab39ab6107e8899845ad3d59bd9653f200f220920489ca2b5937696c318360405161109b9190611cf9565b60405180910390a3505050565b6110b3848484610cb6565b6110bf8484848461132d565b6110fe576040517f08c379a00000000000000000000000000000000000000000000000000000000081526004016110f590611d36565b60405180910390fd5b50505050565b606060405180602001604052806000815250905090565b60606000821415611163576040518060400160405280600181526020017f300000000000000000000000000000000000000000000000000000000000000081525090506112c3565b600082905060005b6000821461119557808061117e9061217e565b915050600a8261118e9190612000565b915061116b565b60008167ffffffffffffffff8111156111d7577f4e487b7100000000000000000000000000000000000000000000000000000000600052604160045260246000fd5b6040519080825280601f01601f1916602001820160405280156112095781602001600182028036833780820191505090505b5090505b600085146112bc576001826112229190612031565b9150600a8561123191906121c7565b603061123d9190611faa565b60f81b818381518110611279577f4e487b7100000000000000000000000000000000000000000000000000000000600052603260045260246000fd5b60200101907effffffffffffffffffffffffffffffffffffffffffffffffffffffffffffff1916908160001a905350600a856112b59190612000565b945061120d565b8093505050505b919050565b505050565b505050565b6112dc83836114c4565b6112e9600084848461132d565b611328576040517f08c379a000000000000000000000000000000000000000000000000000000000815260040161131f90611d36565b60405180910390fd5b505050565b600061134e8473ffffffffffffffffffffffffffffffffffffffff1661169e565b156114b7578373ffffffffffffffffffffffffffffffffffffffff1663150b7a02611377610b17565b8786866040518563ffffffff1660e01b81526004016113999493929190611cad565b602060405180830381600087803b1580156113b357600080fd5b505af19250505080156113e457506040513d601f19601f820116820180604052508101906113e19190611962565b60015b611467573d8060008114611414576040519150601f19603f3d011682016040523d82523d6000602084013e611419565b606091505b5060008151141561145f576040517f08c379a000000000000000000000000000000000000000000000000000000000815260040161145690611d36565b60405180910390fd5b805181602001fd5b63150b7a0260e01b7bffffffffffffffffffffffffffffffffffffffffffffffffffffffff1916817bffffffffffffffffffffffffffffffffffffffffffffffffffffffff1916149150506114bc565b600190505b949350505050565b600073ffffffffffffffffffffffffffffffffffffffff168273ffffffffffffffffffffffffffffffffffffffff161415611534576040517f08c379a000000000000000000000000000000000000000000000000000000000815260040161152b90611e56565b60405180910390fd5b61153d81610aab565b1561157d576040517f08c379a000000000000000000000000000000000000000000000000000000000815260040161157490611d76565b60405180910390fd5b611589600083836112c8565b6001600360008473ffffffffffffffffffffffffffffffffffffffff1673ffffffffffffffffffffffffffffffffffffffff16815260200190815260200160002060008282546115d99190611faa565b92505081905550816002600083815260200190815260200160002060006101000a81548173ffffffffffffffffffffffffffffffffffffffff021916908373ffffffffffffffffffffffffffffffffffffffff160217905550808273ffffffffffffffffffffffffffffffffffffffff16600073ffffffffffffffffffffffffffffffffffffffff167fddf252ad1be2c89b69c2b068fc378daa952ba7f163c4a11628f55a4df523b3ef60405160405180910390a461169a600083836112cd565b5050565b6000808273ffffffffffffffffffffffffffffffffffffffff163b119050919050565b60006116d46116cf84611f36565b611f11565b9050828152602081018484840111156116ec57600080fd5b6116f78482856120d9565b509392505050565b60008135905061170e816126a5565b92915050565b600081359050611723816126bc565b92915050565b600081359050611738816126d3565b92915050565b60008151905061174d816126d3565b92915050565b600082601f83011261176457600080fd5b81356117748482602086016116c1565b91505092915050565b60008135905061178c816126ea565b92915050565b6000602082840312156117a457600080fd5b60006117b2848285016116ff565b91505092915050565b600080604083850312156117ce57600080fd5b60006117dc858286016116ff565b92505060206117ed858286016116ff565b9150509250929050565b60008060006060848603121561180c57600080fd5b600061181a868287016116ff565b935050602061182b868287016116ff565b925050604061183c8682870161177d565b9150509250925092565b6000806000806080858703121561185c57600080fd5b600061186a878288016116ff565b945050602061187b878288016116ff565b935050604061188c8782880161177d565b925050606085013567ffffffffffffffff8111156118a957600080fd5b6118b587828801611753565b91505092959194509250565b600080604083850312156118d457600080fd5b60006118e2858286016116ff565b92505060206118f385828601611714565b9150509250929050565b6000806040838503121561191057600080fd5b600061191e858286016116ff565b925050602061192f8582860161177d565b9150509250929050565b60006020828403121561194b57600080fd5b600061195984828501611729565b91505092915050565b60006020828403121561197457600080fd5b60006119828482850161173e565b91505092915050565b60006020828403121561199d57600080fd5b60006119ab8482850161177d565b91505092915050565b6119bd81612065565b82525050565b6119cc81612077565b82525050565b60006119dd82611f67565b6119e78185611f7d565b93506119f78185602086016120e8565b611a00816122b4565b840191505092915050565b6000611a1682611f72565b611a208185611f8e565b9350611a308185602086016120e8565b611a39816122b4565b840191505092915050565b6000611a4f82611f72565b611a598185611f9f565b9350611a698185602086016120e8565b80840191505092915050565b6000611a82603283611f8e565b9150611a8d826122c5565b604082019050919050565b6000611aa5602583611f8e565b9150611ab082612314565b604082019050919050565b6000611ac8601c83611f8e565b9150611ad382612363565b602082019050919050565b6000611aeb602483611f8e565b9150611af68261238c565b604082019050919050565b6000611b0e601983611f8e565b9150611b19826123db565b602082019050919050565b6000611b31602c83611f8e565b9150611b3c82612404565b604082019050919050565b6000611b54603883611f8e565b9150611b5f82612453565b604082019050919050565b6000611b77602a83611f8e565b9150611b82826124a2565b604082019050919050565b6000611b9a602983611f8e565b9150611ba5826124f1565b604082019050919050565b6000611bbd602083611f8e565b9150611bc882612540565b602082019050919050565b6000611be0602c83611f8e565b9150611beb82612569565b604082019050919050565b6000611c03602f83611f8e565b9150611c0e826125b8565b604082019050919050565b6000611c26602183611f8e565b9150611c3182612607565b604082019050919050565b6000611c49603183611f8e565b9150611c5482612656565b604082019050919050565b611c68816120cf565b82525050565b6000611c7a8285611a44565b9150611c868284611a44565b91508190509392505050565b6000602082019050611ca760008301846119b4565b92915050565b6000608082019050611cc260008301876119b4565b611ccf60208301866119b4565b611cdc6040830185611c5f565b8181036060830152611cee81846119d2565b905095945050505050565b6000602082019050611d0e60008301846119c3565b92915050565b60006020820190508181036000830152611d2e8184611a0b565b905092915050565b60006020820190508181036000830152611d4f81611a75565b9050919050565b60006020820190508181036000830152611d6f81611a98565b9050919050565b60006020820190508181036000830152611d8f81611abb565b9050919050565b60006020820190508181036000830152611daf81611ade565b9050919050565b60006020820190508181036000830152611dcf81611b01565b9050919050565b60006020820190508181036000830152611def81611b24565b9050919050565b60006020820190508181036000830152611e0f81611b47565b9050919050565b60006020820190508181036000830152611e2f81611b6a565b9050919050565b60006020820190508181036000830152611e4f81611b8d565b9050919050565b60006020820190508181036000830152611e6f81611bb0565b9050919050565b60006020820190508181036000830152611e8f81611bd3565b9050919050565b60006020820190508181036000830152611eaf81611bf6565b9050919050565b60006020820190508181036000830152611ecf81611c19565b9050919050565b60006020820190508181036000830152611eef81611c3c565b9050919050565b6000602082019050611f0b6000830184611c5f565b92915050565b6000611f1b611f2c565b9050611f27828261214d565b919050565b6000604051905090565b600067ffffffffffffffff821115611f5157611f50612285565b5b611f5a826122b4565b9050602081019050919050565b600081519050919050565b600081519050919050565b600082825260208201905092915050565b600082825260208201905092915050565b600081905092915050565b6000611fb5826120cf565b9150611fc0836120cf565b9250827fffffffffffffffffffffffffffffffffffffffffffffffffffffffffffffffff03821115611ff557611ff46121f8565b5b828201905092915050565b600061200b826120cf565b9150612016836120cf565b92508261202657612025612227565b5b828204905092915050565b600061203c826120cf565b9150612047836120cf565b92508282101561205a576120596121f8565b5b828203905092915050565b6000612070826120af565b9050919050565b60008115159050919050565b60007fffffffff0000000000000000000000000000000000000000000000000000000082169050919050565b600073ffffffffffffffffffffffffffffffffffffffff82169050919050565b6000819050919050565b82818337600083830152505050565b60005b838110156121065780820151818401526020810190506120eb565b83811115612115576000848401525b50505050565b6000600282049050600182168061213357607f821691505b6020821081141561214757612146612256565b5b50919050565b612156826122b4565b810181811067ffffffffffffffff8211171561217557612174612285565b5b80604052505050565b6000612189826120cf565b91507fffffffffffffffffffffffffffffffffffffffffffffffffffffffffffffffff8214156121bc576121bb6121f8565b5b600182019050919050565b60006121d2826120cf565b91506121dd836120cf565b9250826121ed576121ec612227565b5b828206905092915050565b7f4e487b7100000000000000000000000000000000000000000000000000000000600052601160045260246000fd5b7f4e487b7100000000000000000000000000000000000000000000000000000000600052601260045260246000fd5b7f4e487b7100000000000000000000000000000000000000000000000000000000600052602260045260246000fd5b7f4e487b7100000000000000000000000000000000000000000000000000000000600052604160045260246000fd5b6000601f19601f8301169050919050565b7f4552433732313a207472616e7366657220746f206e6f6e20455243373231526560008201527f63656976657220696d706c656d656e7465720000000000000000000000000000602082015250565b7f4552433732313a207472616e736665722066726f6d20696e636f72726563742060008201527f6f776e6572000000000000000000000000000000000000000000000000000000602082015250565b7f4552433732313a20746f6b656e20616c7265616479206d696e74656400000000600082015250565b7f4552433732313a207472616e7366657220746f20746865207a65726f2061646460008201527f7265737300000000000000000000000000000000000000000000000000000000602082015250565b7f4552433732313a20617070726f766520746f2063616c6c657200000000000000600082015250565b7f4552433732313a206f70657261746f7220717565727920666f72206e6f6e657860008201527f697374656e7420746f6b656e0000000000000000000000000000000000000000602082015250565b7f4552433732313a20617070726f76652063616c6c6572206973206e6f74206f7760008201527f6e6572206e6f7220617070726f76656420666f7220616c6c0000000000000000602082015250565b7f4552433732313a2062616c616e636520717565727920666f7220746865207a6560008201527f726f206164647265737300000000000000000000000000000000000000000000602082015250565b7f4552433732313a206f776e657220717565727920666f72206e6f6e657869737460008201527f656e7420746f6b656e0000000000000000000000000000000000000000000000602082015250565b7f4552433732313a206d696e7420746f20746865207a65726f2061646472657373600082015250565b7f4552433732313a20617070726f76656420717565727920666f72206e6f6e657860008201527f697374656e7420746f6b656e0000000000000000000000000000000000000000602082015250565b7f4552433732314d657461646174613a2055524920717565727920666f72206e6f60008201527f6e6578697374656e7420746f6b656e0000000000000000000000000000000000602082015250565b7f4552433732313a20617070726f76616c20746f2063757272656e74206f776e6560008201527f7200000000000000000000000000000000000000000000000000000000000000602082015250565b7f4552433732313a207472616e736665722063616c6c6572206973206e6f74206f60008201527f776e6572206e6f7220617070726f766564000000000000000000000000000000602082015250565b6126ae81612065565b81146126b957600080fd5b50565b6126c581612077565b81146126d057600080fd5b50565b6126dc81612083565b81146126e757600080fd5b50565b6126f3816120cf565b81146126fe57600080fd5b5056fea26469706673582212204f3d41e0475b6609a75bb0f545b1e0ea9f54d4caa90001c015edd75e990693a664736f6c63430008040033",
  "immutableReferences": {},
  "source": "// SPDX-License-Identifier: MIT\npragma solidity ^0.8.4;\nimport \"@openzeppelin/contracts/token/ERC20/ERC20.sol\";\nimport \"@openzeppelin/contracts/access/Ownable.sol\";\nimport \"@openzeppelin/contracts/token/ERC721/ERC721.sol\";\n\ncontract loteria is ERC20, Ownable {\n    \n    // ============================================\n    // Gestion de los tokens\n    // ============================================  \n    \n    // Direccion del contrato NFT del proyecto\n    address public nft;\n\n    // Constructor \n    constructor () ERC20(\"Loteria\", \"JA\") {\n        _mint(address(this), 1000);\n        nft = address(new mainERC721());\n    }\n\n    // Ganador del premio de la loteria\n    address public ganador;\n\n   // Precio de los tokens del proyecto\n    function precioTokens(uint256 _numTokens) internal pure returns (uint256){\n        return _numTokens * (1 ether);\n    }\n\n    // Visualizacion del balance de tokens de una persona\n    function balanceTokens(address _account) public view returns (uint256){ \n        return balanceOf(_account);\n    }\n\n    // Visualizacion del balance de tokens del Smart Contract\n    function balanceTokensSC() public view returns (uint256){ \n        return balanceOf(address(this));\n    }\n\n    // Visualizacion del balance de ethers del Smart Contract\n    function balanceEthersSC() public view returns (uint256){\n        return address(this).balance / 10**18;\n    }    \n\n    // Nuevos tokens erc-20\n    function mint(uint256 _cantidad) public onlyOwner {\n        _mint(address(this), _cantidad);\n    }    \n\n    // Registro del usuario \n    mapping (address => address) public usuario_contract;\n    function registrar() internal {\n        address addr_personal_contract = address(new boletosNFTs(msg.sender, address(this), nft)); \n        usuario_contract[msg.sender] = addr_personal_contract;\n    } \n\n    // Compra de tokens \n    function compraTokens(uint256 _numTokens) public payable {\n        if(usuario_contract[msg.sender] == address(0)){\n            registrar();\n        }\n        // Establecimiento del coste de los tokens a comprar\n        uint256 coste = precioTokens(_numTokens);\n        // Evaluacion del dinero que el cliente paga por los tokens\n        require(msg.value >= coste, \"Compra menos tokens o paga con mas ethers\");\n        // Obtencion del numero de tokens disponibles en el Smart Contract\n        uint256 balance = balanceTokens(address(this));\n        require(_numTokens <= balance, \"Compra un numero menor de tokens.\");\n        //  El returnValue se define como lo que paga el cliente menos lo que vale el producto\n        uint256 returnValue = msg.value - coste;\n        // El Smart Contract devuelve la cantidad restante al cliente\n        payable(msg.sender).transfer(returnValue);\n        // El numero de tokens comprados se transfiere al cliente \n        _transfer(address(this), msg.sender, _numTokens);\n    }\n\n    // Devolucion de los tokens al Smart Contract \n    function devolverTokens(uint _numTokens) public payable {\n        // El numero de tokens a devolver debe ser mayor a 0 \n        require(_numTokens > 0 , \"Necesitas devolver un numero positivo de tokens.\");\n        // El usuario debe tener los tokens que desea devolver \n        require (_numTokens <= balanceTokens(msg.sender), \"No tienes los tokens que deseas devolver.\");\n        // El usuario transfiere los tokens al Smart Contract\n        _transfer(msg.sender, address(this), _numTokens);\n        // El Smart Contract envia los ethers al usuario\n        payable(msg.sender).transfer(precioTokens(_numTokens));\n    }\n\n    // ============================================\n    // Gestion de la loteria\n    // ============================================\n    \n    // Precio del boleto de loteria (en tokens) \n    uint public precioBoleto = 1;\n    // Relacion: persona que compra los boletos -> el numero de los boletos\n    mapping (address => uint []) idPersona_boletos;\n    // Relacion: boleto -> ganador\n    mapping (uint => address) ADNBoleto;\n    // Numero aleatorio\n    uint randNonce = 0;\n    // Boletos de la loteria generados \n    uint [] boletosComprados;    \n    \n    // Compra de boletos de loteria\n    function compraBoleto(uint _numBoletos) public {\n        // Precio total de los boletos a comprar\n        uint precioTotal = _numBoletos*precioBoleto;\n        // Verificacion de los tokens del usuario\n        require (precioTotal <= balanceTokens(msg.sender), \"Necesitas comprar mas tokens.\");\n        // Transferencia de tokens del usuario al Smart Contract\n        _transfer(msg.sender, address(this), precioTotal);\n        /* Recoge la marca de tiempo (block.timestamp), msg.sender y un Nonce\n        (un numero que solo se utiliza una vez, para que no ejecutemos dos veces la misma \n        funcion de hash con los mismos parametros de entrada) en incremento.\n        Se utiliza 'keccak256 'para convertir estas entradas a un hash aleatorio, \n        convertir ese hash a un uint y luego utilizamos % 10000 para tomar los ultimos 4 digitos,\n        dando un valor aleatorio entre 0 - 9999. */\n        for (uint i = 0; i < _numBoletos; i++) {\n            uint random = uint(keccak256(abi.encodePacked(block.timestamp, msg.sender, randNonce))) % 10000;\n            randNonce++;\n            // Almacenamiento de los datos de los boletos de loteria\n            idPersona_boletos[msg.sender].push(random);\n            // Numero del boleto comprado\n            boletosComprados.push(random);\n            // Asignacion del ADN del boleto para la generacion de un ganador \n            ADNBoleto[random] = msg.sender;\n            // Creacion de un nuevo NFT para el numero de boleto\n            boletosNFTs(usuario_contract[msg.sender]).mintBoleto(msg.sender, random);\n        }\n        \n    }\n    \n    // Visualizacion de los boletos del usuario\n    function tusBoletos(address _propietario) public view returns (uint [] memory){\n        return idPersona_boletos[_propietario];\n    }\n\n    // Generacion del ganador de la loteria\n    function generarGanador() public onlyOwner {\n        // Verificacion de la compra de mas 1 boleto o mas\n        require(boletosComprados.length > 0, \"No hay boletos comprados\");\n        // Declaracion de la longitud del array \n        uint longitud = boletosComprados.length;\n        // Eleccion aleatoria de un numero entre: [0 - Longitud]\n        uint random = uint(uint(keccak256(abi.encodePacked(block.timestamp))) % longitud);\n        // Seleccion del numero aleatorio mediante la posicion del array aleatoria\n        uint eleccion = boletosComprados[random];\n        // Direccion del ganador de la loteria\n        ganador = ADNBoleto[eleccion];\n        // Envio del 95% del premio de loteria al ganador \n        payable(ganador).transfer(address(this).balance * 95 / 100);\n        // Envio del 5% del premio de loteria al owner \n        payable(owner()).transfer(address(this).balance * 5 / 100);\n    }\n\n}\n\n// Smart Contract de NFTs del proyecto\ncontract mainERC721 is ERC721 {\n    constructor() ERC721(\"Loteria\", \"STE\"){}\n\n    function safeMint(address _propietario, uint _boleto) public {\n        _safeMint(_propietario, _boleto);\n    }\n}\n\n// Smart Contract para la generacion de NFTs para cada boleto generado\ncontract boletosNFTs {\n\n    // Constructor del Smart Contract (hijo)\n    constructor (address _propietario, address _contratoPadre, address _contratoNFT) {\n        propietario.direccionPropietario = _propietario;\n        propietario.contratoPadre = _contratoPadre;\n        propietario.contratoNFT = _contratoNFT;\n        propietario.contratoUsuario = address(this);\n    }\n\n    // Datos relevantes del propietario del Smart Contract (hijo)\n    Owner public propietario;\n    struct Owner {\n        address direccionPropietario;\n        address contratoPadre;\n        address contratoNFT;\n        address contratoUsuario;\n    }\n\n    // Conversion de los numeros de los boletos de loteria a NFTs\n    function mintBoleto(address _propietario, uint _boleto) public {\n        mainERC721(propietario.contratoNFT).safeMint(_propietario, _boleto);\n    }   \n}",
  "sourcePath": "/Users/joan_amengual/GitHub/Bootcamp/30-DApp con React - Loteria con Tokens ERC-20 y ERC-721/src/contracts/loteria.sol",
  "compiler": {
    "name": "solc",
    "version": "0.8.4+commit.c7e474f2.Emscripten.clang"
  },
  "schemaVersion": "3.4.7",
  "updatedAt": "2022-04-26T07:21:35.096Z",
  "networkType": "ethereum",
  "devdoc": {
    "kind": "dev",
    "methods": {
      "allowance(address,address)": {
        "details": "See {IERC20-allowance}."
      },
      "approve(address,uint256)": {
        "details": "See {IERC20-approve}. NOTE: If `amount` is the maximum `uint256`, the allowance is not updated on `transferFrom`. This is semantically equivalent to an infinite approval. Requirements: - `spender` cannot be the zero address."
      },
      "balanceOf(address)": {
        "details": "See {IERC20-balanceOf}."
      },
      "decimals()": {
        "details": "Returns the number of decimals used to get its user representation. For example, if `decimals` equals `2`, a balance of `505` tokens should be displayed to a user as `5.05` (`505 / 10 ** 2`). Tokens usually opt for a value of 18, imitating the relationship between Ether and Wei. This is the value {ERC20} uses, unless this function is overridden; NOTE: This information is only used for _display_ purposes: it in no way affects any of the arithmetic of the contract, including {IERC20-balanceOf} and {IERC20-transfer}."
      },
      "decreaseAllowance(address,uint256)": {
        "details": "Atomically decreases the allowance granted to `spender` by the caller. This is an alternative to {approve} that can be used as a mitigation for problems described in {IERC20-approve}. Emits an {Approval} event indicating the updated allowance. Requirements: - `spender` cannot be the zero address. - `spender` must have allowance for the caller of at least `subtractedValue`."
      },
      "increaseAllowance(address,uint256)": {
        "details": "Atomically increases the allowance granted to `spender` by the caller. This is an alternative to {approve} that can be used as a mitigation for problems described in {IERC20-approve}. Emits an {Approval} event indicating the updated allowance. Requirements: - `spender` cannot be the zero address."
      },
      "name()": {
        "details": "Returns the name of the token."
      },
      "owner()": {
        "details": "Returns the address of the current owner."
      },
      "renounceOwnership()": {
        "details": "Leaves the contract without owner. It will not be possible to call `onlyOwner` functions anymore. Can only be called by the current owner. NOTE: Renouncing ownership will leave the contract without an owner, thereby removing any functionality that is only available to the owner."
      },
      "symbol()": {
        "details": "Returns the symbol of the token, usually a shorter version of the name."
      },
      "totalSupply()": {
        "details": "See {IERC20-totalSupply}."
      },
      "transfer(address,uint256)": {
        "details": "See {IERC20-transfer}. Requirements: - `to` cannot be the zero address. - the caller must have a balance of at least `amount`."
      },
      "transferFrom(address,address,uint256)": {
        "details": "See {IERC20-transferFrom}. Emits an {Approval} event indicating the updated allowance. This is not required by the EIP. See the note at the beginning of {ERC20}. NOTE: Does not update the allowance if the current allowance is the maximum `uint256`. Requirements: - `from` and `to` cannot be the zero address. - `from` must have a balance of at least `amount`. - the caller must have allowance for ``from``'s tokens of at least `amount`."
      },
      "transferOwnership(address)": {
        "details": "Transfers ownership of the contract to a new account (`newOwner`). Can only be called by the current owner."
      }
    },
    "version": 1
  },
  "userdoc": {
    "kind": "user",
    "methods": {},
    "version": 1
  }
}