{
  "contractName": "boletosNFTs",
  "abi": [
    {
      "inputs": [
        {
          "internalType": "address",
          "name": "_propietario",
          "type": "address"
        },
        {
          "internalType": "address",
          "name": "_contratoPadre",
          "type": "address"
        },
        {
          "internalType": "address",
          "name": "_contratoNFT",
          "type": "address"
        }
      ],
      "stateMutability": "nonpayable",
      "type": "constructor"
    },
    {
      "inputs": [],
      "name": "propietario",
      "outputs": [
        {
          "internalType": "address",
          "name": "direccionPropietario",
          "type": "address"
        },
        {
          "internalType": "address",
          "name": "contratoPadre",
          "type": "address"
        },
        {
          "internalType": "address",
          "name": "contratoNFT",
          "type": "address"
        },
        {
          "internalType": "address",
          "name": "contratoUsuario",
          "type": "address"
        }
      ],
      "stateMutability": "view",
      "type": "function"
    },
    {
      "inputs": [
        {
          "internalType": "address",
          "name": "_propietario",
          "type": "address"
        },
        {
          "internalType": "uint256",
          "name": "_boleto",
          "type": "uint256"
        }
      ],
      "name": "mintBoleto",
      "outputs": [],
      "stateMutability": "nonpayable",
      "type": "function"
    }
  ],
  "bytecode": "0x608060405234801561001057600080fd5b506040516105433803806105438339818101604052810190610032919061015e565b826000800160006101000a81548173ffffffffffffffffffffffffffffffffffffffff021916908373ffffffffffffffffffffffffffffffffffffffff16021790555081600060010160006101000a81548173ffffffffffffffffffffffffffffffffffffffff021916908373ffffffffffffffffffffffffffffffffffffffff16021790555080600060020160006101000a81548173ffffffffffffffffffffffffffffffffffffffff021916908373ffffffffffffffffffffffffffffffffffffffff16021790555030600060030160006101000a81548173ffffffffffffffffffffffffffffffffffffffff021916908373ffffffffffffffffffffffffffffffffffffffff1602179055505050506101f6565b600081519050610158816101df565b92915050565b60008060006060848603121561017357600080fd5b600061018186828701610149565b935050602061019286828701610149565b92505060406101a386828701610149565b9150509250925092565b60006101b8826101bf565b9050919050565b600073ffffffffffffffffffffffffffffffffffffffff82169050919050565b6101e8816101ad565b81146101f357600080fd5b50565b61033e806102056000396000f3fe608060405234801561001057600080fd5b50600436106100365760003560e01c8063120e85231461003b5780633c4f81cd14610057575b600080fd5b610055600480360381019061005091906101d6565b610078565b005b61005f61010e565b60405161006f9493929190610230565b60405180910390f35b600060020160009054906101000a900473ffffffffffffffffffffffffffffffffffffffff1673ffffffffffffffffffffffffffffffffffffffff1663a144819483836040518363ffffffff1660e01b81526004016100d8929190610275565b600060405180830381600087803b1580156100f257600080fd5b505af1158015610106573d6000803e3d6000fd5b505050505050565b60008060000160009054906101000a900473ffffffffffffffffffffffffffffffffffffffff16908060010160009054906101000a900473ffffffffffffffffffffffffffffffffffffffff16908060020160009054906101000a900473ffffffffffffffffffffffffffffffffffffffff16908060030160009054906101000a900473ffffffffffffffffffffffffffffffffffffffff16905084565b6000813590506101bb816102da565b92915050565b6000813590506101d0816102f1565b92915050565b600080604083850312156101e957600080fd5b60006101f7858286016101ac565b9250506020610208858286016101c1565b9150509250929050565b61021b8161029e565b82525050565b61022a816102d0565b82525050565b60006080820190506102456000830187610212565b6102526020830186610212565b61025f6040830185610212565b61026c6060830184610212565b95945050505050565b600060408201905061028a6000830185610212565b6102976020830184610221565b9392505050565b60006102a9826102b0565b9050919050565b600073ffffffffffffffffffffffffffffffffffffffff82169050919050565b6000819050919050565b6102e38161029e565b81146102ee57600080fd5b50565b6102fa816102d0565b811461030557600080fd5b5056fea264697066735822122052f7e058b1e3cc088a6c5aa77e3656fc256f745645aeaced74e6936e200b745364736f6c63430008040033",
  "immutableReferences": {},
  "source": "// SPDX-License-Identifier: MIT\npragma solidity ^0.8.4;\nimport \"@openzeppelin/contracts/token/ERC20/ERC20.sol\";\nimport \"@openzeppelin/contracts/access/Ownable.sol\";\nimport \"@openzeppelin/contracts/token/ERC721/ERC721.sol\";\n\ncontract loteria is ERC20, Ownable {\n    \n    // ============================================\n    // Gestion de los tokens\n    // ============================================  \n    \n    // Direccion del contrato NFT del proyecto\n    address public nft;\n\n    // Constructor \n    constructor () ERC20(\"Loteria\", \"JA\") {\n        _mint(address(this), 1000);\n        nft = address(new mainERC721());\n    }\n\n    // Ganador del premio de la loteria\n    address public ganador;\n\n   // Precio de los tokens del proyecto\n    function precioTokens(uint256 _numTokens) internal pure returns (uint256){\n        return _numTokens * (1 ether);\n    }\n\n    // Visualizacion del balance de tokens de una persona\n    function balanceTokens(address _account) public view returns (uint256){ \n        return balanceOf(_account);\n    }\n\n    // Visualizacion del balance de tokens del Smart Contract\n    function balanceTokensSC() public view returns (uint256){ \n        return balanceOf(address(this));\n    }\n\n    // Visualizacion del balance de ethers del Smart Contract\n    function balanceEthersSC() public view returns (uint256){\n        return address(this).balance / 10**18;\n    }    \n\n    // Nuevos tokens erc-20\n    function mint(uint256 _cantidad) public onlyOwner {\n        _mint(address(this), _cantidad);\n    }    \n\n    // Registro del usuario \n    mapping (address => address) public usuario_contract;\n    function registrar() internal {\n        address addr_personal_contract = address(new boletosNFTs(msg.sender, address(this), nft)); \n        usuario_contract[msg.sender] = addr_personal_contract;\n    } \n\n    // Compra de tokens \n    function compraTokens(uint256 _numTokens) public payable {\n        if(usuario_contract[msg.sender] == address(0)){\n            registrar();\n        }\n        // Establecimiento del coste de los tokens a comprar\n        uint256 coste = precioTokens(_numTokens);\n        // Evaluacion del dinero que el cliente paga por los tokens\n        require(msg.value >= coste, \"Compra menos tokens o paga con mas ethers\");\n        // Obtencion del numero de tokens disponibles en el Smart Contract\n        uint256 balance = balanceTokens(address(this));\n        require(_numTokens <= balance, \"Compra un numero menor de tokens.\");\n        //  El returnValue se define como lo que paga el cliente menos lo que vale el producto\n        uint256 returnValue = msg.value - coste;\n        // El Smart Contract devuelve la cantidad restante al cliente\n        payable(msg.sender).transfer(returnValue);\n        // El numero de tokens comprados se transfiere al cliente \n        _transfer(address(this), msg.sender, _numTokens);\n    }\n\n    // Devolucion de los tokens al Smart Contract \n    function devolverTokens(uint _numTokens) public payable {\n        // El numero de tokens a devolver debe ser mayor a 0 \n        require(_numTokens > 0 , \"Necesitas devolver un numero positivo de tokens.\");\n        // El usuario debe tener los tokens que desea devolver \n        require (_numTokens <= balanceTokens(msg.sender), \"No tienes los tokens que deseas devolver.\");\n        // El usuario transfiere los tokens al Smart Contract\n        _transfer(msg.sender, address(this), _numTokens);\n        // El Smart Contract envia los ethers al usuario\n        payable(msg.sender).transfer(precioTokens(_numTokens));\n    }\n\n    // ============================================\n    // Gestion de la loteria\n    // ============================================\n    \n    // Precio del boleto de loteria (en tokens) \n    uint public precioBoleto = 5;\n    // Relacion: persona que compra los boletos -> el numero de los boletos\n    mapping (address => uint []) idPersona_boletos;\n    // Relacion: boleto -> ganador\n    mapping (uint => address) ADNBoleto;\n    // Numero aleatorio\n    uint randNonce = 0;\n    // Boletos de la loteria generados \n    uint [] boletosComprados;    \n    \n    // Compra de boletos de loteria\n    function compraBoleto(uint _numBoletos) public {\n        // Precio total de los boletos a comprar\n        uint precioTotal = _numBoletos*precioBoleto;\n        // Verificacion de los tokens del usuario\n        require (precioTotal <= balanceTokens(msg.sender), \"Necesitas comprar mas tokens.\");\n        // Transferencia de tokens del usuario al Smart Contract\n        _transfer(msg.sender, address(this), precioTotal);\n        /* Recoge la marca de tiempo (block.timestamp), msg.sender y un Nonce\n        (un numero que solo se utiliza una vez, para que no ejecutemos dos veces la misma \n        funcion de hash con los mismos parametros de entrada) en incremento.\n        Se utiliza 'keccak256 'para convertir estas entradas a un hash aleatorio, \n        convertir ese hash a un uint y luego utilizamos % 10000 para tomar los ultimos 4 digitos,\n        dando un valor aleatorio entre 0 - 9999. */\n        for (uint i = 0; i < _numBoletos; i++) {\n            uint random = uint(keccak256(abi.encodePacked(block.timestamp, msg.sender, randNonce))) % 10000;\n            randNonce++;\n            // Almacenamiento de los datos de los boletos de loteria\n            idPersona_boletos[msg.sender].push(random);\n            // Numero del boleto comprado\n            boletosComprados.push(random);\n            // Asignacion del ADN del boleto para la generacion de un ganador \n            ADNBoleto[random] = msg.sender;\n            // Creacion de un nuevo NFT para el numero de boleto\n            boletosNFTs(usuario_contract[msg.sender]).mintBoleto(msg.sender, random);\n        }\n        \n    }\n    \n    // Visualizacion de los boletos del usuario\n    function tusBoletos(address _propietario) public view returns (uint [] memory){\n        return idPersona_boletos[_propietario];\n    }\n\n    // Generacion del ganador de la loteria\n    function generarGanador() public onlyOwner {\n        // Verificacion de la compra de mas 1 boleto o mas\n        require(boletosComprados.length > 0, \"No hay boletos comprados\");\n        // Declaracion de la longitud del array \n        uint longitud = boletosComprados.length;\n        // Eleccion aleatoria de un numero entre: [0 - Longitud]\n        uint random = uint(uint(keccak256(abi.encodePacked(block.timestamp))) % longitud);\n        // Seleccion del numero aleatorio mediante la posicion del array aleatoria\n        uint eleccion = boletosComprados[random];\n        // Direccion del ganador de la loteria\n        ganador = ADNBoleto[eleccion];\n        // Envio del 95% del premio de loteria al ganador \n        payable(ganador).transfer(address(this).balance * 95 / 100);\n        // Envio del 5% del premio de loteria al owner \n        payable(owner()).transfer(address(this).balance * 5 / 100);\n    }\n\n}\n\n// Smart Contract de NFTs del proyecto\ncontract mainERC721 is ERC721 {\n    constructor() ERC721(\"Loteria\", \"STE\"){}\n\n    function safeMint(address _propietario, uint _boleto) public {\n        _safeMint(_propietario, _boleto);\n    }\n}\n\n// Smart Contract para la generacion de NFTs para cada boleto generado\ncontract boletosNFTs {\n\n    // Constructor del Smart Contract (hijo)\n    constructor (address _propietario, address _contratoPadre, address _contratoNFT) {\n        propietario.direccionPropietario = _propietario;\n        propietario.contratoPadre = _contratoPadre;\n        propietario.contratoNFT = _contratoNFT;\n        propietario.contratoUsuario = address(this);\n    }\n\n    // Datos relevantes del propietario del Smart Contract (hijo)\n    Owner public propietario;\n    struct Owner {\n        address direccionPropietario;\n        address contratoPadre;\n        address contratoNFT;\n        address contratoUsuario;\n    }\n\n    // Conversion de los numeros de los boletos de loteria a NFTs\n    function mintBoleto(address _propietario, uint _boleto) public {\n        mainERC721(propietario.contratoNFT).safeMint(_propietario, _boleto);\n    }   \n}",
  "sourcePath": "/Users/joan_amengual/GitHub/Bootcamp/30 - DApp con React - Loteria con Tokens ERC-20 y ERC-721/src/contracts/loteria.sol",
  "compiler": {
    "name": "solc",
    "version": "0.8.4+commit.c7e474f2.Emscripten.clang"
  },
  "schemaVersion": "3.4.7",
  "updatedAt": "2022-04-23T20:28:25.880Z",
  "devdoc": {
    "kind": "dev",
    "methods": {},
    "version": 1
  },
  "userdoc": {
    "kind": "user",
    "methods": {},
    "version": 1
  }
}