{
  "_format": "hh-sol-artifact-1",
  "contractName": "Marketplace",
  "sourceName": "src/backend/contracts/Marketplace.sol",
  "abi": [
    {
      "inputs": [
        {
          "internalType": "uint256",
          "name": "_feePercent",
          "type": "uint256"
        }
      ],
      "stateMutability": "nonpayable",
      "type": "constructor"
    },
    {
      "anonymous": false,
      "inputs": [
        {
          "indexed": false,
          "internalType": "uint256",
          "name": "itemId",
          "type": "uint256"
        },
        {
          "indexed": true,
          "internalType": "address",
          "name": "nft",
          "type": "address"
        },
        {
          "indexed": false,
          "internalType": "uint256",
          "name": "tokenId",
          "type": "uint256"
        },
        {
          "indexed": false,
          "internalType": "uint256",
          "name": "price",
          "type": "uint256"
        },
        {
          "indexed": true,
          "internalType": "address",
          "name": "seller",
          "type": "address"
        },
        {
          "indexed": true,
          "internalType": "address",
          "name": "buyer",
          "type": "address"
        }
      ],
      "name": "Bought",
      "type": "event"
    },
    {
      "anonymous": false,
      "inputs": [
        {
          "indexed": false,
          "internalType": "uint256",
          "name": "itemId",
          "type": "uint256"
        },
        {
          "indexed": true,
          "internalType": "address",
          "name": "nft",
          "type": "address"
        },
        {
          "indexed": false,
          "internalType": "uint256",
          "name": "tokenId",
          "type": "uint256"
        },
        {
          "indexed": false,
          "internalType": "uint256",
          "name": "price",
          "type": "uint256"
        },
        {
          "indexed": true,
          "internalType": "address",
          "name": "seller",
          "type": "address"
        }
      ],
      "name": "Offered",
      "type": "event"
    },
    {
      "inputs": [],
      "name": "feeAccount",
      "outputs": [
        {
          "internalType": "address payable",
          "name": "",
          "type": "address"
        }
      ],
      "stateMutability": "view",
      "type": "function"
    },
    {
      "inputs": [],
      "name": "feePercent",
      "outputs": [
        {
          "internalType": "uint256",
          "name": "",
          "type": "uint256"
        }
      ],
      "stateMutability": "view",
      "type": "function"
    },
    {
      "inputs": [
        {
          "internalType": "uint256",
          "name": "_itemId",
          "type": "uint256"
        }
      ],
      "name": "getTotalPrice",
      "outputs": [
        {
          "internalType": "uint256",
          "name": "",
          "type": "uint256"
        }
      ],
      "stateMutability": "view",
      "type": "function"
    },
    {
      "inputs": [],
      "name": "itemCount",
      "outputs": [
        {
          "internalType": "uint256",
          "name": "",
          "type": "uint256"
        }
      ],
      "stateMutability": "view",
      "type": "function"
    },
    {
      "inputs": [
        {
          "internalType": "uint256",
          "name": "",
          "type": "uint256"
        }
      ],
      "name": "items",
      "outputs": [
        {
          "internalType": "uint256",
          "name": "itemId",
          "type": "uint256"
        },
        {
          "internalType": "contract IERC721",
          "name": "nft",
          "type": "address"
        },
        {
          "internalType": "uint256",
          "name": "tokenId",
          "type": "uint256"
        },
        {
          "internalType": "uint256",
          "name": "price",
          "type": "uint256"
        },
        {
          "internalType": "address payable",
          "name": "seller",
          "type": "address"
        },
        {
          "internalType": "bool",
          "name": "sold",
          "type": "bool"
        }
      ],
      "stateMutability": "view",
      "type": "function"
    },
    {
      "inputs": [
        {
          "internalType": "contract IERC721",
          "name": "_nft",
          "type": "address"
        },
        {
          "internalType": "uint256",
          "name": "_tokenId",
          "type": "uint256"
        },
        {
          "internalType": "uint256",
          "name": "_price",
          "type": "uint256"
        }
      ],
      "name": "makeItem",
      "outputs": [],
      "stateMutability": "nonpayable",
      "type": "function"
    },
    {
      "inputs": [
        {
          "internalType": "uint256",
          "name": "_itemId",
          "type": "uint256"
        }
      ],
      "name": "purchaseItem",
      "outputs": [],
      "stateMutability": "payable",
      "type": "function"
    }
  ],
  "bytecode": "0x60c060405234801561001057600080fd5b50604051610f91380380610f9183398181016040528101906100329190610094565b60016000819055503373ffffffffffffffffffffffffffffffffffffffff1660808173ffffffffffffffffffffffffffffffffffffffff1660601b815250508060a08181525050506100de565b60008151905061008e816100c7565b92915050565b6000602082840312156100a657600080fd5b60006100b48482850161007f565b91505092915050565b6000819050919050565b6100d0816100bd565b81146100db57600080fd5b50565b60805160601c60a051610e7d610114600039600081816101e601526102970152600081816101bc015261041b0152610e7d6000f3fe6080604052600436106100705760003560e01c8063bfb231d21161004e578063bfb231d2146100f6578063ca7dd37514610138578063d38ea5bf14610175578063fa00afc71461019157610070565b806365e17c9d146100755780636bfb0d01146100a05780637fd6f15c146100cb575b600080fd5b34801561008157600080fd5b5061008a6101ba565b6040516100979190610a25565b60405180910390f35b3480156100ac57600080fd5b506100b56101de565b6040516100c29190610ab7565b60405180910390f35b3480156100d757600080fd5b506100e06101e4565b6040516100ed9190610ab7565b60405180910390f35b34801561010257600080fd5b5061011d6004803603810190610118919061096b565b610208565b60405161012f96959493929190610ad2565b60405180910390f35b34801561014457600080fd5b5061015f600480360381019061015a919061096b565b610291565b60405161016c9190610ab7565b60405180910390f35b61018f600480360381019061018a919061096b565b6102f4565b005b34801561019d57600080fd5b506101b860048036038101906101b3919061091c565b610620565b005b7f000000000000000000000000000000000000000000000000000000000000000081565b60015481565b7f000000000000000000000000000000000000000000000000000000000000000081565b60026020528060005260406000206000915090508060000154908060010160009054906101000a900473ffffffffffffffffffffffffffffffffffffffff16908060020154908060030154908060040160009054906101000a900473ffffffffffffffffffffffffffffffffffffffff16908060040160149054906101000a900460ff16905086565b600060647f000000000000000000000000000000000000000000000000000000000000000060646102c29190610b7b565b60026000858152602001908152602001600020600301546102e39190610c02565b6102ed9190610bd1565b9050919050565b6002600054141561033a576040517f08c379a000000000000000000000000000000000000000000000000000000000815260040161033190610a97565b60405180910390fd5b6002600081905550600061034d82610291565b9050600060026000848152602001908152602001600020905060008311801561037857506001548311155b61038157600080fd5b8134101561038e57600080fd5b8060040160149054906101000a900460ff16156103aa57600080fd5b8060040160009054906101000a900473ffffffffffffffffffffffffffffffffffffffff1673ffffffffffffffffffffffffffffffffffffffff166108fc82600301549081150290604051600060405180830381858888f19350505050158015610418573d6000803e3d6000fd5b507f000000000000000000000000000000000000000000000000000000000000000073ffffffffffffffffffffffffffffffffffffffff166108fc8260030154846104639190610c5c565b9081150290604051600060405180830381858888f1935050505015801561048e573d6000803e3d6000fd5b5060018160040160146101000a81548160ff0219169083151502179055508060010160009054906101000a900473ffffffffffffffffffffffffffffffffffffffff1673ffffffffffffffffffffffffffffffffffffffff166323b872dd303384600201546040518463ffffffff1660e01b815260040161051193929190610a40565b600060405180830381600087803b15801561052b57600080fd5b505af115801561053f573d6000803e3d6000fd5b505050503373ffffffffffffffffffffffffffffffffffffffff168160040160009054906101000a900473ffffffffffffffffffffffffffffffffffffffff1673ffffffffffffffffffffffffffffffffffffffff168260010160009054906101000a900473ffffffffffffffffffffffffffffffffffffffff1673ffffffffffffffffffffffffffffffffffffffff167f8b4c9c8a607d67b321582dd8461041b1dc2ceeca70c8b7f37f8e02095cf2e76d868560020154866003015460405161060b93929190610b33565b60405180910390a45050600160008190555050565b60026000541415610666576040517f08c379a000000000000000000000000000000000000000000000000000000000815260040161065d90610a97565b60405180910390fd5b6002600081905550600081116106b1576040517f08c379a00000000000000000000000000000000000000000000000000000000081526004016106a890610a77565b60405180910390fd5b600160008154809291906106c490610d20565b91905055508273ffffffffffffffffffffffffffffffffffffffff166323b872dd3330856040518463ffffffff1660e01b815260040161070693929190610a40565b600060405180830381600087803b15801561072057600080fd5b505af1158015610734573d6000803e3d6000fd5b505050506040518060c0016040528060015481526020018473ffffffffffffffffffffffffffffffffffffffff1681526020018381526020018281526020013373ffffffffffffffffffffffffffffffffffffffff168152602001600015158152506002600060015481526020019081526020016000206000820151816000015560208201518160010160006101000a81548173ffffffffffffffffffffffffffffffffffffffff021916908373ffffffffffffffffffffffffffffffffffffffff160217905550604082015181600201556060820151816003015560808201518160040160006101000a81548173ffffffffffffffffffffffffffffffffffffffff021916908373ffffffffffffffffffffffffffffffffffffffff16021790555060a08201518160040160146101000a81548160ff0219169083151502179055509050503373ffffffffffffffffffffffffffffffffffffffff168373ffffffffffffffffffffffffffffffffffffffff167f655a0cf9c8db81512be9a76dc1c5ae5380b8816ce6ad659cd61b715e2999d59a60015485856040516108dd93929190610b33565b60405180910390a36001600081905550505050565b60008135905061090181610e19565b92915050565b60008135905061091681610e30565b92915050565b60008060006060848603121561093157600080fd5b600061093f868287016108f2565b935050602061095086828701610907565b925050604061096186828701610907565b9150509250925092565b60006020828403121561097d57600080fd5b600061098b84828501610907565b91505092915050565b61099d81610ca2565b82525050565b6109ac81610c90565b82525050565b6109bb81610cb4565b82525050565b6109ca81610cfc565b82525050565b60006109dd601f83610b6a565b91506109e882610dc7565b602082019050919050565b6000610a00601f83610b6a565b9150610a0b82610df0565b602082019050919050565b610a1f81610cf2565b82525050565b6000602082019050610a3a6000830184610994565b92915050565b6000606082019050610a5560008301866109a3565b610a6260208301856109a3565b610a6f6040830184610a16565b949350505050565b60006020820190508181036000830152610a90816109d0565b9050919050565b60006020820190508181036000830152610ab0816109f3565b9050919050565b6000602082019050610acc6000830184610a16565b92915050565b600060c082019050610ae76000830189610a16565b610af460208301886109c1565b610b016040830187610a16565b610b0e6060830186610a16565b610b1b6080830185610994565b610b2860a08301846109b2565b979650505050505050565b6000606082019050610b486000830186610a16565b610b556020830185610a16565b610b626040830184610a16565b949350505050565b600082825260208201905092915050565b6000610b8682610cf2565b9150610b9183610cf2565b9250827fffffffffffffffffffffffffffffffffffffffffffffffffffffffffffffffff03821115610bc657610bc5610d69565b5b828201905092915050565b6000610bdc82610cf2565b9150610be783610cf2565b925082610bf757610bf6610d98565b5b828204905092915050565b6000610c0d82610cf2565b9150610c1883610cf2565b9250817fffffffffffffffffffffffffffffffffffffffffffffffffffffffffffffffff0483118215151615610c5157610c50610d69565b5b828202905092915050565b6000610c6782610cf2565b9150610c7283610cf2565b925082821015610c8557610c84610d69565b5b828203905092915050565b6000610c9b82610cd2565b9050919050565b6000610cad82610cd2565b9050919050565b60008115159050919050565b6000610ccb82610c90565b9050919050565b600073ffffffffffffffffffffffffffffffffffffffff82169050919050565b6000819050919050565b6000610d0782610d0e565b9050919050565b6000610d1982610cd2565b9050919050565b6000610d2b82610cf2565b91507fffffffffffffffffffffffffffffffffffffffffffffffffffffffffffffffff821415610d5e57610d5d610d69565b5b600182019050919050565b7f4e487b7100000000000000000000000000000000000000000000000000000000600052601160045260246000fd5b7f4e487b7100000000000000000000000000000000000000000000000000000000600052601260045260246000fd5b7f5072696365206d7573742062652067726561746572207468616e207a65726f00600082015250565b7f5265656e7472616e637947756172643a207265656e7472616e742063616c6c00600082015250565b610e2281610cc0565b8114610e2d57600080fd5b50565b610e3981610cf2565b8114610e4457600080fd5b5056fea2646970667358221220a0018ef4697db69f215539a1b039bc3c37a6cbbf2e739333662321d356994bbf64736f6c63430008040033",
  "linkReferences": {},
  "deployedLinkReferences": {}
}