{
  "contractName": "loteria",
  "abi": [
    {
      "inputs": [],
      "stateMutability": "nonpayable",
      "type": "constructor"
    },
    {
      "anonymous": false,
      "inputs": [
        {
          "indexed": true,
          "internalType": "address",
          "name": "owner",
          "type": "address"
        },
        {
          "indexed": true,
          "internalType": "address",
          "name": "spender",
          "type": "address"
        },
        {
          "indexed": false,
          "internalType": "uint256",
          "name": "value",
          "type": "uint256"
        }
      ],
      "name": "Approval",
      "type": "event"
    },
    {
      "anonymous": false,
      "inputs": [
        {
          "indexed": true,
          "internalType": "address",
          "name": "previousOwner",
          "type": "address"
        },
        {
          "indexed": true,
          "internalType": "address",
          "name": "newOwner",
          "type": "address"
        }
      ],
      "name": "OwnershipTransferred",
      "type": "event"
    },
    {
      "anonymous": false,
      "inputs": [
        {
          "indexed": true,
          "internalType": "address",
          "name": "from",
          "type": "address"
        },
        {
          "indexed": true,
          "internalType": "address",
          "name": "to",
          "type": "address"
        },
        {
          "indexed": false,
          "internalType": "uint256",
          "name": "value",
          "type": "uint256"
        }
      ],
      "name": "Transfer",
      "type": "event"
    },
    {
      "inputs": [
        {
          "internalType": "address",
          "name": "owner",
          "type": "address"
        },
        {
          "internalType": "address",
          "name": "spender",
          "type": "address"
        }
      ],
      "name": "allowance",
      "outputs": [
        {
          "internalType": "uint256",
          "name": "",
          "type": "uint256"
        }
      ],
      "stateMutability": "view",
      "type": "function",
      "constant": true
    },
    {
      "inputs": [
        {
          "internalType": "address",
          "name": "spender",
          "type": "address"
        },
        {
          "internalType": "uint256",
          "name": "amount",
          "type": "uint256"
        }
      ],
      "name": "approve",
      "outputs": [
        {
          "internalType": "bool",
          "name": "",
          "type": "bool"
        }
      ],
      "stateMutability": "nonpayable",
      "type": "function"
    },
    {
      "inputs": [
        {
          "internalType": "address",
          "name": "account",
          "type": "address"
        }
      ],
      "name": "balanceOf",
      "outputs": [
        {
          "internalType": "uint256",
          "name": "",
          "type": "uint256"
        }
      ],
      "stateMutability": "view",
      "type": "function",
      "constant": true
    },
    {
      "inputs": [],
      "name": "decimals",
      "outputs": [
        {
          "internalType": "uint8",
          "name": "",
          "type": "uint8"
        }
      ],
      "stateMutability": "view",
      "type": "function",
      "constant": true
    },
    {
      "inputs": [
        {
          "internalType": "address",
          "name": "spender",
          "type": "address"
        },
        {
          "internalType": "uint256",
          "name": "subtractedValue",
          "type": "uint256"
        }
      ],
      "name": "decreaseAllowance",
      "outputs": [
        {
          "internalType": "bool",
          "name": "",
          "type": "bool"
        }
      ],
      "stateMutability": "nonpayable",
      "type": "function"
    },
    {
      "inputs": [],
      "name": "ganador",
      "outputs": [
        {
          "internalType": "address",
          "name": "",
          "type": "address"
        }
      ],
      "stateMutability": "view",
      "type": "function",
      "constant": true
    },
    {
      "inputs": [
        {
          "internalType": "address",
          "name": "spender",
          "type": "address"
        },
        {
          "internalType": "uint256",
          "name": "addedValue",
          "type": "uint256"
        }
      ],
      "name": "increaseAllowance",
      "outputs": [
        {
          "internalType": "bool",
          "name": "",
          "type": "bool"
        }
      ],
      "stateMutability": "nonpayable",
      "type": "function"
    },
    {
      "inputs": [],
      "name": "name",
      "outputs": [
        {
          "internalType": "string",
          "name": "",
          "type": "string"
        }
      ],
      "stateMutability": "view",
      "type": "function",
      "constant": true
    },
    {
      "inputs": [],
      "name": "owner",
      "outputs": [
        {
          "internalType": "address",
          "name": "",
          "type": "address"
        }
      ],
      "stateMutability": "view",
      "type": "function",
      "constant": true
    },
    {
      "inputs": [],
      "name": "precioBoleto",
      "outputs": [
        {
          "internalType": "uint256",
          "name": "",
          "type": "uint256"
        }
      ],
      "stateMutability": "view",
      "type": "function",
      "constant": true
    },
    {
      "inputs": [],
      "name": "renounceOwnership",
      "outputs": [],
      "stateMutability": "nonpayable",
      "type": "function"
    },
    {
      "inputs": [],
      "name": "symbol",
      "outputs": [
        {
          "internalType": "string",
          "name": "",
          "type": "string"
        }
      ],
      "stateMutability": "view",
      "type": "function",
      "constant": true
    },
    {
      "inputs": [],
      "name": "totalSupply",
      "outputs": [
        {
          "internalType": "uint256",
          "name": "",
          "type": "uint256"
        }
      ],
      "stateMutability": "view",
      "type": "function",
      "constant": true
    },
    {
      "inputs": [
        {
          "internalType": "address",
          "name": "to",
          "type": "address"
        },
        {
          "internalType": "uint256",
          "name": "amount",
          "type": "uint256"
        }
      ],
      "name": "transfer",
      "outputs": [
        {
          "internalType": "bool",
          "name": "",
          "type": "bool"
        }
      ],
      "stateMutability": "nonpayable",
      "type": "function"
    },
    {
      "inputs": [
        {
          "internalType": "address",
          "name": "from",
          "type": "address"
        },
        {
          "internalType": "address",
          "name": "to",
          "type": "address"
        },
        {
          "internalType": "uint256",
          "name": "amount",
          "type": "uint256"
        }
      ],
      "name": "transferFrom",
      "outputs": [
        {
          "internalType": "bool",
          "name": "",
          "type": "bool"
        }
      ],
      "stateMutability": "nonpayable",
      "type": "function"
    },
    {
      "inputs": [
        {
          "internalType": "address",
          "name": "newOwner",
          "type": "address"
        }
      ],
      "name": "transferOwnership",
      "outputs": [],
      "stateMutability": "nonpayable",
      "type": "function"
    },
    {
      "inputs": [
        {
          "internalType": "address",
          "name": "_account",
          "type": "address"
        }
      ],
      "name": "balanceTokens",
      "outputs": [
        {
          "internalType": "uint256",
          "name": "",
          "type": "uint256"
        }
      ],
      "stateMutability": "view",
      "type": "function",
      "constant": true
    },
    {
      "inputs": [],
      "name": "balanceTokensSC",
      "outputs": [
        {
          "internalType": "uint256",
          "name": "",
          "type": "uint256"
        }
      ],
      "stateMutability": "view",
      "type": "function",
      "constant": true
    },
    {
      "inputs": [],
      "name": "balanceEthersSC",
      "outputs": [
        {
          "internalType": "uint256",
          "name": "",
          "type": "uint256"
        }
      ],
      "stateMutability": "view",
      "type": "function",
      "constant": true
    },
    {
      "inputs": [
        {
          "internalType": "uint256",
          "name": "_cantidad",
          "type": "uint256"
        }
      ],
      "name": "mint",
      "outputs": [],
      "stateMutability": "nonpayable",
      "type": "function"
    },
    {
      "inputs": [
        {
          "internalType": "uint256",
          "name": "_numTokens",
          "type": "uint256"
        }
      ],
      "name": "compraTokens",
      "outputs": [],
      "stateMutability": "payable",
      "type": "function",
      "payable": true
    },
    {
      "inputs": [
        {
          "internalType": "uint256",
          "name": "_numBoletos",
          "type": "uint256"
        }
      ],
      "name": "compraBoleto",
      "outputs": [],
      "stateMutability": "nonpayable",
      "type": "function"
    },
    {
      "inputs": [],
      "name": "tusBoletos",
      "outputs": [
        {
          "internalType": "uint256[]",
          "name": "",
          "type": "uint256[]"
        }
      ],
      "stateMutability": "view",
      "type": "function",
      "constant": true
    },
    {
      "inputs": [],
      "name": "generarGanador",
      "outputs": [],
      "stateMutability": "nonpayable",
      "type": "function"
    },
    {
      "inputs": [
        {
          "internalType": "uint256",
          "name": "_numTokens",
          "type": "uint256"
        }
      ],
      "name": "devolverTokens",
      "outputs": [],
      "stateMutability": "payable",
      "type": "function",
      "payable": true
    }
  ],
  "bytecode": "0x608060405260056007556000600a553480156200001b57600080fd5b506040518060400160405280600781526020017f4c6f7465726961000000000000000000000000000000000000000000000000008152506040518060400160405280600281526020017f4a410000000000000000000000000000000000000000000000000000000000008152508160039080519060200190620000a092919062000347565b508060049080519060200190620000b992919062000347565b505050620000dc620000d0620000f660201b60201c565b620000fe60201b60201c565b620000f0306103e8620001c460201b60201c565b620005a3565b600033905090565b6000600560009054906101000a900473ffffffffffffffffffffffffffffffffffffffff16905081600560006101000a81548173ffffffffffffffffffffffffffffffffffffffff021916908373ffffffffffffffffffffffffffffffffffffffff1602179055508173ffffffffffffffffffffffffffffffffffffffff168173ffffffffffffffffffffffffffffffffffffffff167f8be0079c531659141344cd1fd0a4f28419497f9722a3daafe3b4186f6b6457e060405160405180910390a35050565b600073ffffffffffffffffffffffffffffffffffffffff168273ffffffffffffffffffffffffffffffffffffffff16141562000237576040517f08c379a00000000000000000000000000000000000000000000000000000000081526004016200022e906200042f565b60405180910390fd5b6200024b600083836200033d60201b60201c565b80600260008282546200025f91906200047f565b92505081905550806000808473ffffffffffffffffffffffffffffffffffffffff1673ffffffffffffffffffffffffffffffffffffffff1681526020019081526020016000206000828254620002b691906200047f565b925050819055508173ffffffffffffffffffffffffffffffffffffffff16600073ffffffffffffffffffffffffffffffffffffffff167fddf252ad1be2c89b69c2b068fc378daa952ba7f163c4a11628f55a4df523b3ef836040516200031d919062000451565b60405180910390a362000339600083836200034260201b60201c565b5050565b505050565b505050565b8280546200035590620004e6565b90600052602060002090601f016020900481019282620003795760008555620003c5565b82601f106200039457805160ff1916838001178555620003c5565b82800160010185558215620003c5579182015b82811115620003c4578251825591602001919060010190620003a7565b5b509050620003d49190620003d8565b5090565b5b80821115620003f3576000816000905550600101620003d9565b5090565b600062000406601f836200046e565b915062000413826200057a565b602082019050919050565b6200042981620004dc565b82525050565b600060208201905081810360008301526200044a81620003f7565b9050919050565b60006020820190506200046860008301846200041e565b92915050565b600082825260208201905092915050565b60006200048c82620004dc565b91506200049983620004dc565b9250827fffffffffffffffffffffffffffffffffffffffffffffffffffffffffffffffff03821115620004d157620004d06200051c565b5b828201905092915050565b6000819050919050565b60006002820490506001821680620004ff57607f821691505b602082108114156200051657620005156200054b565b5b50919050565b7f4e487b7100000000000000000000000000000000000000000000000000000000600052601160045260246000fd5b7f4e487b7100000000000000000000000000000000000000000000000000000000600052602260045260246000fd5b7f45524332303a206d696e7420746f20746865207a65726f206164647265737300600082015250565b6129c880620005b36000396000f3fe6080604052600436106101665760003560e01c80639114bde8116100d1578063b934c3841161008a578063e51c9bdf11610064578063e51c9bdf14610528578063ee5ade8314610551578063f2fde38b1461057c578063f9b4527a146105a557610166565b8063b934c384146104a4578063c29dd7c9146104cf578063dd62ed3e146104eb57610166565b80639114bde81461038057806392ef10d8146103ab57806395d89b41146103d6578063a0712d6814610401578063a457c2d71461042a578063a9059cbb1461046757610166565b8063395093511161012357806339509351146102825780636b6bf01d146102bf57806370a08231146102ea578063715018a61461032757806389e25c281461033e5780638da5cb5b1461035557610166565b806306fdde031461016b578063095ea7b31461019657806318160ddd146101d357806323b872dd146101fe5780632e95161c1461023b578063313ce56714610257575b600080fd5b34801561017757600080fd5b506101806105e2565b60405161018d9190611f63565b60405180910390f35b3480156101a257600080fd5b506101bd60048036038101906101b89190611af6565b610674565b6040516101ca9190611f48565b60405180910390f35b3480156101df57600080fd5b506101e8610697565b6040516101f59190612185565b60405180910390f35b34801561020a57600080fd5b5061022560048036038101906102209190611aa7565b6106a1565b6040516102329190611f48565b60405180910390f35b61025560048036038101906102509190611b32565b6106d0565b005b34801561026357600080fd5b5061026c6107bb565b60405161027991906121a0565b60405180910390f35b34801561028e57600080fd5b506102a960048036038101906102a49190611af6565b6107c4565b6040516102b69190611f48565b60405180910390f35b3480156102cb57600080fd5b506102d461086e565b6040516102e19190611f26565b60405180910390f35b3480156102f657600080fd5b50610311600480360381019061030c9190611a42565b610903565b60405161031e9190612185565b60405180910390f35b34801561033357600080fd5b5061033c61094b565b005b34801561034a57600080fd5b506103536109d3565b005b34801561036157600080fd5b5061036a610be3565b6040516103779190611f0b565b60405180910390f35b34801561038c57600080fd5b50610395610c0d565b6040516103a29190611f0b565b60405180910390f35b3480156103b757600080fd5b506103c0610c33565b6040516103cd9190612185565b60405180910390f35b3480156103e257600080fd5b506103eb610c43565b6040516103f89190611f63565b60405180910390f35b34801561040d57600080fd5b5061042860048036038101906104239190611b32565b610cd5565b005b34801561043657600080fd5b50610451600480360381019061044c9190611af6565b610d5e565b60405161045e9190611f48565b60405180910390f35b34801561047357600080fd5b5061048e60048036038101906104899190611af6565b610e48565b60405161049b9190611f48565b60405180910390f35b3480156104b057600080fd5b506104b9610e6b565b6040516104c69190612185565b60405180910390f35b6104e960048036038101906104e49190611b32565b610e86565b005b3480156104f757600080fd5b50610512600480360381019061050d9190611a6b565b610f8e565b60405161051f9190612185565b60405180910390f35b34801561053457600080fd5b5061054f600480360381019061054a9190611b32565b611015565b005b34801561055d57600080fd5b506105666111db565b6040516105739190612185565b60405180910390f35b34801561058857600080fd5b506105a3600480360381019061059e9190611a42565b6111e1565b005b3480156105b157600080fd5b506105cc60048036038101906105c79190611a42565b6112d9565b6040516105d99190612185565b60405180910390f35b6060600380546105f1906123ad565b80601f016020809104026020016040519081016040528092919081815260200182805461061d906123ad565b801561066a5780601f1061063f5761010080835404028352916020019161066a565b820191906000526020600020905b81548152906001019060200180831161064d57829003601f168201915b5050505050905090565b60008061067f6112eb565b905061068c8185856112f3565b600191505092915050565b6000600254905090565b6000806106ac6112eb565b90506106b98582856114be565b6106c485858561154a565b60019150509392505050565b60008111610713576040517f08c379a000000000000000000000000000000000000000000000000000000000815260040161070a90612045565b60405180910390fd5b61071c336112d9565b81111561075e576040517f08c379a000000000000000000000000000000000000000000000000000000000815260040161075590612065565b60405180910390fd5b61076933308361154a565b3373ffffffffffffffffffffffffffffffffffffffff166108fc61078c836117cb565b9081150290604051600060405180830381858888f193505050501580156107b7573d6000803e3d6000fd5b5050565b60006012905090565b6000806107cf6112eb565b9050610863818585600160008673ffffffffffffffffffffffffffffffffffffffff1673ffffffffffffffffffffffffffffffffffffffff16815260200190815260200160002060008973ffffffffffffffffffffffffffffffffffffffff1673ffffffffffffffffffffffffffffffffffffffff1681526020019081526020016000205461085e9190612210565b6112f3565b600191505092915050565b6060600860003373ffffffffffffffffffffffffffffffffffffffff1673ffffffffffffffffffffffffffffffffffffffff1681526020019081526020016000208054806020026020016040519081016040528092919081815260200182805480156108f957602002820191906000526020600020905b8154815260200190600101908083116108e5575b5050505050905090565b60008060008373ffffffffffffffffffffffffffffffffffffffff1673ffffffffffffffffffffffffffffffffffffffff168152602001908152602001600020549050919050565b6109536112eb565b73ffffffffffffffffffffffffffffffffffffffff16610971610be3565b73ffffffffffffffffffffffffffffffffffffffff16146109c7576040517f08c379a00000000000000000000000000000000000000000000000000000000081526004016109be906120c5565b60405180910390fd5b6109d160006117e8565b565b6109db6112eb565b73ffffffffffffffffffffffffffffffffffffffff166109f9610be3565b73ffffffffffffffffffffffffffffffffffffffff1614610a4f576040517f08c379a0000000000000000000000000000000000000000000000000000000008152600401610a46906120c5565b60405180910390fd5b6000600b8054905011610a97576040517f08c379a0000000000000000000000000000000000000000000000000000000008152600401610a8e90612085565b60405180910390fd5b6000600b80549050905060008142604051602001610ab59190611eb3565b6040516020818303038152906040528051906020012060001c610ad89190612456565b90506000600b8281548110610b16577f4e487b7100000000000000000000000000000000000000000000000000000000600052603260045260246000fd5b906000526020600020015490506009600082815260200190815260200160002060009054906101000a900473ffffffffffffffffffffffffffffffffffffffff16600660006101000a81548173ffffffffffffffffffffffffffffffffffffffff021916908373ffffffffffffffffffffffffffffffffffffffff1602179055503373ffffffffffffffffffffffffffffffffffffffff166108fc479081150290604051600060405180830381858888f19350505050158015610bdd573d6000803e3d6000fd5b50505050565b6000600560009054906101000a900473ffffffffffffffffffffffffffffffffffffffff16905090565b600660009054906101000a900473ffffffffffffffffffffffffffffffffffffffff1681565b6000610c3e30610903565b905090565b606060048054610c52906123ad565b80601f0160208091040260200160405190810160405280929190818152602001828054610c7e906123ad565b8015610ccb5780601f10610ca057610100808354040283529160200191610ccb565b820191906000526020600020905b815481529060010190602001808311610cae57829003601f168201915b5050505050905090565b610cdd6112eb565b73ffffffffffffffffffffffffffffffffffffffff16610cfb610be3565b73ffffffffffffffffffffffffffffffffffffffff1614610d51576040517f08c379a0000000000000000000000000000000000000000000000000000000008152600401610d48906120c5565b60405180910390fd5b610d5b30826118ae565b50565b600080610d696112eb565b90506000600160008373ffffffffffffffffffffffffffffffffffffffff1673ffffffffffffffffffffffffffffffffffffffff16815260200190815260200160002060008673ffffffffffffffffffffffffffffffffffffffff1673ffffffffffffffffffffffffffffffffffffffff16815260200190815260200160002054905083811015610e2f576040517f08c379a0000000000000000000000000000000000000000000000000000000008152600401610e2690612145565b60405180910390fd5b610e3c82868684036112f3565b60019250505092915050565b600080610e536112eb565b9050610e6081858561154a565b600191505092915050565b6000670de0b6b3a764000047610e819190612266565b905090565b6000610e91826117cb565b905080341015610ed6576040517f08c379a0000000000000000000000000000000000000000000000000000000008152600401610ecd90612125565b60405180910390fd5b6000610ee1306112d9565b905080831115610f26576040517f08c379a0000000000000000000000000000000000000000000000000000000008152600401610f1d906120a5565b60405180910390fd5b60008234610f3491906122f1565b90503373ffffffffffffffffffffffffffffffffffffffff166108fc829081150290604051600060405180830381858888f19350505050158015610f7c573d6000803e3d6000fd5b50610f8830338661154a565b50505050565b6000600160008473ffffffffffffffffffffffffffffffffffffffff1673ffffffffffffffffffffffffffffffffffffffff16815260200190815260200160002060008373ffffffffffffffffffffffffffffffffffffffff1673ffffffffffffffffffffffffffffffffffffffff16815260200190815260200160002054905092915050565b6000600754826110259190612297565b9050611030336112d9565b811115611072576040517f08c379a000000000000000000000000000000000000000000000000000000000815260040161106990611fa5565b60405180910390fd5b61107d33308361154a565b60005b828110156111d65760006127104233600a546040516020016110a493929190611ece565b6040516020818303038152906040528051906020012060001c6110c79190612456565b9050600a60008154809291906110dc906123df565b9190505550600860003373ffffffffffffffffffffffffffffffffffffffff1673ffffffffffffffffffffffffffffffffffffffff168152602001908152602001600020819080600181540180825580915050600190039060005260206000200160009091909190915055600b819080600181540180825580915050600190039060005260206000200160009091909190915055336009600083815260200190815260200160002060006101000a81548173ffffffffffffffffffffffffffffffffffffffff021916908373ffffffffffffffffffffffffffffffffffffffff1602179055505080806111ce906123df565b915050611080565b505050565b60075481565b6111e96112eb565b73ffffffffffffffffffffffffffffffffffffffff16611207610be3565b73ffffffffffffffffffffffffffffffffffffffff161461125d576040517f08c379a0000000000000000000000000000000000000000000000000000000008152600401611254906120c5565b60405180910390fd5b600073ffffffffffffffffffffffffffffffffffffffff168173ffffffffffffffffffffffffffffffffffffffff1614156112cd576040517f08c379a00000000000000000000000000000000000000000000000000000000081526004016112c490611fc5565b60405180910390fd5b6112d6816117e8565b50565b60006112e482610903565b9050919050565b600033905090565b600073ffffffffffffffffffffffffffffffffffffffff168373ffffffffffffffffffffffffffffffffffffffff161415611363576040517f08c379a000000000000000000000000000000000000000000000000000000000815260040161135a90612105565b60405180910390fd5b600073ffffffffffffffffffffffffffffffffffffffff168273ffffffffffffffffffffffffffffffffffffffff1614156113d3576040517f08c379a00000000000000000000000000000000000000000000000000000000081526004016113ca90611fe5565b60405180910390fd5b80600160008573ffffffffffffffffffffffffffffffffffffffff1673ffffffffffffffffffffffffffffffffffffffff16815260200190815260200160002060008473ffffffffffffffffffffffffffffffffffffffff1673ffffffffffffffffffffffffffffffffffffffff168152602001908152602001600020819055508173ffffffffffffffffffffffffffffffffffffffff168373ffffffffffffffffffffffffffffffffffffffff167f8c5be1e5ebec7d5bd14f71427d1e84f3dd0314c0f7b2291e5b200ac8c7c3b925836040516114b19190612185565b60405180910390a3505050565b60006114ca8484610f8e565b90507fffffffffffffffffffffffffffffffffffffffffffffffffffffffffffffffff81146115445781811015611536576040517f08c379a000000000000000000000000000000000000000000000000000000000815260040161152d90612005565b60405180910390fd5b61154384848484036112f3565b5b50505050565b600073ffffffffffffffffffffffffffffffffffffffff168373ffffffffffffffffffffffffffffffffffffffff1614156115ba576040517f08c379a00000000000000000000000000000000000000000000000000000000081526004016115b1906120e5565b60405180910390fd5b600073ffffffffffffffffffffffffffffffffffffffff168273ffffffffffffffffffffffffffffffffffffffff16141561162a576040517f08c379a000000000000000000000000000000000000000000000000000000000815260040161162190611f85565b60405180910390fd5b611635838383611a0e565b60008060008573ffffffffffffffffffffffffffffffffffffffff1673ffffffffffffffffffffffffffffffffffffffff168152602001908152602001600020549050818110156116bb576040517f08c379a00000000000000000000000000000000000000000000000000000000081526004016116b290612025565b60405180910390fd5b8181036000808673ffffffffffffffffffffffffffffffffffffffff1673ffffffffffffffffffffffffffffffffffffffff16815260200190815260200160002081905550816000808573ffffffffffffffffffffffffffffffffffffffff1673ffffffffffffffffffffffffffffffffffffffff168152602001908152602001600020600082825461174e9190612210565b925050819055508273ffffffffffffffffffffffffffffffffffffffff168473ffffffffffffffffffffffffffffffffffffffff167fddf252ad1be2c89b69c2b068fc378daa952ba7f163c4a11628f55a4df523b3ef846040516117b29190612185565b60405180910390a36117c5848484611a13565b50505050565b6000670de0b6b3a7640000826117e19190612297565b9050919050565b6000600560009054906101000a900473ffffffffffffffffffffffffffffffffffffffff16905081600560006101000a81548173ffffffffffffffffffffffffffffffffffffffff021916908373ffffffffffffffffffffffffffffffffffffffff1602179055508173ffffffffffffffffffffffffffffffffffffffff168173ffffffffffffffffffffffffffffffffffffffff167f8be0079c531659141344cd1fd0a4f28419497f9722a3daafe3b4186f6b6457e060405160405180910390a35050565b600073ffffffffffffffffffffffffffffffffffffffff168273ffffffffffffffffffffffffffffffffffffffff16141561191e576040517f08c379a000000000000000000000000000000000000000000000000000000000815260040161191590612165565b60405180910390fd5b61192a60008383611a0e565b806002600082825461193c9190612210565b92505081905550806000808473ffffffffffffffffffffffffffffffffffffffff1673ffffffffffffffffffffffffffffffffffffffff16815260200190815260200160002060008282546119919190612210565b925050819055508173ffffffffffffffffffffffffffffffffffffffff16600073ffffffffffffffffffffffffffffffffffffffff167fddf252ad1be2c89b69c2b068fc378daa952ba7f163c4a11628f55a4df523b3ef836040516119f69190612185565b60405180910390a3611a0a60008383611a13565b5050565b505050565b505050565b600081359050611a2781612964565b92915050565b600081359050611a3c8161297b565b92915050565b600060208284031215611a5457600080fd5b6000611a6284828501611a18565b91505092915050565b60008060408385031215611a7e57600080fd5b6000611a8c85828601611a18565b9250506020611a9d85828601611a18565b9150509250929050565b600080600060608486031215611abc57600080fd5b6000611aca86828701611a18565b9350506020611adb86828701611a18565b9250506040611aec86828701611a2d565b9150509250925092565b60008060408385031215611b0957600080fd5b6000611b1785828601611a18565b9250506020611b2885828601611a2d565b9150509250929050565b600060208284031215611b4457600080fd5b6000611b5284828501611a2d565b91505092915050565b6000611b678383611e6f565b60208301905092915050565b611b7c81612325565b82525050565b611b93611b8e82612325565b612428565b82525050565b6000611ba4826121cb565b611bae81856121ee565b9350611bb9836121bb565b8060005b83811015611bea578151611bd18882611b5b565b9750611bdc836121e1565b925050600181019050611bbd565b5085935050505092915050565b611c0081612337565b82525050565b6000611c11826121d6565b611c1b81856121ff565b9350611c2b81856020860161237a565b611c3481612514565b840191505092915050565b6000611c4c6023836121ff565b9150611c5782612532565b604082019050919050565b6000611c6f601d836121ff565b9150611c7a82612581565b602082019050919050565b6000611c926026836121ff565b9150611c9d826125aa565b604082019050919050565b6000611cb56022836121ff565b9150611cc0826125f9565b604082019050919050565b6000611cd8601d836121ff565b9150611ce382612648565b602082019050919050565b6000611cfb6026836121ff565b9150611d0682612671565b604082019050919050565b6000611d1e6030836121ff565b9150611d29826126c0565b604082019050919050565b6000611d416029836121ff565b9150611d4c8261270f565b604082019050919050565b6000611d646018836121ff565b9150611d6f8261275e565b602082019050919050565b6000611d876021836121ff565b9150611d9282612787565b604082019050919050565b6000611daa6020836121ff565b9150611db5826127d6565b602082019050919050565b6000611dcd6025836121ff565b9150611dd8826127ff565b604082019050919050565b6000611df06024836121ff565b9150611dfb8261284e565b604082019050919050565b6000611e136029836121ff565b9150611e1e8261289d565b604082019050919050565b6000611e366025836121ff565b9150611e41826128ec565b604082019050919050565b6000611e59601f836121ff565b9150611e648261293b565b602082019050919050565b611e7881612363565b82525050565b611e8781612363565b82525050565b611e9e611e9982612363565b61244c565b82525050565b611ead8161236d565b82525050565b6000611ebf8284611e8d565b60208201915081905092915050565b6000611eda8286611e8d565b602082019150611eea8285611b82565b601482019150611efa8284611e8d565b602082019150819050949350505050565b6000602082019050611f206000830184611b73565b92915050565b60006020820190508181036000830152611f408184611b99565b905092915050565b6000602082019050611f5d6000830184611bf7565b92915050565b60006020820190508181036000830152611f7d8184611c06565b905092915050565b60006020820190508181036000830152611f9e81611c3f565b9050919050565b60006020820190508181036000830152611fbe81611c62565b9050919050565b60006020820190508181036000830152611fde81611c85565b9050919050565b60006020820190508181036000830152611ffe81611ca8565b9050919050565b6000602082019050818103600083015261201e81611ccb565b9050919050565b6000602082019050818103600083015261203e81611cee565b9050919050565b6000602082019050818103600083015261205e81611d11565b9050919050565b6000602082019050818103600083015261207e81611d34565b9050919050565b6000602082019050818103600083015261209e81611d57565b9050919050565b600060208201905081810360008301526120be81611d7a565b9050919050565b600060208201905081810360008301526120de81611d9d565b9050919050565b600060208201905081810360008301526120fe81611dc0565b9050919050565b6000602082019050818103600083015261211e81611de3565b9050919050565b6000602082019050818103600083015261213e81611e06565b9050919050565b6000602082019050818103600083015261215e81611e29565b9050919050565b6000602082019050818103600083015261217e81611e4c565b9050919050565b600060208201905061219a6000830184611e7e565b92915050565b60006020820190506121b56000830184611ea4565b92915050565b6000819050602082019050919050565b600081519050919050565b600081519050919050565b6000602082019050919050565b600082825260208201905092915050565b600082825260208201905092915050565b600061221b82612363565b915061222683612363565b9250827fffffffffffffffffffffffffffffffffffffffffffffffffffffffffffffffff0382111561225b5761225a612487565b5b828201905092915050565b600061227182612363565b915061227c83612363565b92508261228c5761228b6124b6565b5b828204905092915050565b60006122a282612363565b91506122ad83612363565b9250817fffffffffffffffffffffffffffffffffffffffffffffffffffffffffffffffff04831182151516156122e6576122e5612487565b5b828202905092915050565b60006122fc82612363565b915061230783612363565b92508282101561231a57612319612487565b5b828203905092915050565b600061233082612343565b9050919050565b60008115159050919050565b600073ffffffffffffffffffffffffffffffffffffffff82169050919050565b6000819050919050565b600060ff82169050919050565b60005b8381101561239857808201518184015260208101905061237d565b838111156123a7576000848401525b50505050565b600060028204905060018216806123c557607f821691505b602082108114156123d9576123d86124e5565b5b50919050565b60006123ea82612363565b91507fffffffffffffffffffffffffffffffffffffffffffffffffffffffffffffffff82141561241d5761241c612487565b5b600182019050919050565b60006124338261243a565b9050919050565b600061244582612525565b9050919050565b6000819050919050565b600061246182612363565b915061246c83612363565b92508261247c5761247b6124b6565b5b828206905092915050565b7f4e487b7100000000000000000000000000000000000000000000000000000000600052601160045260246000fd5b7f4e487b7100000000000000000000000000000000000000000000000000000000600052601260045260246000fd5b7f4e487b7100000000000000000000000000000000000000000000000000000000600052602260045260246000fd5b6000601f19601f8301169050919050565b60008160601b9050919050565b7f45524332303a207472616e7366657220746f20746865207a65726f206164647260008201527f6573730000000000000000000000000000000000000000000000000000000000602082015250565b7f4e656365736974617320636f6d70726172206d617320746f6b656e732e000000600082015250565b7f4f776e61626c653a206e6577206f776e657220697320746865207a65726f206160008201527f6464726573730000000000000000000000000000000000000000000000000000602082015250565b7f45524332303a20617070726f766520746f20746865207a65726f20616464726560008201527f7373000000000000000000000000000000000000000000000000000000000000602082015250565b7f45524332303a20696e73756666696369656e7420616c6c6f77616e6365000000600082015250565b7f45524332303a207472616e7366657220616d6f756e742065786365656473206260008201527f616c616e63650000000000000000000000000000000000000000000000000000602082015250565b7f4e6563657369746173206465766f6c76657220756e206e756d65726f20706f7360008201527f697469766f20646520746f6b656e732e00000000000000000000000000000000602082015250565b7f4e6f207469656e6573206c6f7320746f6b656e7320717565206465736561732060008201527f6465766f6c7665722e0000000000000000000000000000000000000000000000602082015250565b7f4e6f2068617920626f6c65746f7320636f6d707261646f730000000000000000600082015250565b7f436f6d70726120756e206e756d65726f206d656e6f7220646520746f6b656e7360008201527f2e00000000000000000000000000000000000000000000000000000000000000602082015250565b7f4f776e61626c653a2063616c6c6572206973206e6f7420746865206f776e6572600082015250565b7f45524332303a207472616e736665722066726f6d20746865207a65726f20616460008201527f6472657373000000000000000000000000000000000000000000000000000000602082015250565b7f45524332303a20617070726f76652066726f6d20746865207a65726f2061646460008201527f7265737300000000000000000000000000000000000000000000000000000000602082015250565b7f436f6d707261206d656e6f7320746f6b656e73206f207061676120636f6e206d60008201527f6173206574686572730000000000000000000000000000000000000000000000602082015250565b7f45524332303a2064656372656173656420616c6c6f77616e63652062656c6f7760008201527f207a65726f000000000000000000000000000000000000000000000000000000602082015250565b7f45524332303a206d696e7420746f20746865207a65726f206164647265737300600082015250565b61296d81612325565b811461297857600080fd5b50565b61298481612363565b811461298f57600080fd5b5056fea26469706673582212203b7c35dcda57aa74e4ddc36e891f7b324543ba7203247243f501e9ffc0c7d0c764736f6c63430008040033",
  "immutableReferences": {},
  "source": "// SPDX-License-Identifier: MIT\npragma solidity >=0.4.22 <0.9.0;\nimport \"@openzeppelin/contracts/token/ERC20/ERC20.sol\";\nimport \"@openzeppelin/contracts/access/Ownable.sol\";\n\ncontract loteria is ERC20, Ownable {\n    \n    // ============================================\n    // Gestion de los tokens\n    // ============================================  \n\n    // Constructor \n    constructor () ERC20(\"Loteria\", \"JA\") {\n        _mint(address(this), 1000);\n    }\n    \n    // Ganador del premio de la loteria\n    address public ganador;\n\n   // Precio de los tokens del proyecto\n    function precioTokens(uint256 _numTokens) internal pure returns (uint256){\n        return _numTokens * (1 ether);\n    }\n\n    // Visualizacion del balance de tokens de una persona\n    function balanceTokens(address _account) public view returns (uint256){ \n        return balanceOf(_account);\n    }\n\n    // Visualizacion del balance de tokens del Smart Contract\n    function balanceTokensSC() public view returns (uint256){ \n        return balanceOf(address(this));\n    }\n\n    // Visualizacion del balance de ethers del Smart Contract\n    function balanceEthersSC() public view returns (uint256){\n        return address(this).balance / 10**18;\n    }    \n\n    // Nuevos tokens erc-20\n    function mint(uint256 _cantidad) public onlyOwner {\n        _mint(address(this), _cantidad);\n    }    \n    \n    // Compra de tokens \n    function compraTokens(uint256 _numTokens) public payable {\n        // Establecimiento del coste de los tokens a comprar\n        uint256 coste = precioTokens(_numTokens);\n        // Evaluacion del dinero que el cliente paga por los tokens\n        require(msg.value >= coste, \"Compra menos tokens o paga con mas ethers\");\n        // Obtencion del numero de tokens disponibles en el Smart Contract\n        uint256 balance = balanceTokens(address(this));\n        require(_numTokens <= balance, \"Compra un numero menor de tokens.\");\n        //  El returnValue se define como lo que paga el cliente menos lo que vale el producto\n        uint256 returnValue = msg.value - coste;\n        // El Smart Contract devuelve la cantidad restante al cliente\n        payable(msg.sender).transfer(returnValue);\n        // El numero de tokens comprados se transfiere al cliente \n        _transfer(address(this), msg.sender, _numTokens);\n    }\n\n    // ============================================\n    // Gestion de la loteria\n    // ============================================\n    \n    // Precio del boleto de loteria (en tokens) \n    uint public precioBoleto = 5;\n    // Relacion: persona que compra los boletos -> el numero de los boletos\n    mapping (address => uint []) idPersona_boletos;\n    // Relacion: boleto -> ganador\n    mapping (uint => address) ADNBoleto;\n    // Numero aleatorio\n    uint randNonce = 0;\n    // Boletos de la loteria generados \n    uint [] boletosComprados;    \n\n    // Compra de boletos de loteria\n    function compraBoleto(uint _numBoletos) public {\n        // Precio total de los boletos a comprar\n        uint precioTotal = _numBoletos*precioBoleto;\n        // Verificacion de los tokens del usuario\n        require (precioTotal <= balanceTokens(msg.sender), \"Necesitas comprar mas tokens.\");\n        // Transferencia de tokens del usuario al Smart Contract\n        _transfer(msg.sender, address(this), precioTotal);\n        /* Recoge la marca de tiempo (block.timestamp), msg.sender y un Nonce\n        (un numero que solo se utiliza una vez, para que no ejecutemos dos veces la misma \n        funcion de hash con los mismos parametros de entrada) en incremento.\n        Se utiliza 'keccak256 'para convertir estas entradas a un hash aleatorio, \n        convertir ese hash a un uint y luego utilizamos % 10000 para tomar los ultimos 4 digitos,\n        dando un valor aleatorio entre 0 - 9999. */\n        for (uint i = 0; i < _numBoletos; i++) {\n            uint random = uint(keccak256(abi.encodePacked(block.timestamp, msg.sender, randNonce))) % 10000;\n            randNonce++;\n            // Almacenamiento de los datos de los boletos de loteria\n            idPersona_boletos[msg.sender].push(random);\n            // Numero del boleto comprado\n            boletosComprados.push(random);\n            // Asignacion del ADN del boleto para la generacion de un ganador \n            ADNBoleto[random] = msg.sender;\n        }\n    }\n    \n    // Visualizacion de los boletos del usuario\n    function tusBoletos() public view returns (uint [] memory){\n        return idPersona_boletos[msg.sender];\n    }\n    \n    // Generacion del ganador de la loteria\n    function generarGanador() public onlyOwner {\n        // Verificacion de la compra de mas 1 boleto o mas\n        require(boletosComprados.length > 0, \"No hay boletos comprados\");\n        // Declaracion de la longitud del array \n        uint longitud = boletosComprados.length;\n        // Eleccion aleatoria de un numero entre: [0 - Longitud]\n        uint random = uint(uint(keccak256(abi.encodePacked(block.timestamp))) % longitud);\n        // Seleccion del numero aleatorio mediante la posicion del array aleatoria\n        uint eleccion = boletosComprados[random];\n        // Direccion del ganador de la loteria\n        ganador = ADNBoleto[eleccion];\n        // Envio de los ethers del premio de loteria al ganador \n        payable(msg.sender).transfer(address(this).balance);\n    }\n    \n    // Devolucion de los tokens al Smart Contract \n    function devolverTokens(uint _numTokens) public payable {\n        // El numero de tokens a devolver debe ser mayor a 0 \n        require(_numTokens > 0 , \"Necesitas devolver un numero positivo de tokens.\");\n        // El usuario debe tener los tokens que desea devolver \n        require (_numTokens <= balanceTokens(msg.sender), \"No tienes los tokens que deseas devolver.\");\n        // El usuario transfiere los tokens al Smart Contract\n        _transfer(msg.sender, address(this), _numTokens);\n        // El Smart Contract envia los ethers al usuario\n        payable(msg.sender).transfer(precioTokens(_numTokens));\n    }\n\n}",
  "sourcePath": "/Users/joan_amengual/GitHub/Bootcamp/30 - DApp con React - Loteria con Tokens ERC-20/src/contracts/loteria.sol",
  "compiler": {
    "name": "solc",
    "version": "0.8.4+commit.c7e474f2.Emscripten.clang"
  },
  "schemaVersion": "3.4.7",
  "updatedAt": "2022-04-14T02:04:38.140Z",
  "networkType": "ethereum",
  "devdoc": {
    "kind": "dev",
    "methods": {
      "allowance(address,address)": {
        "details": "See {IERC20-allowance}."
      },
      "approve(address,uint256)": {
        "details": "See {IERC20-approve}. NOTE: If `amount` is the maximum `uint256`, the allowance is not updated on `transferFrom`. This is semantically equivalent to an infinite approval. Requirements: - `spender` cannot be the zero address."
      },
      "balanceOf(address)": {
        "details": "See {IERC20-balanceOf}."
      },
      "decimals()": {
        "details": "Returns the number of decimals used to get its user representation. For example, if `decimals` equals `2`, a balance of `505` tokens should be displayed to a user as `5.05` (`505 / 10 ** 2`). Tokens usually opt for a value of 18, imitating the relationship between Ether and Wei. This is the value {ERC20} uses, unless this function is overridden; NOTE: This information is only used for _display_ purposes: it in no way affects any of the arithmetic of the contract, including {IERC20-balanceOf} and {IERC20-transfer}."
      },
      "decreaseAllowance(address,uint256)": {
        "details": "Atomically decreases the allowance granted to `spender` by the caller. This is an alternative to {approve} that can be used as a mitigation for problems described in {IERC20-approve}. Emits an {Approval} event indicating the updated allowance. Requirements: - `spender` cannot be the zero address. - `spender` must have allowance for the caller of at least `subtractedValue`."
      },
      "increaseAllowance(address,uint256)": {
        "details": "Atomically increases the allowance granted to `spender` by the caller. This is an alternative to {approve} that can be used as a mitigation for problems described in {IERC20-approve}. Emits an {Approval} event indicating the updated allowance. Requirements: - `spender` cannot be the zero address."
      },
      "name()": {
        "details": "Returns the name of the token."
      },
      "owner()": {
        "details": "Returns the address of the current owner."
      },
      "renounceOwnership()": {
        "details": "Leaves the contract without owner. It will not be possible to call `onlyOwner` functions anymore. Can only be called by the current owner. NOTE: Renouncing ownership will leave the contract without an owner, thereby removing any functionality that is only available to the owner."
      },
      "symbol()": {
        "details": "Returns the symbol of the token, usually a shorter version of the name."
      },
      "totalSupply()": {
        "details": "See {IERC20-totalSupply}."
      },
      "transfer(address,uint256)": {
        "details": "See {IERC20-transfer}. Requirements: - `to` cannot be the zero address. - the caller must have a balance of at least `amount`."
      },
      "transferFrom(address,address,uint256)": {
        "details": "See {IERC20-transferFrom}. Emits an {Approval} event indicating the updated allowance. This is not required by the EIP. See the note at the beginning of {ERC20}. NOTE: Does not update the allowance if the current allowance is the maximum `uint256`. Requirements: - `from` and `to` cannot be the zero address. - `from` must have a balance of at least `amount`. - the caller must have allowance for ``from``'s tokens of at least `amount`."
      },
      "transferOwnership(address)": {
        "details": "Transfers ownership of the contract to a new account (`newOwner`). Can only be called by the current owner."
      }
    },
    "version": 1
  },
  "userdoc": {
    "kind": "user",
    "methods": {},
    "version": 1
  }
}